:020000040800F2
:10000000D0CA0020810200081B410008913B000873
:10001000194100081F0B00087D6600080000000061
:10002000000000000000000000000000C101000806
:100030002D0F0008000000001D020008D149000833
:100040009B0200089B0200089B0200089B0200081C
:100050009B0200089B0200089B0200089B0200080C
:100060009B0200089B0200089B0200089B020008FC
:100070009B0200089B0200089B0200089B020008EC
:100080009B0200089B0200089B020008850B0008E9
:10009000790B00089B0200089B0200089B020008E5
:1000A0009B0200089B0200089B0200089B020008BC
:1000B0009B0200089B020008C14A00089B0200083E
:1000C0009B0200089B0200089B0200089B0200089C
:1000D0009B020008A14F00089B0200089B02000839
:1000E0009B0200089B0200089B0200089B0200087C
:1000F0009B0200089B0200089B0200089B0200086C
:100100009B0200089B0200089B0200089B0200085B
:100110009B0200089B0200089B0200089B0200084B
:100120009B0200089B0200087D0E00089B0200084D
:100130009B0200089B0200089B0200089D0B000820
:10014000910B00089B0200089B0200081D4100085B
:100150009B0200089B0200089B0200089B0200080B
:100160009B0200089B0200089B0200089B020008FB
:100170009B0200089B0200089B0200080000000090
:100180009B0200089B0200089B0200089B020008DB
:100190009B0200089B0200089B0200089B020008CB
:1001A00000000000000000009B020008DFF80CD0F7
:1001B00000F078FC00480047A98C0008D0CA002055
:1001C0002C4B19680868B0E8F04F80F30988BFF33A
:1001D0006F8F4FF0000080F311887047000000001F
:1001E00008480068006880F308884FF0000080F33A
:1001F000148862B661B6BFF34F8FBFF36F8F00DF15
:1002000000BF00BF08ED00E0DFF80C00016841F41A
:1002100070010160704700BF88ED00E0EFF30980D6
:10022000BFF36F8F134B1A681EF0100F08BF20ED3D
:10023000108A20E9F04F106009B44FF0500080F3AD
:100240001188BFF34F8FBFF36F8F09F0CBFF4FF0D3
:10025000000080F3118809BC19680868B0E8F04F05
:100260001EF0100F08BFB0EC108A80F30988BFF3AE
:100270006F8F704798000020EFF3058070470000F3
:100280000648804706480047FEE7FEE7FEE7FEE730
:10029000FEE7FEE7FEE7FEE7FEE7FEE76D4A000841
:1002A000AD0100089FED1A1AF5EE000A40EE010AB2
:1002B000BDEEE00AF5EEC00A10EE100AF1EE10FAFB
:1002C00038BF401E00EE100A1349F7EE001AB8EED0
:1002D000C00A30EEC00ADFED0F0A20EE200AFCEE65
:1002E000C00A10EE900AC0F3080000EE900A01EB7D
:1002F0008000F8EE600A90ED011A70EE600A90ED51
:10030000000A71EEE01A21EE800A00EE810A7047C1
:1003100083F9223E0000004474AF0008B5EEC00A25
:10032000F1EE10FA07D2DFED1E0AB4EEE00AF1EEAC
:1003300010FAA8BF7047DFED1B0AB5EEC00A60EEE9
:10034000200ABDEEE01A11EE100AF1EE10FA38BFE5
:10035000401E00EE100A1549F7EE001AB8EEC00A6A
:1003600030EEC00ADFED100A60EE200ABCEEE00AB3
:1003700010EE100AC0F3080000EE100A01EB800036
:10038000B8EE400A90ED011A70EEC00A90ED000A36
:1003900071EEE01A21EE800A00EE810A704700003B
:1003A000CD024CB483F9223E0000004474AF000833
:1003B0002DE9F05F0546002092469B46884606469A
:1003C000814640241BE0284641464746224600F02D
:1003D0004AFA53465A46C01A914110D3114618465C
:1003E000224600F031FA2D1A67EB01084F462246EB
:1003F0000120002100F028FA17EB00094E41201ED1
:10040000A4F10104DFDC484631462A464346BDE8F4
:10041000F09F40EA01039B0703D009E008C9121FBF
:1004200008C0042AFAD203E011F8013B00F8013BAE
:10043000521EF9D27047D2B201E000F8012B491EDA
:10044000FBD270470022F6E710B513460A46044671
:100450001946FFF7F0FF204610BD2DE9FE4F8046FC
:1004600081EA0300C00F0C46009021F0004123F008
:100470000045B8EB0200A94105D24046214690460E
:100480001C460B46024623F00040104347D0270D80
:10049000C7F30A00C3F30A510290401A01904028A2
:1004A0006BDAC3F3130040F4801B0098924620B12E
:1004B0000023D2EB030A63EB0B0B01985946C0F102
:1004C0004002504600F0C0F906460D4650465946D7
:1004D000019A00F0D8F910EB08006141002487EA86
:1004E000115284EAE7731A4340D0009A62B3019A2A
:1004F000012A4FEA075215DC001B61EB02014FF0A5
:10050000004202EA0752CDE90042001C41F5801189
:1005100032462B4600F00FFA03B0BDE8F08F40469C
:100520002146F9E7001B61EB0201001C41F5801335
:1005300000185B412018A2F5001747EB030140EAC1
:10054000D570B6196D4111E06D084FEA360645EADF
:10055000C0754FEA0752001B61EB0201001C41F518
:10056000801149084FEA30000019514132462B46AC
:1005700003B0BDE8F04F00F0CFB900980122400071
:100580000023D0EB020263EBE073009821464FEAB0
:10059000E074B8EB000061EB0401E9E783F000438D
:1005A0005BE781F0004158E72DE9FE4F81EA030443
:1005B00004F0004421F0004100944FF0000B23F0C0
:1005C000004350EA01045ED052EA03045BD0C3F357
:1005D0000A54C1F30A552C44A4F2F3340194A0FB4D
:1005E0000254C1F3130141F48011C3F3130343F424
:1005F000801301FB024400FB034E840A970A44EA7D
:10060000815447EA8357A4FB076802958D0A05FBCE
:1006100007854FEA932C04FB0C542705029D4FEAF3
:10062000065847EA1637B5EB08056EEB070C870E40
:10063000920E47EA811742EA8312A7FB0201B6EB4A
:100640000B0164EB00042B0D43EA0C335E1844EB02
:100650001C50DA465146E7FB0201C5F313044FEA8A
:100660000B3343EA14534FEA0432019C43EA060376
:10067000A4F10C040294009CCDE900B400F05BF9F5
:1006800003B0BDE8F08F00200146F9E72DE9F04DF9
:1006900081EA030404F0004B21F0004514464FF0BA
:1006A000000A23F0004150EA050220D054EA01027A
:1006B0001DD0C5F30A570246C5F31303C1F3130057
:1006C000C1F30A5640F4801543F48013A7EB0608E3
:1006D000101BD64608F2FD3873EB050002D308F173
:1006E000010801E092185B41B8F1000F03DA002025
:1006F0000146BDE8F08D00204FF480110646844687
:100700000EE0171B73EB050705D3121B63EB050304
:1007100006434CEA010C49084FEA300092185B414D
:1007200050EA0107EDD152EA030012D082EA040038
:1007300083EA0501084305D0101BAB4106D2012214
:10074000002306E000224FF0004302E06FF00102B8
:1007500053101AEB06004CEB085110EB0A0041EB6A
:100760000B01BDE8F04D00F0D7B80EB5C10F80EA1F
:10077000E0700844CA07002140F233438DE80E00C0
:100780000A460B4600F0D7F803B000BD00F0004267
:1007900030F000400AD0C10D01F56071C0F31600C1
:1007A00042EA0151C2084007114370470020014648
:1007B0007047000030B5041E71F1000404DB4FF0F7
:1007C0000044404264EB0101141E73F1000405DB98
:1007D0001C464FF00043524263EB0403994208BFAA
:1007E000904230BD01F0004330B421F0004150EAA6
:1007F000010206D00A0DA2F56072C1F31301002AAE
:1008000002DC30BC00207047440F44EAC104C10040
:10081000E01830BC00EBC25000F047B830B50B46D2
:10082000014600202022012409E021FA02F59D4220
:1008300005D303FA02F5491B04FA02F52844151EF4
:10084000A2F10102F1DC30BD202A04DB203A00FADB
:1008500002F1002070479140C2F1200320FA03F317
:10086000194390407047202A04DB203A21FA02F015
:100870000021704721FA02F3D040C2F120029140DA
:10088000084319467047202A06DBCB17203A41FA65
:1008900002F043EAE07306E041FA02F3D040C2F10D
:1008A000200291400843194670470029A8BF7047AD
:1008B000401C490008BF20F00100704710B4B0FA96
:1008C00080FC00FA0CF050EA010404BF10BC704731
:1008D00049B1CCF1200421FA04F411FA0CF118BF4B
:1008E000012121430843A3EB0C01CB1D4FEA00611A
:1008F0004FEA102042BF002010BC704700EBC350ED
:1009000010440029A4BF10BC7047401C490008BF18
:1009100020F0010010BC704710B5141E73F10004E4
:1009200008DA401C41F1000192185B411A4301D1E1
:1009300020F0010010BD2DE9F04D92469B4611B10B
:10094000B1FA81F202E0B0FA80F220329046FFF76D
:100950007BFF04460F4640EA0A0041EA0B0153467A
:100960005A46084313D0114653EA010019D0C8F182
:1009700040025046FFF777FF05460E46504659465F
:100980004246FFF761FF084305D0012004E02046FE
:100990003946BDE8F08D0020054346EAE0762C4359
:1009A00037430A986305E40AA0EB08000022FD0A19
:1009B00044EA47540A3002D500200146E9E7010520
:1009C00010196941DDE9084500196941BDE8F04D9C
:1009D000A2E72DE9F04D00231A461B1A8A4103DBDA
:1009E00000200146BDE8F08DC1F30A52C1F31301A6
:1009F00041F480154FF0000BD10702D100186D4172
:100A0000521E0027044640F2FF11384601EB620AED
:100A10003E468046024600204FF48011FFF723FF38
:100A2000C2197141BB1846EB0100B4EB030C75EB26
:100A3000000C04D3E41A65EB000517460E46241992
:100A400008F101006D4180463428E3DDF91946EBD9
:100A50000600091BA84103D24FF0FF32134601E004
:100A6000002213461BEB070046EB0A51BDE8F04D90
:100A7000FFF752BFC1F30A52C1F3130140F2FF3333
:100A800041F480119A4202DA00200146704740F298
:100A900033439A42A2F2334202DC5242FFF7E3BEF2
:100AA000FFF7D2BE064C074D06E0E06840F00103B8
:100AB00094E8070098471034AC42F6D3FFF77AFB6E
:100AC000E0B8000800B9000870B58C1810F8015B98
:100AD00015F0070301D110F8013B2A1106D110F8D7
:100AE000012B03E010F8016B01F8016B5B1EF9D1DB
:100AF0002B0705D40023521E0DD401F8013BFAE761
:100B000010F8013BCB1A921C03E013F8015B01F8CB
:100B1000015B521EF9D5A142D8D3002070BDFEE77B
:100B2000F0EE400AC0ED020A91ED030AD1ED041A7D
:100B300090ED011A20EE200A90ED002AD0ED032A54
:100B400001EE810AD1ED051A01EE820A91ED012A2A
:100B5000D0ED041A02EE610A91ED022A02EE620A59
:100B600080ED050A80ED001AC0ED010AC0ED031A00
:100B700080ED040A70470000014800F0B4BD000099
:100B800098040020014800F0AEBD00009804002049
:100B9000014800F0A8BD0000C0040020014800F09A
:100BA000A2BD0000C0040020002070470020704754
:100BB00010B500220449054804F0ECFA0449034842
:100BC00004F0E2FA002010BD401A002018090020AD
:100BD0004012002070B50D46044680210C4801F0FB
:100BE0009EFA0C4804F0B4FA00220B4905E000BF5D
:100BF0008E1814F8013BB370521C2B689342F7D83F
:100C00000A440A23937001224A7040B270BD00006A
:100C10000018024018090020BC110020094A10B534
:100C2000D2F89022D2F814220AB1012010BD0A464F
:100C30000146044804F0AEFABDE81040014804F053
:100C400007BB00001809002010B50A88C2F30A0289
:100C5000A2F5806202804A788B78D20842EA431279
:100C6000C2F30A02A2F5806242808A78CB789209A8
:100C700042EA83020B7942EA8322C2F30A02A2F516
:100C8000806282800A794B79520842EAC312C2F329
:100C90000A02A2F58062C2804A79920902724A79F8
:100CA000C2F301124272CA8842810A8982814A894A
:100CB000C2810A7B02744A7B4274C989418201F075
:100CC0003BFA054908604A68821AB2F5FA7F01D9F1
:100CD000486010BD886010BD0803002070B5040096
:100CE0002DED048B69D00420207407F0D1FA206028
:100CF00007F0AAFAE06007F0CFFA606007F0C4FAE4
:100D00009FED2F8ADFED2F8A9FED2F9A0025A0609F
:100D1000284607F08FFA05EB850104EB8101B0EE60
:100D2000490A486105EB850000EBC50004EB800033
:100D3000B0EE482AF0EE681AB0EE401AF2EE040A5D
:100D4000643008F021FD6D1CEDB2042DE0D3B1EE4E
:100D5000082ADFED1E1A9FED1E1AF1EE040A9FED20
:100D60001D0A04F59A7008F00FFD9FED1C8A1A49C0
:100D700004F5B470B0EE480A07F009FA1649B0EE6F
:100D8000480A091D04F5BC7007F001FAB0EE080A24
:100D900084ED6B0AB8EE080A84ED6C0A9FED100A28
:100DA000204684ED6D0A9FED0F0A84ED6E0ABDECBE
:100DB000048BBDE8704006F089BFBDEC048B70BDAC
:100DC0000060EA450000FA4400204B46CDCC4C3E82
:100DD0000000000000002042E4A600086F12033B60
:100DE0009A9939409A9939C008B540F2651008F0CF
:100DF00023FC1F48FFF772FF1D4C1E4D1C4806F0D8
:100E0000A1FE1B494A7C087C824214D012B140B139
:100E1000012A03D0012809D0022A0BD0022805D0CC
:100E200008E09FED150A81ED690A03E091ED6F0A74
:100E300081ED6A0A48740E4806F048FF0C4807F036
:100E4000B7F80B4806F0ACFEB4F960000090B4F9B6
:100E50004C30B4F93820B4F92410022008F0EAFE2E
:100E60000421284601F05BF9032008F0E5FBC5E703
:100E7000746200200018024000000000014800F0E9
:100E8000F3BE0000B808002001681823CAB2103A67
:100E9000B2FBF3F2054B6FF30901032A9B5CC365B8
:100EA00000D9091D8165084670470000BCA60008EE
:100EB00010B5014600208B698A6A4FF0C07453B1A7
:100EC000B3F5005F15D072B1012A0CD0022A0AD006
:100ED000032A09D104E01AB1012A06D0022A03D15B
:100EE000C96AC90100D5012010BDC96AA142FAD062
:100EF00010BD002AF7D0012AF2D0022AF3D0032A2B
:100F0000F3D010BD30B50468256825F48025256030
:100F1000046863608368402B036803D099600068AD
:100F2000C26030BD9A600068C16030BD70477047D4
:100F300010B5040038D002F079FE606890ED010A27
:100F400084ED630AD4F8D800B4F87811808807F0EB
:100F500015FF84ED610A606890ED000A84ED300AA7
:100F6000E068B4F8AC10808807F008FF0F4884ED03
:100F70002E0A81781A2910D1417A7A290DD1B0F838
:100F80000310A0F87010B0F80520A0F87220B0F897
:100F90000730A0F87430C0E91A1204480321BDE8F4
:100FA00010407030FFF73ABE10BD0000BC110020A9
:100FB0002DE9F04704002DED068B7DD007F060F998
:100FC000E06007F04DF9C4F8D80007F03DF9606023
:100FD00007F03EF9A06007F05BF9B2EE042A9FED3E
:100FE0005E8AF0EE481A9FED5D1A206004F1100051
:100FF000F0EE480AB2EE040A824608F0C5FBB1EEF4
:10100000002AF0EE481AB0EE481A9FED55AAF0EE0D
:101010004A0ADFED54AA04F144008146B0EE6A0AA0
:1010200008F0B2FBDFED508AB0EE682A9FED4F9AD0
:10103000B0EE481AF3EE040AF0EE491ADFED4C9ACE
:1010400004F178008046B0EE690A08F09DFB04F1D7
:10105000DC00B2EE042AF0EE481AB0EE481AF0EEC8
:10106000480AB2EE0E0A054608F08EFB04F58870B9
:10107000B1EE002AF0EE481AB0EE481AF0EE4A0A35
:10108000B0EE6A0A064608F07FFB04F5A270B0EEE7
:10109000492AF0EE681AB0EE481AF3EE040A9FED02
:1010A000350A074608F070FB504608F057FB4846E3
:1010B00008F054FB404600E049E008F04FFB2846AA
:1010C00008F04CFB304608F049FB384608F046FB78
:1010D000294900209FED298A8866C86640F245703C
:1010E000DFED278AA4F8AC0040F69350A4F878010D
:1010F000B0EE481AF0EE680A9FED220A07F0B0FD44
:1011000084ED2C0AB0EE481AF0EE680A9FED1E0A34
:1011100007F0A6FD84ED2D0AB0EE481AF0EE680A3D
:101120009FED1A0A07F09CFD84ED5F0AB0EE481AA5
:10113000F0EE680AB0EE690A07F092FD84ED600AED
:101140002046BDEC068BBDE8F047FFF7F1BEBDECD5
:10115000068BBDE8F0870000000000009A99993ED8
:10116000CDCCCC3DEC51B83E00409C450060EA46F9
:1011700000401C450000FA44BC110020DB0F494030
:10118000DB0F49C000E04045006087440000854512
:1011900070B504003ED020681F4DC08820B10020EB
:1011A000E86094ED670A26E0E86840B994ED610ACA
:1011B000204684ED620A07F073F80120E860606859
:1011C0009FED161ADFED160A90ED010A07F048FDB3
:1011D000F0EE400A94ED620A04F5887008F064FAB3
:1011E000BDEEC00A10EE100A00B200EE100AA4F81C
:1011F000A001B8EEC00A84ED660AA068D0ED010A2D
:1012000004F5A27008F050FABDEEC00A10EE100A04
:10121000A4F8A00170BD000010010020DB0F4940C0
:10122000DB0F49C010B500283AD002680021B2F99E
:10123000043003F10A04152C02D3A0F8A83101E010
:10124000A0F8A811B2F9063003F10A04152C02D354
:10125000A0F8A63101E0A0F8A611137A174A022BD4
:101260001FD0032B25D090F8A411E9B1012917D183
:10127000B0F9A611DFED120A00EE101AB8EEC00A9E
:1012800020EE200ADFED0F0A80ED670AB0F9A81101
:1012900000EE101AB8EEC00A20EE200A80ED340AE3
:1012A00010BD80F8A41191809FED070A80ED670AB8
:1012B000F4E7012180F8A4119180D9E71001002002
:1012C000EFF89B3BEFF89BBB0000000070B50400FB
:1012D00042D02068214D808840B100209FED200A37
:1012E000A86084ED2F0A94ED340A26E0A86888B936
:1012F00060689FED1C1ADFED1C0A90ED000AB1EE4C
:10130000400A07F0ADFC84ED2F0A204606F0C8FF26
:101310000120A860D4ED2E0A94ED2F0A04F14400B8
:1013200008F0C2F9BDEEC00A10EE100A00B200EEDD
:10133000100AA4F8D400B8EEC00A84ED330AA068FD
:10134000D0ED020A04F1780008F0AEF9BDEEC00A53
:1013500010EE100AA4F8D40070BD000010010020A7
:1013600000000000DB0F4940DB0F49C008B5C92071
:1013700008F062F92048FFF71BFE1F4C1F4DDFF8F5
:10138000808000261C48FFF7D3FD1B48FFF74AFF6B
:10139000194F97F8A40110B1012807D00CE00020E4
:1013A000FFF7F6FE0020FFF791FF05E03846FFF754
:1013B0008DFF3846FFF7ECFEB4F8A001404202B2C0
:1013C0006A80B4F9D410298094F8A40110B10128DE
:1013D00005D009E000231A461946009601E00023D3
:1013E0000096002008F026FC0821404600F097FEF9
:1013F000012008F021F9C5E7C86000201001002095
:101400000018024090F82020012A07D0022A05D0B7
:10141000416A41F4802141620120704700684269BD
:101420000A43426100207047F0B590F820500468EC
:10143000A468012D05D0022D03D0416A41F480211A
:1014400053E014F0406F01D1E5004BD5C4F30164C3
:10145000022C03D9416A41F4000146E00125A54070
:101460001D608D684FF4C0739DB1CE6835434E68E2
:1014700045EAC605066803EB0417F5514FF4C2753B
:10148000076805EB04150E697E51097D012905D019
:1014900009E00E88CD6845EA4655EBE701684E59EC
:1014A00046F480764E511179D2F805504FF4C67645
:1014B00041EA0525016806EB04168D511178D2F832
:1014C00001204FF4C47541EA0221026805EB0415BE
:1014D0005151006803EB0411425842F0010242509E
:1014E0000020F0BD416A41F4001141620120F0BDCD
:1014F00010B590F82020012A07D0022A05D0416AB1
:1015000041F480214162012010BD3B48D0F8002207
:1015100042F00102C0F80022D0F8002222F47C52EE
:10152000C0F80022D0F800224B6A42EA0322C0F839
:1015300000220A7D02F01F0301229A40D0F81C32DB
:101540009343C0F81C32CB69B3B9D0F80C32934343
:10155000C0F80C328C894B6864F31F434C6900EB74
:10156000C404C4F840320C890B6864F31F434C690F
:1015700000EBC404C4F84432CB69012B16D1D0F877
:101580000C321343C0F80C320C884B6864F31F43D1
:101590004C6900EBC404C4F840320C89CB6864F396
:1015A0001F434C6900EBC404C4F844328B69002B20
:1015B000D0F804320ED01343C0F804320B69002B6C
:1015C000D0F8143208D01343C0F81432096A012944
:1015D00004D008E09343EFE79343F5E7D0F81C12FB
:1015E0001143C0F81C12D0F8001221F00101C0F81C
:1015F0000012002010BD000000640040704730B5AC
:1016000090F82040012C05D0022C03D0416A41F40F
:1016100080215DE00468002955D02469A40754D0D6
:101620004FF4D874056804EB01142D5915F0040526
:10163000956005682D594ED0ED08556005682C5908
:10164000C4F34004D4604FF4DA74056804EB011469
:101650002D5905F00F05156105682D59C5F30725AE
:10166000956105682C59240C54614FF4DC720468B0
:1016700002EB0112A4581C700468A458240A5C7080
:101680000468A458240C9C700468A258120EDA70E6
:101690004FF4DE72046802EB0112A4581C71046856
:1016A000A458240A5C710468A458240C9C71046832
:1016B000A258120EDA71006881B1016941F020016F
:1016C0000161002030BDE468A8E7416A41F40011DF
:1016D0004162012030BD6D0D1560AFE7C16841F07A
:1016E0002001C160EDE72DE9F05F054600680024A8
:1016F0004669D0F804908768D0F80CB0D0F810A0F4
:10170000D0F81880F10748D0F90714D00121816082
:10171000B80703D5284600F0A0FA0CE0780702D5F8
:101720004FF4006407E0380702D54FF4805402E01C
:10173000284600F091FAF80516D529684FF4807014
:101740008860B80503D5284600F089FA0CE07805D2
:1017500002D544F4005407E0380502D544F480442F
:1017600002E0284600F07AFAF80316D529684FF40B
:1017700080308860B80303D5284600F072FA0CE088
:10178000780302D544F4004407E0380302D544F45A
:10179000803402E0284600F063FA300707D55FEA9C
:1017A000CB6004D52968102044F40074C860700729
:1017B0004FF0080707D55FEA0B7004D52868C760AB
:1017C000284600F0A9F9B00706D52868C068800748
:1017D00002D0284600F0A2F9700607D55FEACA6079
:1017E00004D52968102044F480640861B00607D548
:1017F0005FEA0A7004D528680761284600F0FCF902
:10180000F00606D528680069800702D0284600F057
:10181000F4F9B00308D55FEAC96005D5296810203E
:101820004860284600F0EAF9F00307D55FEA09703E
:1018300004D528684760284600F014FA300446D5DD
:101840005FEA497040D5F00504D55FEAC87001D061
:1018500044F00104B00504D55FEA887001D544F076
:101860000204700504D55FEA487001D544F0040411
:10187000300529D518F0700F26D008F070004028E8
:1018800015D006DC102809D020280AD0302816D11F
:101890000AE050280ED0602811D10EE044F0080470
:1018A0000DE044F010040AE044F0200407E044F0A6
:1018B000400404E044F0800401E044F480742868AB
:1018C000816921F070018161296804204860002C41
:1018D00005D0686A204368622846FFF78FFEBDE89E
:1018E000F09F70B5040003D094F8200010B104E01C
:1018F000012070BD204600F081F82068016821F0C9
:101900000201016000F018FC0546052604E000F025
:1019100013FC401B0A2811D8206840688007F6D4C1
:101920002068016841F00101016000F005FC0546F6
:101930000BE000F001FC401B0A2806D9606A40F465
:101940000030606284F82060D2E720684068C007F9
:10195000EFD0207E0128206801683DD021F0800171
:101960000160607E01282068016838D021F04001C4
:101970000160A07E01282068016833D021F0200199
:101980000160E07E0128206801682ED041F010013E
:101990000160207F01282068016829D021F008011A
:1019A0000160607F01282068016824D021F00401D3
:1019B0000160D4E902010843D4E904121143084349
:1019C0006168491E08432168C861002060620120E7
:1019D00084F82000002070BD41F08001C0E741F094
:1019E0004001C5E741F02001CAE721F01001CFE72F
:1019F00041F00801D4E741F00401D9E7F0B587B020
:101A0000044614216846FEF71DFD3E4B3E48DFF8B4
:101A1000F0E01968D4F800C03B4A032502260927E4
:101A200010300024491CF4452AD11960012907D13E
:101A3000016841F000710160006800F000700590DD
:101A4000106840F0080010601068CDE9005600F002
:101A50000800CDE9047069462C48CDE9024500F044
:101A600073FA00220C21132000F0D8FB132000F0A1
:101A7000C7FB00220C21142000F0D0FB14203BE017
:101A8000DFF88CE0F44539D1D0F800C04CF0806C20
:101A9000C0F800C0D0F800C001290CF0806CCDF86F
:101AA00014C0196007D1016841F00071016000683D
:101AB00000F000700590106840F00200106010689F
:101AC00002AB00F0020005904FF44050CDE9000653
:101AD00083E8B00069460F4800F036FA002205217D
:101AE0003F2000F09BFB3F2000F08AFB00220521F5
:101AF000402000F093FB402000F082FB07B0F0BDD7
:101B0000006400400000002030380240000C024019
:101B100000680040000402407047000010B5044611
:101B20000068304996B0884205D10CAB0EAA00215E
:101B30002D48FFF764FD2D492068884205D103AB8D
:101B400005AA00212A48FFF75AFD0E992948A1F25B
:101B50000121092919D20288C9B2521C028001EB65
:101B60008102011D01EB82018A884A80BDF8302084
:101B700052BA8A80BDF8322052BACA80BDF83420E9
:101B800052BA0A819DF836208A7201884FF4FA749D
:101B90000022A14200D102800599A1F20121092968
:101BA0001AD24388C9B25B1C438001EB81031149FF
:101BB000B83101EB83018B884B80BDF80C305BBAE8
:101BC0008B80BDF80E305BBACB80BDF810305BBAAD
:101BD0000B819DF812308B724188A14200D1428066
:101BE00016B010BD0064004098040020006800405A
:101BF000C00400209C01002070477047704700001F
:101C000070B5044690F82000012804D0606A40F4C2
:101C10000020606218E0022084F82000206801683B
:101C200021F00101016000F087FA05460EE000BFD7
:101C300000F082FA401B0A2808D9606A40F400309C
:101C40006062052084F82000012070BD2068406893
:101C5000C007EDD1606270BD704770477047704734
:101C600070477047704700002DE9F84304464FF075
:101C70000009CDF8009063484FF41651A56D006837
:101C8000B0FBF1F72E6894F85C10082000FA01F11F
:101C900031420FD021680A6852070BD50A6822F03A
:101CA00004020A6094F85C108840A860606D40F0FF
:101CB0000100606594F85C104FF0010808FA01F02B
:101CC000304208D021684969090604D5A860606DD2
:101CD00040F00200606594F85C10042088403042B7
:101CE00008D021680968890704D5A860606D40F0B4
:101CF0000400606594F85C1010208840304218D0D1
:101D000021680968090714D5A8602068016849039B
:101D100004D50068000308D5A16C07E00168C90577
:101D200003D4016821F008010160216C09B120464B
:101D3000884794F85C1020208840304231D02168D8
:101D40000968C9062DD5A86094F8350005282068D3
:101D5000016806D0490347D5006800031DD4616CB3
:101D60001CE021F0160101602068416921F080012A
:101D70004161206C08B9A06C20B12068016821F095
:101D80000801016094F85C103F208840A86084F846
:101D9000349084F83580216D1FE0E16B09B1204655
:101DA0008847606D00282BD0606DC00714D00520D7
:101DB00084F835002068016821F001010160009875
:101DC000401C0090B84203D820680068C007F6D1D4
:101DD00084F8349084F83580E16C002910D001B08B
:101DE0002046BDE8F04308470168C905D5D401681D
:101DF00021F01001016084F8349084F83580CCE73C
:101E0000BDE8F883940000202DE9F041044600F07D
:101E100093F906465CB1002584F83450022084F81A
:101E200035002068016821F0010101600DE001200A
:101E3000BDE8F08100F080F9801B052805D920203D
:101E40006065032084F83500F2E720680068C00769
:101E5000F0D12268116820480140D4E901031843F9
:101E6000D4E903363343184363691843A36918431D
:101E7000E3691843236A18430843616A042903D1BC
:101E8000D4E90B1319430843106020684069666A5F
:101E900020F0070130460E43012704280CD1A06A28
:101EA0000643E06A40B12046FFF702F820B1402027
:101EB000606584F83570BAE7206846612046FEF711
:101EC000E3FF94F85C203F2191408160656584F8D0
:101ED00035700020ACE700003F8010F070B504467C
:101EE00090F83400002501280CD0012084F834003B
:101EF00094F835600020012E06D084F834000225C5
:101F0000284670BD022070BD022684F835606065E9
:101F10002046FEF7F7FF2068016841F001010160EB
:101F2000EEE7000070B5044600F006F90546601CB7
:101F300002D004480078044400F0FEF8401BA042A0
:101F4000FAD370BD880000202DE9F84FDFF890B17A
:101F500000224FF001084FF0030A4FF00F090BF178
:101F6000040E00BF0B6808FA02F42340A3426ED1AE
:101F70004D68022D01D0122D0ED1D50800EB850C35
:101F8000DCF820505607F70E09FA07F6B5430E693C
:101F9000BE402E43CCF82060066855000F790AFA3F
:101FA00005FC07F0030726EA0C06AF40374307603D
:101FB0004E68012E05D0022E03D0112E01D0122E14
:101FC0000ED18768CE6827EA0C07AE403E43866094
:101FD0004668A6430C79C4F300149440344344602B
:101FE000C4688E6824EA0C04AE402643C6604C6880
:101FF000E4006FD53B4C256845F480452560246896
:1020000022F0030504F480440094374C2E19D6F8CE
:10201000084895072F0F09FA07F5AC43334DA8423E
:1020200001D100252EE0324DA84201D1012529E041
:10203000304DA84201D1022524E02F4DA84201D104
:1020400003251FE02D4DA84202D104251AE041E0EE
:102050002B4DA84201D1052514E02A4DA84201D1FB
:1020600006250FE0284DA84201D107250AE0274D9B
:10207000A84201D1082505E0254DA84201D1092536
:1020800000E00A25BD402543C6F80858DBF80040AB
:102090005D464E689C43F60300D51C432C60DEF879
:1020A000004075464E689C43B60300D51C432C6027
:1020B0000B4D08352C684E689C43F60200D51C4336
:1020C0002C60074D0C352C684E689C43B60200D539
:1020D0001C432C60521C102AFFF444AFBDE8F88F5B
:1020E000003C014044380240003001400000024002
:1020F0000004024000080240000C024000100240B0
:102100000014024000180240001C0240002002405F
:10211000002402400069084000D001207047426955
:1021200031EA020200D10904816170470AB181617C
:1021300070470904FBE70000014880687047000011
:10214000880000200248816802781144816070474D
:10215000880000200B4810B5016841F4007101604F
:10216000016841F480610160016841F4807101609F
:10217000032000F073F80F2000F006F800F024F8B8
:10218000002010BD003C024070B50D4D04464FF4D8
:102190007A712878B1FBF0F00A490968B1FBF0F0D8
:1021A00001F0DFF948B9102C07D200222146501E59
:1021B00000F034F800206C6070BD012070BD00009C
:1021C00088000020940000200C4882B0016841F48F
:1021D00080410160006800F4804000900748001FC3
:1021E000016841F0805101600068002200F08050D9
:1021F00000900F21901E02B000F010B84438024049
:10220000002809DB00F01F020121914040098000F5
:1022100000F1E020C0F8001170470000F0B40E4B50
:102220001B680C46C3F30223C3F10705042D00D934
:102230000425191D072901D2002300E0DB1E012619
:1022400006FA05F1491E214099409E40761E16402F
:102250003143F0BC04F03CBA0CED00E0064900F05C
:10226000070208684FF6FF03184040EA0220034ABD
:1022700010430860704700000CED00E00000FA0514
:1022800070470068416200207047F0B50368586AE3
:1022900039B19C6A4FF4827600EB144400204D1E45
:1022A0000AE040EA024098620FE006EB8007DF593F
:1022B000401C04EB1744C0B2A842F6D344EA0240E3
:1022C0004FF4807202EB810158500020F0BDD0F82D
:1022D000040403F010BAC1EBC10200EB8202D0F893
:1022E0000404926C03F063B9C1EBC10200EB8202FB
:1022F000D0F80404D2F8082203F0BCB9D0F80404E2
:1023000003F0FBB970B504460B0601F00F00C0EBFB
:10231000C00104EB81014FF001024FF0000503D52D
:1023200081F83D203C3103E081F8FD5101F5FE715B
:10233000087094F8BC03012808D084F8BC232068F6
:1023400003F052FD84F8BC53002070BD022070BD24
:1023500070B5044601F00F006268904201D9012077
:1023600070BD0B0601F00F01C1EBC10104EB81014F
:102370004FF001024FF0000503D581F83D203C31BC
:1023800003E081F8FD5101F5FE718D70087094F83D
:10239000BC03012808D084F8BC23206803F000FFA8
:1023A00084F8BC53002070BD022070BD01F00F0105
:1023B000C1EBC10100EB8100D0F8140270472DE998
:1023C000F04104460F0601F00F00C0EBC00104EB22
:1023D00081014FF001064FF0000503D581F83D6003
:1023E0003C3103E081F8FD5101F5FE7108708A600F
:1023F000CB704A7802B1C880022B00D10D7194F8DD
:10240000BC03012809D084F8BC63206803F03CFCBD
:10241000284684F8BC53BDE8F0810220FBE770B584
:102420000C4601F00F05C5EBC50100EB8101C1F8B9
:102430001032C1F808220023C1F8143281F8FD31AE
:1024400081F8FC51036901F5FE71012B00D10A618D
:102450002207027C006803D003F0FAFE002070BD62
:1024600003F0E6FDFAE770B504460D4601F00F00F3
:102470006168884201D9012070BD29064FF000062D
:102480004FF0010207D5C0EBC00104EB810181F8D8
:102490003D203C3107E0C5EBC50104EB810181F82B
:1024A000FD6101F5FE718A70087094F8BC03012883
:1024B00007D084F8BC23206803F09EFE280702D0D2
:1024C00007E0022070BD217C04F57172206803F0E2
:1024D0003BFE84F8BC63002070BD70B50C4601F073
:1024E0000F05C5EBC50100EB81010B658A64002374
:1024F0004B65012381F83D3001F83C5F0369012BF6
:1025000000D10A612207027C006803D003F0A0FE1C
:10251000002070BD03F08CFDFAE700002DE9FC5FA0
:1025200005680446284603F0BCFF00287ED12068D9
:1025300003F0E3FF002879D0206803F0DEFF800776
:1025400004D52068416901F002014161206803F06F
:10255000D4FF010304F571704FF0010A4FF0080B2E
:10256000009075D50026206803F0A6FF0746DFF827
:1025700008946BE0F80767D0F1B2206803F0B5FF6C
:102580008046C00707D005EB4611C1F808AB3146BD
:10259000204601F0CDFD5FEA087032D52068016C5D
:1025A00000EB46100191D0F8081B2269012A019A1C
:1025B0000FD0F24B9A4214D1090403D54FF40041D5
:1025C000C0F8081B204600F0C9FA206901280FD086
:1025D00013E04A4505D9090403D54FF40041C0F87A
:1025E000081B204600F0BAFA01984845EDD804E0EF
:1025F00020680121009A03F0A7FD05EB4611C1F800
:1026000008BB5FEAC86004D505EB46111020C1F88D
:10261000080B5FEA88600ED52069012804D1206884
:102620000121009A03F090FD202100E0A1E105EBDB
:102630004610C0F8081B5FEA884005D505EB461038
:102640004FF40051C0F8081B7F08761C002F91D171
:10265000206803F052FF40034FF000095FD5206867
:1026600003F023FF0746002657E0F80753D0F1B2E6
:10267000206803F028FF8046C00726D006F00F022E
:102680000AFA02F0D5F834288243C5F8342805EB5D
:102690004610C0F808A92069012807D1C6EBC6007A
:1026A00004EB8000D0E9112111448164F1B220468D
:1026B000FFF711FE2069012807D136B9206D20B936
:1026C00020680121009A03F03FFD5FEA087003D5FE
:1026D00005EB4611C1F808B95FEAC86004D505EBFF
:1026E00046111020C1F808095FEA486004D505EBDF
:1026F00046104021C0F808195FEA887004D505EB40
:1027000046100221C0F808195FEA086003D5314677
:10271000204601F07BFD7F08761C002FA5D12068A4
:1027200003F0EBFE002811DAD5F8040820F00100D0
:10273000C5F8040894F8F40301282BD0204600F0D3
:10274000F1F92068416901F000414161206803F01E
:10275000D4FE00050BD5D5F80808C00702D02046E6
:1027600000F024FA2068416901F4006141612068A9
:1027700003F0C3FEC00461D5D5F8040820F00101C0
:10278000C5F804181021206803F06CFE00214FF6F4
:102790007F321AE084F8F49300212046FFF770FDA1
:1027A000CFE700BF05EB4110C0F80829D0F8003989
:1027B00023F40013C0F80039C0F8082BD0F8003B10
:1027C00023F40013C0F8003B491C60688842E9D834
:1027D000D5F81C0840F00111C5F81C18206B002822
:1027E00028460DD0D0F8840840F00B00C5F88408C6
:1027F000D5F8440840F00B012846C5F844180DE010
:10280000D0F8140842F22B010843C5F81408D5F893
:10281000100840F00B012846C5F81018D0F8000841
:1028200020F4FE61C5F80018217C2068009A03F0AE
:102830008BFC2068416901F480514161206803F0FC
:102840005CFE800415D5206803F05EFA206803F072
:102850001BFEE06000F05AFA0146227B206803F07C
:1028600087FE204600F048F92068416901F40051D4
:102870004161206803F041FEC00634D520688169BB
:1028800021F0100181612F6A07F00F00C0EBC0003A
:1028900004EB8006C7F3434006F5FE76022802D01B
:1028A000062811D01AE047F6F070074216D0C7F399
:1028B0000A1217462846F16803F023FEF0683844F0
:1028C000F060B069384408E008222846009903F017
:1028D00018FEB069C7F30A110844B061216888691D
:1028E00040F010008861206803F007FE000707D55C
:1028F000204600F01BF92168486900F00800486193
:10290000206803F0FAFDC00208D50021204600F03F
:1029100037F82168486900F480104861206803F0A6
:10292000ECFD800208D50021204600F02DF821683A
:10293000486900F400104861206803F0DEFD4000A3
:1029400007D52046FFF7C3FC2068416901F08041AC
:102950004161206803F0D1FD40070AD52068456831
:10296000680702D52046FFF7C9FC20684168294363
:102970004160BDE8FC9F00000A30544F0A31544FBB
:10298000D0F8040402F008BFD0F8040402F006BF37
:102990002DE9F0418AB0040005D094F8BD03266803
:1029A000002520B108E001200AB0BDE8F08184F8DC
:1029B000BC53204600F05EF8032084F8BD03F06BA2
:1029C000C00500D42561206803F02CFB04F1100140
:1029D000282288466846FDF71CFD94E80F0003F0A6
:1029E000ADF90226C8BB0021206803F098FD002045
:1029F00001270EE0C0EBC00104EB810181F83D70BE
:102A000001F83C0FC880CD708D60CD60401CC0B215
:102A10004D6161688142EDD8002011E0C0EBC0013A
:102A200004EB810181F8FD5181F8FC0181F8FF512F
:102A3000C1F80452C1F80852401CC0B2C1F810528B
:102A400061688142EAD8282241466846FDF7E1FCE8
:102A500094E80F0003F020FA10B184F8BD63A2E7F8
:102A600084F8385084F8BD73206803F009FA002018
:102A70009AE7000010B586B0044614216846FDF7B9
:102A8000E1FC2068B0F1A04F2FD119480021026865
:102A900042F001020260006800F0010005904FF46E
:102AA000C05000900220CDE90101032003900A20CC
:102AB000049069460F48FFF747FA0D48001D01686A
:102AC00041F0800101600A481430016841F48041FE
:102AD00001600068002200F4804005900521432039
:102AE000FFF79CFB4320FFF78BFB06B010BD0000F7
:102AF000303802400000024070B50446C06801252D
:102B000070B1022801D0FEF712FA2946D4F8040465
:102B100002F095FED4F80404BDE8704002F055BE02
:102B20000025F2E7D0F8040402F077BED0F80404E0
:102B300002F079BE10B5044690F8BC0301280BD012
:102B4000012084F8BC0384F83810206803F0FEFCF0
:102B5000002084F8BC0310BD022010BDD0F804246E
:102B600000F57171104602F076BE10B5044600689B
:102B700094F8BC13012906D0012184F8BC13A16A82
:102B8000012902D008E0022010BDA169012903D06B
:102B9000816B41F480318163206803F065F920681E
:102BA00003F04AFC002084F8BC0310BD10B50446B5
:102BB000D0F8040402F08EFE2068D0F8001E41F028
:102BC0000101C0F8001E206A002804D002480168F4
:102BD00041F00601016010BD10ED00E02DE9F04765
:102BE0000E46050065D0DFF81481D8F80000F7B272
:102BF00000F00F00B04207D288F80070D8F800004B
:102C000000F00F00B04254D128683D4C810712D526
:102C1000400703D5206840F4E05020602878000782
:102C200003D5206840F4604020602068A96820F047
:102C3000F000084320602878C0072DD0304968682C
:102C40000839012812D0022813D0032811D00968AE
:102C5000890700292DDA216821F003010143216051
:102C6000FFF76AFA814641F2883A0EE00968890363
:102C7000EFE709688901ECE7FFF75EFAA0EB0901CD
:102C8000514502D90320BDE8F0872068696800F04B
:102C90000C00B0EB810FEFD1D8F80010404601F0E6
:102CA0000F01B14207D90770006800F00F00B04271
:102CB00001D00120E7E72878400705D52068E968BA
:102CC00020F4E050084320602878000706D52068EB
:102CD000296920F4604040EAC100206000F03CF81F
:102CE0002168084AC1F30311515CC84006490860D5
:102CF0000F20FFF749FA0020C5E70000003C024022
:102D000008380240C4A6000894000020014800686A
:102D100070470000940000200448054900680968D5
:102D2000044AC1F38221515CC840704794000020DE
:102D300008380240D4A6000804480549006809681C
:102D4000044AC1F34231515CC840704794000020EE
:102D500008380240D4A60008154810B5006810F0E5
:102D60000C02144813D01449042A0FD0082A0ED19B
:102D70000F4C241F2268236802F03F025B0207D534
:102D80002068C0F38810A0FB010106E0084610BDD2
:102D90002168C1F38811A1FB00010023FDF708FBA6
:102DA0002168C1F30141491C4900B0FBF1F010BD9D
:102DB000083802400024F400001BB7002DE9F84F4A
:102DC000050076D02878DFF8F8B2BE4CC00749D0AD
:102DD000DBF800105846C1F38101012908D00068D2
:102DE000C0F3810002280AD1201D0068400206D5E8
:102DF0002068800336D568680028E2D032E0686831
:102E0000B0F5803F10D0B0F5A02F206810D020F48E
:102E100080302060206820F4802020606868A0B1A5
:102E2000FFF78AF906460CE0206840F48030F4E7AA
:102E300040F480202060F7E7FFF77EF9801B6428CC
:102E400073D820688003F7D50CE0FFF775F90646C4
:102E500005E000BFFFF770F9801B6428F0D82068F8
:102E60008003F7D42878DFF8608280074FF00009EC
:102E70003ED5DBF80010584611F00C0F09D0006861
:102E8000C0F3810002280BD18D48001F006840026A
:102E900006D42068800715D5E868012809D111E01B
:102EA000E868B8B10120C8F80000FFF745F9064608
:102EB00005E002E1FFF740F9801B0228C0D8206836
:102EC0008007F7D52068296920F0F80040EAC100A2
:102ED00020600DE0C8F80090FFF72EF9064604E0E8
:102EE000FFF72AF9801B02281FD820688007F7D433
:102EF0002878000722D5724E744869696C3671B122
:102F000001210160FFF718F9074604E0FFF714F903
:102F1000C01B022809D830688007F7D50EE0C0F83A
:102F20000090FFF709F9074605E083E0FFF704F991
:102F3000C01B02287ED830688007F7D42878400765
:102F400068D5DFF87CA100270AF1380ADAF800001A
:102F5000C0000BD4DAF8001041F08051CAF800101C
:102F6000DAF80000012700F080500090584E3068D9
:102F7000C00510D4306840F480703060FFF7DCF892
:102F8000009005E0FFF7D8F80099401A022851D8C0
:102F90003068C005F6D54A4EA868683601280FD0BB
:102FA0000528306810D020F001003060306820F033
:102FB00004003060A868B8B1FFF7BEF800900FE0D9
:102FC000306840F00100F4E740F004003060F7E7BB
:102FD000FFF7B2F80099411A41F28830814264D873
:102FE00030688007F4D50EE0FFF7A6F8009007E000
:102FF000FFF7A2F80099411A41F28830814254D873
:1030000030688007F4D42FB1DAF8001021F0805135
:10301000CAF80010A869C0B3DBF80010C1F3810141
:1030200002294AD00228484607D0C8F86000FFF7B6
:1030300083F800E039E005463AE04746C8F860000A
:10304000FFF77AF8064604E0FFF776F8801B0228BF
:103050002BD820688001F7D4D5E907010843A96A75
:103060001C4A490802EB01416A6A41EA821108439D
:1030700095F82C1040EA01611148001F0160012001
:103080003866FFF759F8054605E014E0FFF754F8F5
:10309000401B022809D820688001F7D50BE000BF4B
:1030A000FFF74AF8401B022802D90320BDE8F88F39
:1030B00020688001F4D40020F8E70120F6E7000042
:1030C000083802400038024000004742800E474264
:1030D000007000400000FFFF70B5040005D000251F
:1030E000A56294F8510010B106E0012070BD84F88B
:1030F0005050204600F030F8022084F8510020683B
:10310000016821F040010160D4E901010843D4E9DC
:1031100003121143084361690843218B01F40071D4
:103120000843E1690843216A0843A16A084321680A
:103130000860A069042101EA1040616A084321681F
:1031400048602068C16921F40061C16165650120A2
:1031500084F85100002070BDF0B587B004461421FA
:103160006846FDF76FF92A48284B22680024284951
:1031700014380225032605279A4227D10A6842F40B
:1031800080520A60096801F480510591016841F09C
:1031900002010160016801F002010591016841F03E
:1031A00001010160006802AA00F0010005900820FA
:1031B000CDE9000582E8D00069461648FEF7C4FE56
:1031C0008020CDE900056946134818E0134B9A4268
:1031D0001AD10A6842F480120A60096801F4801169
:1031E0000591016841F0200101600068694600F026
:1031F000200005904FF46070CDE90005084802AA50
:1032000082E8D000FEF7A0FE07B0F0BD003001401C
:1032100044380240000402400000024000500140D7
:10322000001402402DE9F84F044690F850000027A2
:103230001D461646894601280DD04FF0010B84F833
:1032400050B0FEF779FF804694F85100BA46012845
:1032500004D002278EE00220BDE8F88FB9F1000FFC
:103260007DD0002E7BD0032084F85100C4F854A0F8
:10327000C4F83090A686E686C4F838A0A4F83CA02E
:10328000A4F83EA0C4F844A0C4F840A0A068B0F5DB
:10329000004F04D12068016841F48041016020683A
:1032A0000168490603D4016841F040010160E0680B
:1032B000B0F5006F606803D030B3012E24D040E039
:1032C00008B1012E1CD1206B21680088C86006E07F
:1032D00020688168890709D5216B0988C160206B46
:1032E000801C2063E08E401EE08609E0FEF724FF8C
:1032F000A0EB0800A84202D3681C01D031E07DB3E6
:10330000E08E0028E4D11FE0206B2168007808736C
:1033100006E020688168890709D5216B0978017367
:10332000206B401C2063E08E401EE08609E0FEF723
:1033300003FFA0EB0800A84202D3681C01D010E0F4
:1033400075B1E08E0028E4D142462946204601F0BE
:103350005DF808B120206065A06820B107E008E0B2
:10336000FFE7032706E02068C16880680090606D71
:1033700000B1012784F851B084F850A038466BE7BB
:103380002DE9F84F044690F8500000270A9E1D468C
:1033900092468B464FF0010901280ED0012084F897
:1033A0005000FEF7C9FE804694F85100616801287C
:1033B0000CD0B1F5827F07D102E00220BDE8F88F82
:1033C000A16809B9042801D00227C2E0BBF1000FAF
:1033D00027D0BAF1000F24D01DB394F8510004286F
:1033E00002D0052084F8510000206065C4F838A0A0
:1033F000E587A587C4F830B0E586A58620646064BB
:1034000020680168490603D4016841F04001016069
:10341000E068B0F5006F606805D0E8B3012D46D0D4
:103420007FE0012795E008B1012D39D1206B21689B
:103430000088C860206B801C2063E08E401EE08600
:103440002EE02068816889070FD5E18E69B1B9F156
:10345000010F0AD1216B0988C160206B801C206399
:10346000E08E401EE0864FF0000920688168C907A1
:103470000CD0E18F51B1C068A16B0880A06B801C9B
:10348000A063E08F401EE0874FF00109FEF754FE75
:10349000A0EB0800B04200E009E001D3701C50D15D
:1034A000E08E0028CDD1E08F0028CAD13FE0206B0C
:1034B000216800780873206B401C2063E08E401E5A
:1034C000E0862EE02068816889070FD5E18E69B11A
:1034D000B9F1010F0AD1216B09780173206B401CEF
:1034E0002063E08E401EE0864FF00009206881686E
:1034F000C9070CD0E18F51B1C068A16B0870A06BF7
:10350000401CA063E08F401EE0874FF00109FEF7EA
:1035100013FEA0EB0800B04202D3701C01D010E0F3
:103520007EB1E08E0028CDD1E08F0028CAD142467E
:103530003146204600F06AFF28B10127202060654F
:1035400007E0032705E0A06818B92068C168806813
:103550000090012084F85100002084F85000384683
:103560002CE710B5401EB0F1807F01D3012010BDC3
:103570004FF0E02460610F21601703F0A9F80020EC
:10358000A06107202061002010BD7047704770B512
:1035900090F83C20012A19D0012400F83C4F022267
:1035A000427050F83C3C5A689D6822F070060A68E8
:1035B0004968324325F0800529435A6050F83C2C75
:1035C0009160447000210170084670BD022070BDFA
:1035D00010B5040003D094F83D0010B107E00120BD
:1035E00010BD002084F83C00204600F00DF80220B9
:1035F00084F83D00211D206801F070FA012084F854
:103600003D00002010BD000008B500680B4988424D
:1036100012D10B48016841F00401016000680022EA
:1036200000F00400009005211E20FEF7F7FDBDE824
:1036300008401E20FEF7E4BD08BD00000008004061
:103640004038024070B5044690F83C00012817D07D
:10365000012584F83C50022084F83D0020688268EF
:1036600022F0770222F47F4282600868502830D02E
:103670000DDC20284DD005DC98B310283BD148E064
:10368000022070BD302844D0402834D139E0602871
:1036900028D0702806D0B0F5805F2CD0B0F5005F40
:1036A00029D10AE0CB68D1E90121206801F07AFA3A
:1036B0002068816841F0770109E0CB68D1E90121F8
:1036C000206801F06FFA2068816841F480418160D0
:1036D00011E0CA684968206801F076FA5021206834
:1036E00007E016E0CA684968206801F07EFA6021A8
:1036F000206801F061FA84F83D50002084F83C0015
:1037000070BDCA684968206801F05EFA40212068EF
:10371000EFE7226801461046EBE7704770B50446B4
:10372000006801694FF00005C943890715D4C168D5
:10373000C943890711D4E91E01610120207720685F
:1037400080698007204602D0FFF7E7FF04E000F021
:1037500098F8204600F096F8257720680169C9435B
:10376000490717D4C168C943490713D46FF004014E
:103770000161022020772068806910F4407F204694
:1037800002D0FFF7CAFF04E000F07BF8204600F00B
:1037900079F8257720680169C943090716D4C168FB
:1037A000C943090712D46FF0080101610420207792
:1037B0002068C0698007204602D0FFF7AEFF04E012
:1037C00000F05FF8204600F05DF825772068016979
:1037D000C943C90617D4C168C943C90613D46FF0D9
:1037E00010010161082020772068C06910F4407F33
:1037F000204602D0FFF791FF04E000F042F8204697
:1038000000F040F8257720680169C943C90708D14D
:10381000C168C943C90704D1891E0161204600F06F
:1038200032F820680169C943090609D4C168C9434F
:10383000090605D46FF0800101612046FFF7A5FE5F
:1038400020680169C943490609D4C168C9434906CA
:1038500005D46FF040010161204600F015F82068A2
:103860000169C94389060BD4C168C943890607D4D5
:103870006FF0200101612046BDE87040FFF786BE71
:1038800070BD7047704770477047000030B40168E2
:103890000A68D2065ED50A684968416B304A0968F1
:1038A00091420AD02F4A914207D02D4A603291426C
:1038B00003D02C4A6032914201D1202222E0284BD1
:1038C0001833DA1499421DD0264B1833994219D077
:1038D000234B7833994215D0224B7833994211D03B
:1038E0001F4B9202303399420CD01E4B3033994219
:1038F00008D01B4B9033994204D01A4B9033994215
:1039000000D092010B6823F001030B60416B154B53
:1039100009684833994202D91249091F05E0104B42
:10392000A833994203D90F4908390A6008E00C4CC2
:103930000B4B4834103BA14201D9DA6000E09A6099
:10394000426B818D12685160416B09680A6842F0D0
:1039500001020A60816A30BC0348FDF775B90000B6
:103960001060024010640240DC65002070B5040065
:1039700004D094F83900002510B106E0012070BD94
:1039800084F83850204600F023F8242084F83900C9
:103990002068C16821F40051C160204601F078F927
:1039A0002068016921F4904101612068416921F09A
:1039B0002A0141612068C16841F40051C160E5639A
:1039C000202084F8390084F83A00002070BD0000FF
:1039D000F0B587B0064614216846FCF733FD33493D
:1039E000DFF8C4C0376800253048143902220123AB
:1039F0000324674539D1076847F01007076000685E
:103A000000F010000590086840F0020008600868A7
:103A1000694600F002000590C0208DE81D000720D7
:103A200004902348FEF790FA234C224820604FF080
:103A30000060C4E901054014C4E903506561A56153
:103A4000E561256220466562FEF7DEF908B1FDF703
:103A50006EFA7463002206212520A663FEF7DEFBC2
:103A60002520FEF7CDFB07B0F0BD144DAF42FAD1D3
:103A7000056845F020050560006800F0200005900D
:103A8000086840F0400008600868694600F040009F
:103A900005904FF484408DE81D00082004900848EC
:103AA000FEF752FADFE70000001001404438024000
:103AB0000004024040640240B808002000140140A5
:103AC0000018024030B40368DC6844F01004DC6085
:103AD00030BC01F0A0B82DE9F843044690F8390055
:103AE0001F4616460D46202850D1A5B19EB194F828
:103AF000380001284AD0012084F838004FF000082F
:103B0000C4F83C80212084F83900FEF715FBA68418
:103B10008146E68426E00120BDE8F883E08C401E63
:103B2000E084A0684B46B0F5805F4FF000024FF094
:103B300080012046009703D001F000FAE8B90DE0BB
:103B400001F0FCF9C8B928882168C0F30800486072
:103B5000206908B16D1C05E0AD1C03E0216815F873
:103B6000010B4860E08C0028D8D14B460022402150
:103B70002046009701F0E2F908B10320CCE72020AD
:103B800084F8390084F838800020C5E70220C3E7B4
:103B9000FEE7000010A002F073FD05F075FC0020A8
:103BA00005F02EFC05F0FAFB0A2005F045FD012288
:103BB00004210E48FEF7BAFA00F043F8002005F0A1
:103BC0001FFC05F0F3FC0A4C206806F0A5FA012062
:103BD00005F032FDF8E70000496E20496E6974690E
:103BE000616C5F5461736B0D0A000000001C0240A1
:103BF0000C000020F0B500230A24302537261F468C
:103C000011E000BFB4EB107F02D905EB107C01E09E
:103C100006EB107C01F813C001EB430C00015B1CA8
:103C20008CF80170DBB29342ECD3F0BD10B505F017
:103C300071F904F063FB04F09BFDBDE8104000F057
:103C400007B810B505F0B4F8BDE8104004F04ABE5E
:103C50001B4800F17C0190ED040A81ED000A90ED13
:103C6000050A81ED010A90ED060A81ED020AB0F91C
:103C7000001000EE101A00F18801B8EEC00A81EDC4
:103C8000000AB0F9022000EE102AB8EEC00A81ED59
:103C9000010AB0F9042000EE102AB8EEC00A81ED46
:103CA000020A90ED0F0A0C3181ED000A90ED0E0A28
:103CB00081ED010A90ED0D0A81ED020A70470000C6
:103CC000F06900200F4810B50D49016003214160E3
:103CD00000214FF400228160C0E903124FF440122A
:103CE0004261017641768176C17601774177FDF7B1
:103CF000F8FD002803D0BDE81040FDF718B910BD4D
:103D000000640040980400200F4810B50D49016080
:103D10000321416000214FF400228160C0E90312B9
:103D20004FF440124261017641768176C176017787
:103D30004177FDF7D6FD002803D0BDE81040FDF720
:103D4000F6B810BD00680040C0040020094808B55E
:103D5000016841F4800101600068002200F48000E5
:103D6000009005213A20FEF759FABDE808403A20B4
:103D7000FEF746BA3038024000B587B01C2207492A
:103D80006846FCF746FB0021684605F063FC0449E1
:103D9000486004A002F074FC07B000BDDCA5000878
:103DA0000400002045766572797468696E67206941
:103DB00073207265616479210A537461727420748E
:103DC0006F20666967687421212121210A000000A3
:103DD0002DE9F04F87B014216846FCF733FB5648B5
:103DE0000024016841F002010160016801F0020154
:103DF0000591016841F040010160016801F0400156
:103E00000591016841F001010160016801F00101C3
:103E10000591016841F008010160016801F00801A5
:103E20000591016841F080010160016801F08001A5
:103E30000591016841F020010160016801F0200155
:103E40000591016841F0100101600068DFF8EC9015
:103E500000F010004FF4C465059000222946484642
:103E6000FEF764F9DFF8D8A0002204215046FEF7DF
:103E70005DF9DFF8D0B04FF4FF76012231465846A5
:103E8000FEF754F9012240212F48FEF74FF94FF475
:103E90008057002239462D48FEF748F94FF4006854
:103EA000002241462A48FEF741F90022B90026487F
:103EB000FEF73CF900950125CDE9015469464846D5
:103EC0000394FEF741F804200090CDE901546946BF
:103ED00050460394FEF738F80096CDE90154694640
:103EE00058460394FEF730F844F240000090CDE9C4
:103EF0000154694614480394FEF726F84FF46040D5
:103F0000CDE90004694611480294FEF71DF80097B8
:103F1000CDE9015469460D480394FEF715F8CDF834
:103F20000080CDE90154694609480394FEF70CF876
:103F300007B0BDE8F08F00003038024000040240B6
:103F4000001C02400018024000140240000C024015
:103F500000100240114810B50F4901604FF4827102
:103F600041604FF4004181600021C1604FF4007254
:103F70000161C0E905122022C0E907214162816286
:103F80000A21C162FFF7A8F8002803D0BDE810405D
:103F9000FCF7CDBF10BD00000030014048070020F5
:103FA000104810B50E4901604FF482714160002144
:103FB0008160C1604FF400720161C0E905123022D6
:103FC000C0E90721416281620A21C162FFF784F8DA
:103FD000002803D0BDE81040FCF7A9BF10BD0000C9
:103FE00000500140A007002010B586B000241748FB
:103FF000009401940294039404941349059401607D
:104000006321C0E9011440F24731C0E90314802163
:104010008161FFF7DDFA08B1FCF789FF4FF48050AA
:10402000009069460948FFF70DFB08B1FCF77FFFD8
:10403000049404A905480594FFF7A9FA002801D0C3
:10404000FCF775FF06B010BD00080040F80700201F
:104050000C4810B50A4901600B494160002181609C
:104060000C22C160C0E904128161C161FFF77EFCCE
:10407000002803D0BDE81040FCF759BF10BD000078
:104080000010014038080020A08601000C4810B53F
:104090000A4901604FF4E1314160002181600C2246
:1040A000C160C0E904128161C161FFF75FFC0028B3
:1040B00003D0BDE81040FCF73ABF10BD001401402A
:1040C0007808002010B500220F49104801F048FA86
:1040D00008B1FCF72CFF0E490C4801F021FC08B197
:1040E000FCF725FF0B49094801F046F808B1FCF739
:1040F0001EFF064801F06AFC002803D0BDE810400E
:10410000FCF715BF10BD0000280000201809002092
:104110005004002078000020FEE770470148FEF7B9
:10412000FDB90000B40B0020012005F085FAFBE783
:104130002DE9F041044600680E46016C00EB46157F
:10414000D5F8080B276920234FF40042012F08D02F
:104150002C4FB9424FD1010449D500BFC5F8082BF7
:104160004DE0DFF8A4C05FEA007E04F5717711D559
:10417000614503D9000401D5C5F8082B2046FEF798
:10418000EDFC3A460121206801F0DEFF0820C5F869
:10419000080B34E05FEA806E02D5C5F8083B2EE0DC
:1041A00010F0280F2BD1614501D90004D6D4C6EBFD
:1041B000C60004EB8000D5F8102BD0F80412C2F32F
:1041C00012028A1AC0F81422D0F808221144C0F84A
:1041D0000812F1B22046FEF787F886B9D4F810022B
:1041E00068B93A460121206801F0AEFF07E0800679
:1041F00001D5C5F8083BF1B22046FEF775F800205E
:10420000BDE8F0810A31544F0A30544F2DE9F84F80
:104210000E46C1EBC60100EB810481460568D4E976
:1042200014103C34884202D90120BDE8F88F081AE6
:10423000A168814200D20846C01C870805EB4618D9
:104240001BE000BFA0EB010AA068504500D28246E7
:104250000AF10300870899F8100000901FFA8AF30A
:10426000F2B22846E16802F0F7F9E16801EB0A00D2
:10427000E060A16901EB0A00A061D8F8180980B2DA
:10428000B84205D3D4E90501814201D20028D9D131
:10429000D4E90501884208D806F00F0101208840C2
:1042A000D5F834188143C5F834180020BDE7000064
:1042B0002648D0ED001A70EE612AD0ED011A30EEDA
:1042C000E12AD0ED021A80EC030A71EE611A20484F
:1042D0000146B0F902200988642A2ADAF5EEC02ADC
:1042E000521CF1EE10FA428001DCF1EE622A90EDF0
:1042F000010AF4EEC02AF1EE10FA17DCB5EEC02A7E
:10430000F1EE10FA01DCB1EE422AB4EEC02AF1EE71
:1043100010FA0BDCF5EEC01AF1EE10FA01DCF1EE4A
:10432000611AF4EEC01AF1EE10FA01DD491C0180A9
:104330007047074B00220833012901D99A7001E028
:104340000121997002804280704700006C65002056
:1043500090010020154D164C06F074F82060296875
:10436000401A3228E0680ED905F0D6FE206905F023
:10437000D3FE206A05F0D0FEA06905F0CDFEE0690D
:1043800005F054FE0DE005F051FE206905F04EFEEB
:10439000206A05F04BFEA06905F048FEE06905F0D3
:1043A000BBFE3221024805F04EF9D5E70803002094
:1043B00004000020322005F03FF9114800F09CF87D
:1043C0000F4C104E104D0E4800F0B4F90C4800F0A0
:1043D00007FA0B4800F068F9094800F031F910219C
:1043E0003046FDF79CFE022005F026F96068C08883
:1043F0002880A069C088688005F080FCE3E70000A1
:10440000305F0020001802403C64002038B50446AC
:104410001248134B0068B0FBF3F04FF47A73584323
:1044200000906068B0F5827F0DD10B4600920022AB
:104430008021204600F016F870B1606D40F0200039
:104440006065032038BD009830B1401E00902068A0
:104450008068C0430006F6D5002038BD94000020D7
:1044600000366E012DE9F0411D4617460E46044602
:10447000DDF8188008E0681C06D0FDF75DFEA0EBB3
:104480000800A8420BD255B12068806836EA0000C7
:1044900030D00020B842EED10020BDE8F081206885
:1044A000416821F0E00141606068B0F5827F0BD186
:1044B000A068B0F5004F02D0B0F5806F04D120683D
:1044C000016821F040010160A06AB0F5005F09D1E8
:1044D0002068016821F4005101602068016841F4FE
:1044E00000510160012084F85100002084F8500040
:1044F0000320D2E70120CDE710B504002DED048B99
:104500007ED003F0C5FE206003F0B2FE606003F0D1
:10451000ABFEA06103F0A0FEE06203F0ADFEDFEDB4
:104520003E8ADFED3E9A9FED3E8A9FED3E9A2064E3
:10453000B0EE682AF0EE691AB0EE481AF0EE490AB9
:10454000B0EE080A04F1540005F01EF9B0EE682A36
:10455000F0EE691AB0EE481AF0EE490AB0EE080A19
:1045600004F1880005F010F9B0EE682ADFED2E8A1C
:10457000B0EE481AF0EE490AF0EE681AB2EE020AFE
:1045800004F1BC0005F000F9B0EE682ADFED271A4F
:10459000B0EE481ADFED260AB1EE080A04F1F00089
:1045A00005F0F2F8DFED248A224904F59270B0EEAE
:1045B000680A03F0ECFD1F49B0EE680A091D04F516
:1045C0009A7003F0E4FD84ED528A84ED538A84ED01
:1045D0005B8A84ED5D8A002084F84401A4F87C01A4
:1045E0000321A4F87811A4F89401204600F0A2F861
:1045F000124C012240212046FDF798FD012200E0E7
:1046000007E0BDEC048B20468021BDE81040FDF79B
:104610008DBDBDEC048B10BD00007A4600409C456A
:1046200000000000CDCCCC3D0000FA44000048431F
:104630000AD7233DDCA600086F12033B0018024096
:1046400038B5002825D0174CB0F914306380018D9F
:1046500049420AB2A280B0F850102181818FE180D6
:1046600090F8440100250095A0B10021022005F03A
:1046700013FB00220095B4F908301146104605F0EE
:104680000BFB00220095B4F906301146104605F0E8
:10469000D1FA38BD00231A461946022005F0FCFA6B
:1046A00038BD00000001002010B5040040D0D4ED5A
:1046B000540A94ED520A04F1540004F0F5FFBDEEE3
:1046C000C00A10EE100AA08294ED550A04F1880089
:1046D000F1EE400A94ED530A04F0E6FFBDEEC00A85
:1046E00010EE100A2085E06AB0F9060000EE100A0C
:1046F00004F1BC00F8EEC00A94ED5B0A04F0D4FFAC
:10470000BDEEC00A10EE100AA087206CB0F90600BA
:1047100000EE100A04F1F000F8EEC00A94ED5D0A14
:1047200004F0C2FFBDEEC00A10EE100AA4F850005B
:1047300010BD000070B504004FD06068274DB0F97F
:10474000060000EE100AB8EEC00A84ED540AA06913
:10475000B0F9060000EE100AB8EEC00A84ED550A62
:10476000E06AB0F9061000EE101AB8EEC00A84ED47
:104770005A0A808800EE100AB8EE400A84ED560A04
:10478000206CB0F9061000EE101A4FF48041B8EE1C
:10479000C00A84ED5C0A808800EE100A2846B8EE54
:1047A000400A84ED580AFDF7B5FCA4F882014FF4E5
:1047B00000512846FDF7AEFCA4F88601B4F882113A
:1047C00021B9B4F89411491CA4F89411002804D11B
:1047D000B4F89201401CA4F8920170BD000C024094
:1047E0002DE9F041040047D020680125274E407A8A
:1047F000002701280CD13078012809D094F8441101
:10480000234891B184F8447101224021FDF78EFCC8
:1048100020689FED200ADFED200A407A307094F87E
:10482000440130B101280DD020E084F84451002229
:10483000EBE784ED5B0A84ED5D0A84ED520A84EDBA
:10484000530A13E09FED151A84ED521A9FED141AC6
:1048500084ED531AB4F89401642805D384ED5B0AFF
:10486000022084F8440101E0C4ED5B0A0D48007A9F
:10487000012803D084ED5D0ABDE8F081C4ED5D0A36
:10488000A4F8947184F84451F6E700000001002078
:1048900000180240000000000080A2440080BB45D8
:1048A0000020CB45DC650020B2B0FFF70BFC05F023
:1048B000CDFA444D002202212846FDF737FC1C2288
:1048C00041496846FBF7A5FD0021684604F0C2FE99
:1048D0003E4C01220221A0602846FDF727FC002261
:1048E00004212846FDF722FC37491C221C3107A869
:1048F000FBF78FFD002107A804F0ACFEE060012269
:1049000004212846FDF712FC002208212846FDF765
:104910000DFC2D491C2238310EA8FBF77AFD002131
:104920000EA804F097FE2061012208212846FDF719
:10493000FDFB002210212846FDF7F8FB22491C222E
:10494000543115A8FBF765FD002115A804F082FE7F
:104950002062012210212846FDF7E8FB00222021D9
:104960002846FDF7E3FB18491C2270311CA8FBF711
:1049700050FD00211CA804F06DFEA0610122202141
:104980002846FDF7D3FB10491C228C3123A8FBF7E6
:1049900040FD002123A804F05DFE0B49E0611C22CC
:1049A000A8312AA8FBF735FD00212AA804F052FE01
:1049B0006061606805F0E4FA05F068FA012004F02F
:1049C0003BFEFBE700180240F8A5000804000020A9
:1049D00010B5FDF7B7FB05F027FD012803D0BDE8B2
:1049E000104005F0B3BC10BD30B593B0302168461F
:1049F000FBF728FD14210CA8FBF724FD194800251E
:104A0000016841F080510160006800F08050119011
:104A10001548016841F4404101600068022400F437
:104A20004040119001200090000401908001CDE9E8
:104A3000064006200890A820CDE9090407200B9025
:104A40006846FEF7BBF90CA90F2081E831004FF44E
:104A5000A0500F90E002109005210CA8FEF7BEF8C0
:104A600013B030BD4038024000700040104801686B
:104A700041F4700101600F48016841F001010160DB
:104A80000C4A00210832116002680B4B1A40026088
:104A9000031D0A4A1A60026822F480220260054857
:104AA0000C300160024958068039086070470000E8
:104AB00088ED00E000380240FFFFF6FE10300024D1
:104AC00010B50448FEF72AFE03480168491C01603E
:104AD00010BD0000F80700200A010020F0B50268B0
:104AE000254C264D264E274F274B4FF0804CA04299
:104AF00009D0604507D0A84205D0B04203D0B842E3
:104B000001D0984204D122F0700E4A6842EA0E02A7
:104B1000A0421BD0604519D0A84217D0B04215D092
:104B2000B84213D0984211D0184DA8420ED0184D5B
:104B3000A8420BD0174DA84208D0174DA84205D067
:104B4000164DA84202D0164DA84203D122F440755A
:104B5000CA682A434D6922F080022A4302608A68AB
:104B6000C2620A688262A04201D0984201D10969FA
:104B7000016301214161F0BD0000014000040040DB
:104B800000080040000C00400004014000400140CB
:104B9000004401400048014000180040001C004053
:104BA0000020004010B5846842EA032224F47F44C8
:104BB0000A432243826010BD826822F070020A43D9
:104BC00042F007018160704710B5036A046A24F05F
:104BD00001040462846924F0F00444EA021423F01E
:104BE0000A020A438461026210BD10B5036A23F011
:104BF000100303628369046A23F4704343EA0232B8
:104C000024F0A00343EA01118261016210BD01207A
:104C100004F012FDFBE7F8B5044690F83A002028AE
:104C200033D179B372B394F8380001282DD0012024
:104C300084F83800A162A2850025E563222084F86B
:104C40003A00606B134605650846666B21680246AC
:104C50003046091DFDF742F920680168416800915E
:104C600084F83850C16841F48071C160206841699E
:104C700041F0010141612068416941F04001416119
:104C80000020F8BDFFE70120FBE70220F9E7000064
:104C90002DE9F041044600680169E26821F44051C1
:104CA000114301612169A068E26908436169114308
:104CB00022680843D16849F20C6399430143D160EB
:104CC00020684169A26921F4407111434161E269A0
:104CD0006425B2F5004F9748974922684FF0320893
:104CE0003FD08A4201D082427CD1FEF725F800EB0A
:104CF000C00101EB001061688900B0FBF1F6FEF71E
:104D00001BF800EBC00101EB001061688900B0FBEB
:104D1000F1F0B0FBF5F06FF01801484306EB8001AD
:104D200008EB0110B0FBF5F000F0F006FEF704F818
:104D300000EBC00101EB001061688900B0FBF1F0ED
:104D4000B0FBF5F006EB0016FDF7F6FF00EBC00137
:104D500001EB001061688900B0FBF1F7FDF7ECFF93
:104D6000D2E08A4201D082423DD1FDF7E5FF00EB5F
:104D7000C00101EB001061684900B0FBF1F0B0FB2D
:104D8000F5F00601FDF7D8FF00EBC00101EB0010C4
:104D900061684900B0FBF1F7FDF7CEFF00EBC00101
:104DA00001EB001061684900B0FBF1F0B0FBF5F0D9
:104DB0006FF01801484307EB800108EBC100B0FB1E
:104DC000F5F000F0F80006EB4006FDF7B5FF00EB4C
:104DD000C00101EB001061684900B0FBF1F7FDF77D
:104DE000ABFF3CE055E0FDF797FF00EBC00101EBA6
:104DF000001061684900B0FBF1F0B0FBF5F006016E
:104E0000FDF78AFF00EBC00101EB0010616849006B
:104E1000B0FBF1F7FDF780FF00EBC00101EB0010E4
:104E200061684900B0FBF1F0B0FBF5F06FF01801DC
:104E3000484307EB800108EBC100B0FBF5F000F040
:104E4000F80006EB4006FDF767FF00EBC00101EB41
:104E5000001061684900B0FBF1F7FDF75DFF00EB62
:104E6000C00101EB001061684900B0FBF1F0B0FB3C
:104E7000F5F06FF01801484307EB800108EBC10023
:104E8000B0FBF5F000F00700216830448860BDE811
:104E9000F081FDF741FF00EBC00101EB00106168FC
:104EA0008900B0FBF1F6FDF737FF00EBC00101EB25
:104EB000001061688900B0FBF1F0B0FBF5F06FF015
:104EC0001801484306EB800108EB0110B0FBF5F038
:104ED00000F0F006FDF720FF00EBC00101EB001031
:104EE00061688900B0FBF1F0B0FBF5F006EB00164D
:104EF000FDF712FF00EBC00101EB001061688900B3
:104F0000B0FBF1F7FDF708FF00EBC00101EB00106B
:104F100061688900B0FBF1F0B0FBF5F06FF01801AB
:104F2000484307EB800108EB0110B0FBF5F000F0FF
:104F30000F00A9E700140140001001402DE9F041E5
:104F4000984617460E460446069D1DE0681C1BD079
:104F50002DB1FDF7F1F8A0EB0800A84214D92068A4
:104F6000C16821F4D071C1602068416921F001015C
:104F70004161202084F8390084F83A00002084F848
:104F800038000320BDE8F0812068006836EA0000A0
:104F900004D00020B842D9D00020F3E70120F9E77F
:104FA0000148FEF773BC0000380800202DE9F041ED
:104FB000D0F89832D0F89022DAB101EB810400EBFE
:104FC00084040025E6694EB1C1EBC10703EB8703FA
:104FD0005B6CB6FBF3F703FB176323B1C2F8145203
:104FE0000020BDE8F08100231A46E56100F07BFC5B
:104FF000F6E70220F5E770B50546D0F8904200F0DC
:1050000087FBC4F80C02D5F8900248B1D5F8941289
:10501000D4F80402CA6804F503719047002070BDFB
:10502000022070BD70B504460026812100F0B6FA5A
:10503000002501212046E56200F0B0FA82212046D9
:10504000C4F8585100F0AAFA2564D4F8900248B187
:10505000D4F8940204F5247440688047206803F073
:10506000BBF82560304670BD10B5D0E9A44159B1F8
:1050700094F80002FF2807D08B6894F8012221469B
:105080009847FF2084F80002002010BD0A2101800B
:105090000048704778030020432101800048704792
:1050A000C80300204321018000487047840300208A
:1050B00043210180004870470C0400202DE9F04195
:1050C00004460026007C4FF40077012590B340236E
:1050D00002228121204600F063FB4023E562022288
:1050E0000121204600F05CFB082303228221204698
:1050F000C4F8585100F054FB4FF40770256403F0D6
:1051000007FEC4F89002F8B10546D4F8940200688E
:1051100080470020C5F81402C5F81802207CD5F895
:10512000042298B140230121204600F045FB30467F
:10513000BDE8F081FFE73B4602228121204600F0D6
:105140002FFB3B46E562CAE70126F0E73B46EAE76C
:1051500010B5D0F8901269B1027C002AD1F804226F
:1051600005D04023012100F027FB002010BD4FF4A3
:105170000073F7E7022010BD02460220002902D08A
:105180000020C2F894127047D0F89002C0F80412C0
:1051900000207047D0F89002C0F81022C0F8081222
:1051A000002070472DE9FC410546D0F890720020A0
:1051B0008DF80000ADF80400064608780C4610F0A3
:1051C000600121D020293BD1E288AAB10006607895
:1051D00007D5D5F894128B6839469847E288394646
:1051E00026E087F80002A07987F80102E2883946B4
:1051F000284600F06AF828E0D5F89412607800227A
:105200008B682146984720E0607820B10A2809D0B1
:105210000B2815D110E095F87402032810D1022252
:1052200001A905E095F87402032809D10122694615
:10523000284600F064F808E095F87402032804D0CA
:105240002146284600F036F802263046BDE8FC81AB
:1052500010B5D0F89012A1B1D1F814220AB10120F2
:1052600010BD0122C1F81422D1F810220263B1F856
:10527000102293B2D1F80822812100F034FB0020E3
:1052800010BD022010BD10B5D0F88C225268904796
:10529000002010BD134610B50A46002100F08CFA1C
:1052A000002010BD134610B50A46002100F01BFB7C
:1052B000002010BD10B50446802100F0F9FA204608
:1052C000BDE81040002100F0F3BA10B50323C0F888
:1052D0004821C0F86C32C0F84C2113460A46002120
:1052E00000F06AFA002010BD10B505210023C0F8B7
:1052F0006C121A46194600F05FFA002010BD10B576
:105300000223C261C0F86C32026213460A460021D1
:1053100000F0E9FA002010BD10B504210023C0F808
:105320006C121A46194600F0DEFA002010BD00008B
:1053300010B50A46024903A000F0E2F8004810BD8B
:10534000BC0F002043444320436F6E666967000032
:1053500012200880004870474800002010B50A4617
:10536000024903A000F0CCF8004810BDBC0F00209B
:1053700043444320496E74657266616365000000B2
:1053800004200880004870474400002010B50A46F9
:10539000024903A000F0B4F8004810BDBC0F002083
:1053A00053544D6963726F656C656374726F6E6997
:1053B0006373000010B50A46024903A000F0A0F88C
:1053C000004810BDBC0F002053544D3332205669A5
:1053D000727475616C20436F6D506F7274000000C1
:1053E00010B51A2008800A480168001D0468001DD5
:1053F0000068081809D008220649FEF7FBFB05499A
:10540000042210312046FEF7F5FB0248801E10BD35
:10541000107AFF1F5E000020F8B5044648880D464C
:10542000010A08294BD2DFE801F04A0409174A4A69
:105430004048D4F88812207C0A6832E0207C02269A
:105440000028D4F88C0205D0C16A68468847014616
:10545000467041E0816AF8E7C0B206282FD2DFE843
:1054600000F003080D12171CD4F88812207C4A683B
:1054700017E0D4F88812207C8A6812E0D4F88812E9
:10548000207CCA680DE0D4F88812207C0A6908E004
:10549000D4F88812207C4A6903E0D4F88812207C72
:1054A0008A6969469047014616E0207C38B9D4F8ED
:1054B0008C02416B68468847F5E7207C20B129467D
:1054C0002046FFF7F7FEF8BDD4F88C02016B684662
:1054D0008847014607204870BDF8000048B1EA88B7
:1054E00052B1824200D90246ADF800202046FFF7B3
:1054F00006FFE8880028E6D12046FFF70DFFF8BD3B
:1055000070B5002300281ED00446002502E06D1C63
:10551000EDB2641C2678002EF9D1022404EB450478
:1055200014801278CA545B1C0322CA5400245B1CEA
:1055300006E0CA545B1CDAB28C54521CD3B2401C35
:105540000278002AF5D170BD01004FF0000004D0B0
:10555000012901D0022901D00220704701207047A3
:1055600010B580B1D0F88C3213B10023C0F88C3262
:1055700009B1C0F88812012180F87412027000F09D
:10558000CBF8002010BD022010BD10B5D0F8980255
:10559000FCF7DEFEBDE81040FFF7D6BF10B5D0F82F
:1055A0009802FCF7AFFEBDE81040FFF7CDBF2DE934
:1055B000F0411746044651B1D4F88C0242691AB141
:1055C00094F87402032851D00220BDE8F081D4F889
:1055D0006C32002504F11400022B03D0042B3AD0C6
:1055E000C3B33CE0D0E903639E4207D9F11AC1601E
:1055F0008AB239462046FFF755FE12E08068B0FBBC
:10560000F3F103FB110199B9984211D3D4F8701248
:1056100088420DD2002211462046FFF743FEC4F80F
:10562000705200231A461946204600F0C5F816E0CD
:10563000D4F88C02C16829B194F87402032801D10E
:10564000204688478021204600F032F92046FFF7A7
:105650004BFE04E0FFE78021204600F029F994F892
:105660007802012804D184F8785201E0204690475E
:105670000020AAE770B51546044649B1D4F88C025B
:1056800082691AB194F87402032830D0022070BDE8
:10569000D4F86C1204F5A070032902D005291ED09D
:1056A00027E0D0E903218A420BD9531AC360084688
:1056B000834200D303469AB229462046FFF7EAFD0B
:1056C00017E0D4F88C02016929B194F87402032818
:1056D00001D1204688472046FFF71EFE09E0002042
:1056E0000146C4F86C02204600F0E2F801E02046D2
:1056F0009047002070BD0020704710B5012180F850
:105700007412D0F88C22017952689047002010BDA5
:10571000D0F89802FCF74ABE10B5017839BB15499C
:105720000222C1F80404C0F898124FF0A0400860AB
:10573000042048600020C1E90320C1E90620086276
:105740004862C86208630846FDF722F908B1FBF712
:10575000EEFB80210748FCF794FD4022002105481C
:10576000FCF793FD802201210248FCF78EFD00200A
:1057700010BD0000B40B00200A0601F07F01D0F834
:105780009802C1EBC10100EB810002D590F83E0008
:10579000704790F8FE017047002070470020704766
:1057A00010B51C461346D0F898022246FCF707FEB7
:1057B000BDE81040FFF7C8BE10B5D0F89802FCF75E
:1057C0002EFEBDE81040FFF7BFBE70B500220446B4
:1057D00040231146FFF7E4FF40260125C4F850613D
:1057E0003346002280212046C4F84451FFF7D8FFF9
:1057F0006662A56184F874520020C4F86C0260608F
:10580000C4F87C02D4F8900228B1D4F88C020021AC
:10581000426820469047002070BD90F8751280F8CD
:1058200074120020704710B590F87412032904D147
:10583000D0F88C12C96901B18847002010BD0174ED
:105840000020704710B5D0F89802FDF773F9BDE855
:105850001040FFF779BE70B5044600F5207005468C
:1058600000F04AF80120C4F86C02B4F88602C4F8CB
:10587000700294F8800210F01F010AD001290DD0A7
:10588000022910D000F08001204600F011F800201D
:1058900070BD2946204600F09EF8F8E729462046CC
:1058A00000F0CAF9F3E72946204600F01DF9EEE7BB
:1058B00010B5D0F89802FCF7D6FDBDE81040FFF710
:1058C00043BE10B5D0F89802FDF74FF9BDE810407F
:1058D000FFF73ABE90F8741280F87512042180F830
:1058E00074120020704710B5D0F89802FCF7F5FD4F
:1058F000BDE81040FFF728BE0A7802704A7842706F
:105900008A78CB7802EB032242800A794B7902EB4A
:10591000032282808A79C97902EB0121C180704714
:105920000246002011B1C2F88C1270470220704765
:1059300010B5D0F88C2202241AB11268904700B931
:105940000024204610BD000070B50E461E4D89781B
:1059500004462970012931D894F8740202280BD02A
:1059600003280FD031462046FFF7A4FC29782046B3
:10597000BDE87040FFF787BCD9B10320616084F8AF
:10598000740209E071B16068884212D0C1B2204649
:10599000FFF779FC297861602046FFF7C9FF0228EC
:1059A0000CD006E0022084F8740220466160FFF704
:1059B0006AFC2046BDE87040FFF7AEBC3146204689
:1059C000BDE87040FFF776BC7403002010B5FFF708
:1059D00078FF002010BD2DE9F0410A78002612F072
:1059E000600208D0202A01D0402A70D1D0F88C2241
:1059F000926890476DE04B78002201250A2B66D211
:105A0000DFE803F0405D6557650805652C29FFF761
:105A100003FD5EE004468888D8B9C888C8B94888BC
:105A2000802816D200F07F0794F87402032810D063
:105A300084F8767239462046FFF704FF2046FFF7C8
:105A40006BFC1FB1022084F8740242E084F87452A7
:105A50003FE020463BE0FFF777FF3AE0CB88012BA1
:105A600035D190F87432012B04D0022B02D0032BD5
:105A70002DD104E08260012200F1080116E001222C
:105A8000011D13E090F87422012A03D0022A01D0EC
:105A9000032A1CD1CA88022A19D1C560D0F87C1209
:105AA00009B10321C160022200F10C01FFF727FCBC
:105AB0000FE0498801290CD1C0F87C5211E090F820
:105AC0007432012B08D0022B06D0032B04D0FFF731
:105AD000F1FB3046BDE8F08149880129F9D1C0F8D1
