:020000040800F2
:10000000781D0020FD010008AB370008C32E000852
:10001000A9370008310C00080D3D00080000000061
:100020000000000000000000000000006501000862
:100030002B0E000800000000A90100088D38000800
:10004000170200081702000817020008170200082C
:100050001702000817020008170200082D0E0008FA
:10006000170200081702000817020008E90D00082F
:1000700017020008F50D0008170200081702000813
:10008000170200081702000817020008450D0008B3
:10009000390D0008170200081702000817020008AF
:1000A00017020008170200081702000817020008CC
:1000B00017020008170200081702000817020008BC
:1000C00017020008170200081702000817020008AC
:1000D000170200081702000817020008013D000877
:1000E00017020008170200081702000800000000AD
:1000F0000000000000000000000000000000000000
:1001000000000000000000001702000817020008AD
:10011000170200081702000879390008853900081D
:10012000170200081702000817020008170200084B
:10013000170200080000000000000000170200087D
:10014000170200081702000817020008170200082B
:10015000DFF80CD000F008FD00480047AD4C000867
:10016000781D0020224B19680868B0E8F00F80F372
:100170000988BFF36F8F4FF0000080F311884EF0B5
:100180000D0E70470000000006480068006880F30C
:10019000088862B661B6BFF34F8FBFF36F8F00DF81
:1001A00000BF00BF08ED00E0EFF30980BFF36F8FE1
:1001B0000F4B1A6820E9F00F106008B54FF050009F
:1001C00080F31188BFF34F8FBFF36F8F05F028FFC7
:1001D0004FF0000080F31188BDE8084019680868F6
:1001E000B0E8F00F80F30988BFF36F8F704700BF4E
:1001F00098000020EFF30580704700000648804714
:1002000006480047FEE7FEE7FEE7FEE7FEE7FEE7FB
:10021000FEE7FEE7FEE7FEE725390008510100088A
:100220002DE9F05F0546002092469B46884606462B
:10023000814640241BE0284641464746224600F0BE
:1002400020F853465A46C01A914110D31146184619
:10025000224600F04DFB2D1A67EB01084F4622465F
:100260000120002100F044FB17EB00094E41201E45
:10027000A4F10104DFDC484631462A464346BDE886
:10028000F09F202A04DB203A21FA02F00021704777
:1002900021FA02F3D040C2F12002914008431946EE
:1002A000704740EA01039B0703D009E008C9121F09
:1002B00008C0042AFAD203E011F8013B00F8013B20
:1002C000521EF9D27047D2B201E000F8012B491E4C
:1002D000FBD270470022F6E710B513460A460446E3
:1002E0001946FFF7F0FF204610BDF0B480EA010286
:1002F000D40F4200B2EB410F02D20246084611462B
:100300004A0042D0C30DDDB2C1F3C752AD1A202D51
:1003100035DAC1F3160141F4000204B15242C5F1CD
:10032000200602FA06F12A411044B3EBD05F23D035
:10033000C4B1012DA0EBC35009DCF0BC4FF000426A
:1003400002EAC352DBB200F5000000F0FBBA400045
:1003500000F1807000EBC350A0F1807040EAD170D2
:10036000490009E0490841EAC071A0EBC35000F51B
:100370000000400800EBC350F0BC00F0DABA614264
:10038000012202EB4101001BF6E7F0BC704781F04F
:100390000041AAE780F00040A7E780EA010210B51B
:1003A00002F00043400022D04A001FD0010E01EBB2
:1003B0001261C0F35600C2F3560240F4000042F44A
:1003C0000002A0FB022000047F39140400D0401C6E
:1003D00050EA124001D44000491EC2B20C0604EBA0
:1003E000D010401C4008802A02D003E0002010BD3D
:1003F00020F00100002900DA0020184310BD30B4BD
:1004000080EA010202F0004530F0004221F0004095
:1004100013D090B1C30DD40DC2F31601C0F3160072
:10042000E41A41F4000140F400027D34914201D30A
:10043000641C00E04900002C02DA30BC0020704748
:100440004FF400000023914201D3891A034340086E
:100450004FEA4101F7D151B1914202D14FF0004131
:1004600005E002D24FF0010101E06FF0010103EB62
:10047000C450284430BC00F05CBA420005D0C0F340
:10048000C7525242914201DC0020704700EBC1503C
:1004900070472DE9FE4F804681EA0300C00F0C46ED
:1004A000009021F0004123F00045B8EB0200A94183
:1004B00005D24046214690461C460B46024623F094
:1004C0000040104347D0270DC7F30A00C3F30A5179
:1004D0000290401A019040286BDAC3F3130040F4F5
:1004E000801B0098924620B10023D2EB030A63EBF5
:1004F0000B0B01985946C0F14002504600F0F8F944
:1005000006460D4650465946019A00F000FA10EB97
:1005100008006141002487EA115284EAE7731A4314
:1005200040D0009A62B3019A012A4FEA075215DCC3
:10053000001B61EB02014FF0004202EA0752CDE9D5
:100540000042001C41F5801132462B4600F055FA5E
:1005500003B0BDE8F08F40462146F9E7001B61EB90
:100560000201001C41F5801300185B412018A2F520
:10057000001747EB030140EAD570B6196D4111E051
:100580006D084FEA360645EAC0754FEA0752001B70
:1005900061EB0201001C41F5801149084FEA30006F
:1005A0000019514132462B4603B0BDE8F04F00F030
:1005B00015BA0098012240000023D0EB020263EB41
:1005C000E073009821464FEAE074B8EB000061EB5D
:1005D0000401E9E783F000435BE781F0004158E75D
:1005E0002DE9FE4F81EA030404F0004421F00041AC
:1005F00000944FF0000B23F0004350EA01045ED05A
:1006000052EA03045BD0C3F30A54C1F30A552C44E5
:10061000A4F2F3340194A0FB0254C1F3130141F49A
:100620008011C3F3130343F4801301FB024400FB66
:10063000034E840A970A44EA815447EA8357A4FB8D
:10064000076802958D0A05FB07854FEA932C04FB8A
:100650000C542705029D4FEA065847EA1637B5EBBA
:1006600008056EEB070C870E920E47EA811742EAE7
:100670008312A7FB0201B6EB0B0164EB00042B0D08
:1006800043EA0C335E1844EB1C50DA465146E7FB54
:100690000201C5F313044FEA0B3343EA14534FEA44
:1006A0000432019C43EA0603A4F10C040294009C6A
:1006B000CDE900B400F0A1F903B0BDE8F08F00204F
:1006C0000146F9E72DE9F04D81EA030404F0004BFF
:1006D00021F0004514464FF0000A23F0004150EA93
:1006E000050220D054EA01021DD0C5F30A57024684
:1006F000C5F31303C1F31300C1F30A5640F4801588
:1007000043F48013A7EB0608101BD64608F2FD3809
:1007100073EB050002D308F1010801E092185B4178
:10072000B8F1000F03DA00200146BDE8F08D00208B
:100730004FF48011064684460EE0171B73EB050745
:1007400005D3121B63EB050306434CEA010C490871
:100750004FEA300092185B4150EA0107EDD152EAAE
:10076000030012D082EA040083EA0501084305D0A1
:10077000101BAB4106D20122002306E000224FF0FD
:10078000004302E06FF0010253101AEB06004CEB3D
:10079000085110EB0A0041EB0B01BDE8F04D00F0F1
:1007A0001DB9C10F80EAE0700844CA0796230021F2
:1007B00000F0C8B896230022114600F0C3B80EB569
:1007C000C10F80EAE0700844CA07002140F23343B9
:1007D0008DE80E000A460B4600F00FF903B000BD8D
:1007E00000F0004220F00040C10DC0F3160040F4BC
:1007F00000007F2901DA00207047962903DCC1F14F
:100800009601C84001E096398840002AF4D0404261
:10081000704720F00040C10DC0F3160040F4000006
:100820007F2901DA00207047962903DCC1F1960187
:10083000C840704796398840704700F0004230F059
:1008400000400AD0C10D01F56071C0F3160042EA04
:100850000151C2084007114370470020014670470C
:1008600030B5041E71F1000404DB4FF00044404237
:1008700064EB0101141E73F1000405DB1C464FF00C
:100880000043524263EB0403994208BF904230BDDB
:1008900001F0004330B421F0004150EA010206D0DB
:1008A0000A0DA2F56072C1F31301002A02DC30BC0C
:1008B00000207047440F44EAC104C100E01830BC76
:1008C00000EBC25000F035B8002801DBC0F1004059
:1008D000002901DBC1F1004181427047002801DBA2
:1008E000C0F10040002901DBC1F10041884270479E
:1008F000202A04DB203A00FA02F1002070479140E0
:10090000C2F1200320FA03F3194390407047202AD4
:1009100006DBCB17203A41FA02F043EAE07306E027
:1009200041FA02F3D040C2F1200291400843194637
:1009300070470029A8BF7047401C490008BF20F03D
:100940000100704710B4B0FA80FC00FA0CF050EAD5
:10095000010404BF10BC704749B1CCF1200421FA56
:1009600004F411FA0CF118BF012121430843A3EB51
:100970000C01CB1D4FEA00614FEA102042BF00205E
:1009800010BC704700EBC35010440029A4BF10BC3A
:100990007047401C490008BF20F0010010BC7047A0
:1009A00010B541000CD0C0F3C751962908DC7E2950
:1009B00009DC06DB410204D000F0004040F07E502C
:1009C00010BD002010BDC1F19604C4F1200100FA51
:1009D00001F1E040FFF7ADFFA04010BD10B5141EBF
:1009E00073F1000408DA401C41F1000192185B41E8
:1009F0001A4301D120F0010010BD2DE9F04D9246BF
:100A00009B4611B1B1FA81F202E0B0FA80F22032D5
:100A10009046FFF76DFF04460F4640EA0A0041EAA0
:100A20000B0153465A46084313D0114653EA0100BE
:100A300019D0C8F140025046FFF723FC05460E4688
:100A4000504659464246FFF753FF084305D0012060
:100A500004E020463946BDE8F08D0020054346EA13
:100A6000E0762C4337430A986305E40AA0EB0800BC
:100A70000022FD0A44EA47540A3002D5002001460C
:100A8000E9E7010510196941DDE9084500196941E7
:100A9000BDE8F04DA2E770B521F0004303430CD050
:100AA000C1F30A550024D5EB040564EB0403D61703
:100AB000AD1AB34102DB0020014670BD201841EBA6
:100AC000025170BD2DE9F04D00231A461B1A8A41D0
:100AD00003DB00200146BDE8F08DC1F30A52C1F3EB
:100AE000130141F480154FF0000BD10702D100181B
:100AF0006D41521E0027044640F2FF11384601EBBB
:100B0000620A3E468046024600204FF48011FFF7FD
:100B1000B8FBC2197141BB1846EB0100B4EB030CE2
:100B200075EB000C04D3E41A65EB000517460E467E
:100B3000241908F101006D4180463428E3DDF919DC
:100B400046EB0600091BA84103D24FF0FF321346C3
:100B500001E0002213461BEB070046EB0A51BDE8FB
:100B6000F04DFFF73BBF0000064C074D06E0E06884
:100B700040F0010394E8070098471034AC42F6D3E4
:100B8000FFF7EAFAC8640008E864000870B58C183A
:100B900010F8015B15F0070301D110F8013B2A1191
:100BA00006D110F8012B03E010F8016B01F8016B7E
:100BB0005B1EF9D12B0705D40023521E0DD401F87A
:100BC000013BFAE710F8013BCB1A921C03E013F843
:100BD000015B01F8015B521EF9D5A142D8D3002078
:100BE00070BD000070B5044600688168C943C9073C
:100BF0001CD1816821F00101816001F0BFF8054638
:100C00000FE000BF01F0BAF8401B022809D9A06A22
:100C100040F01000A062E06A40F00100E0620120B4
:100C200070BD20688068C043C007EBD0002070BD55
:100C3000FEE72DE9F84F88600C4607461546C9685F
:100C40009068FFF7AAFB0090D4F8108068684146CE
:100C5000FFF7A3FB834621686869FFF79EFB666880
:100C6000824631462869FFF798FB81463946E86895
:100C7000FFF793FB4946FFF738FB5146FFF735FB7B
:100C80005946FFF784FB0099FFF781FB6061C4E9D7
:100C90000380C4E90067BDE8F88F000010B51E4C62
:100CA0001B4A1C49204602F093FD194A1B49183281
:100CB000204602F08DFD164A19493032204602F0D6
:100CC00087FD134A17494832204602F081FD104A39
:100CD00015496032204602F07BFD0D4A13497832F7
:100CE000204602F075FD0A4A11499032204602F072
:100CF0006FFD074A0F49A832204602F069FD044AF9
:100D00002046C032E102BDE8104002F061BD0000A3
:100D1000E01600200000A04200004843000070429E
:100D200000004C420000F0410000A0410000704172
:100D3000000020410000A040014800F03EBB000040
:100D4000EC030020014800F038BB0000EC03002059
:100D500070B50C46054600220221214801F008F832
:100D60002088C0F30A00A0F5806028806078A17810
:100D7000C00840EA4110C0F30A00A0F58060688016
:100D8000A078E178800940EA8100217940EA812059
:100D9000C0F30A00A0F58060A8802079617940083E
:100DA00040EAC110C0F30A00A0F58060E8806079D5
:100DB000800928726079C0F301106872E088688148
:100DC0002089A8816089E881207B2874607B687411
:100DD000E089688200F0D2FF02490860486070BD77
:100DE000000C014058000020014800F039BD00000F
:100DF000A8030020014800F033BD00006C0500206E
:100E000030B590F840500124AC40C56B6C6004686C
:100E100063604368102B036803D099600068C26068
:100E200030BD9A600068C16030BD7047022000F09C
:100E3000A3BE7047F8B50024009490F824202546FE
:100E4000012A12D0012280F824204A681F23072A91
:100E50000DD20668776B521E02EB820293409F43CD
:100E60000B6893401F43776319E00220F8BD0668C2
:100E70000D2A0AD2376BD21F02EB820293409F43A6
:100E80000B6893401F43376309E0F76A0D3A02EBA2
:100E9000820293409F430B6893401F43F7620A68A6
:100EA000072306680A2A0AD3F7680A3A02EB4202C5
:100EB00093409F438B6893401F43F76008E0376976
:100EC00002EB420293409F438B6893401F4337617C
:100ED0000A68102A01D0112A20D1124B02689A42C6
:100EE00017D193681B0219D4936843F400039360ED
:100EF0000968102912D10C490C4A0968B1FBF2F1BA
:100F000001EB8101490000E0491E00910029FBD15D
:100F100004E0816A41F020018162012480F82450BC
:100F20002046F8BD002401409400002040420F00FC
:100F30002DE9F0414FF0000704003D467ED0A06A45
:100F4000002628B9E66284F82460204600F07EF886
:100F50002046FFF747FEA16A01F01001014304D0CB
:100F6000A06A40F01000A06268E0A16A21F48851F4
:100F700041F00201A1626268E169237B0A4347EA0A
:100F800043010A43A1684FF48077B94208D0012990
:100F900006D0002194F814C0BCF1010F02D00AE081
:100FA0003946F7E7F3B1A36A43F02003A362E36A8B
:100FB00043F00103E3622368D3F804C02CF4694CC6
:100FC0004CEA010CC3F804C023689968DFF870C0CC
:100FD00001EA0C0111439960A168B9420BD00129C3
:100FE00009D00CE0DFF85CC0A3690CEB43330B4382
:100FF00043F40061DFE7218A0D05A5F5801521681E
:10100000CB6A23F470032B43CB62216889680E4BB3
:101010001940914208D1E662A16A21F0020141F033
:101020000101A162BDE8F081A06A20F0020040F059
:101030001000A062E06A40F00100E0620120F1E7E8
:10104000FDF7E1FF00E0FFFFFE0E1FFF70B586B069
:1010500000250646009501950295039500681949FB
:1010600088422DD11849886940F4007088618869E8
:1010700000F400700490886940F004008861886979
:10108000694600F0040004900220009003200190C3
:101090000E4800F07DFD0F4C0D48C4E9000580208E
:1010A000C4E90250400020618000C4E905052046E3
:1010B000E56100F0F9FC08B1FFF7BBFE346266623F
:1010C00006B070BD0024014000100240000801403D
:1010D00008000240A803002090F82020012A07D031
:1010E000022A05D0416A41F4802141620120704703
:1010F000006842690A43426100207047F0B590F8E9
:1011000020500468A468012D05D0022D03D0416A47
:1011100041F4802153E014F0406F01D1E5004BD53C
:10112000C4F30164022C03D9416A41F4000146E092
:101130000125A5401D608D684FF4C0739DB1CE6838
:1011400035434E6845EAC605066803EB0417F551BA
:101150004FF4C275076805EB04150E697E51097DD1
:10116000012905D009E00E88CD6845EA4655EBE730
:1011700001684E5946F480764E511179D2F80550E7
:101180004FF4C67641EA0525016806EB04168D5139
:101190001178D2F801204FF4C47541EA02210268A7
:1011A00005EB04155151006803EB0411425842F05D
:1011B000010242500020F0BD416A41F40011416239
:1011C0000120F0BD10B590F82020012A07D0022A96
:1011D00005D0416A41F480214162012010BD3B48A5
:1011E000D0F8002242F00102C0F80022D0F800221C
:1011F00022F47C52C0F80022D0F800224B6A42EA66
:101200000322C0F800220A7D02F01F0301229A4047
:10121000D0F81C329343C0F81C32CB69B3B9D0F874
:101220000C329343C0F80C328C894B6864F31F4333
:101230004C6900EBC404C4F840320C890B6864F3B9
:101240001F434C6900EBC404C4F84432CB69012B42
:1012500016D1D0F80C321343C0F80C320C884B680E
:1012600064F31F434C6900EBC404C4F840320C899A
:10127000CB6864F31F434C6900EBC404C4F84432E8
:101280008B69002BD0F804320ED01343C0F804321F
:101290000B69002BD0F8143208D01343C0F8143275
:1012A000096A012904D008E09343EFE79343F5E787
:1012B000D0F81C121143C0F81C12D0F8001221F013
:1012C0000101C0F80012002010BD000000640040C1
:1012D000704730B590F82040012C05D0022C03D087
:1012E000416A41F480215DE00468002955D02469F9
:1012F000A40754D04FF4D874056804EB01142D5999
:1013000015F00405956005682D594ED0ED0855601F
:1013100005682C5904F00204D4604FF4DA740568AF
:1013200004EB01142D5905F00F05156105682D59C1
:10133000C5F30725956105682C59240C54614FF4B9
:10134000DC72046802EB0112A4581C700468A458F3
:10135000240A5C700468A458240C9C700468A25889
:10136000120EDA704FF4DE72046802EB0112A45818
:101370001C710468A458240A5C710468A458240CE5
:101380009C710468A258120EDA71006881B101697B
:1013900041F020010161002030BDE468A8E7416A06
:1013A00041F400114162012030BD6D0D1560AFE7C1
:1013B000C16841F02001C160EDE72DE9F05F05460D
:1013C000006800244669D0F804908768D0F80CB013
:1013D000D0F810A0D0F81880F10748D0F90714D041
:1013E00001218160B80703D5284600F032FA0CE0ED
:1013F000780702D54FF4006407E0380702D54FF4B0
:10140000805402E0284600F023FAF80516D5296832
:101410004FF480708860B80503D5284600F01BFAA9
:101420000CE0780502D544F4005407E0380502D5F5
:1014300044F4804402E0284600F00CFAF80316D584
:1014400029684FF480308860B80303D5284600F03F
:1014500004FA0CE0780302D544F4004407E03803B2
:1014600002D544F4803402E0284600F0F5F9300754
:1014700007D55FEACB6004D52968102044F40074D6
:10148000C86070074FF0080707D55FEA0B7004D5F6
:101490002868C760284600F06DF9B00706D52868AF
:1014A000C068800702D0284600F066F9700607D5AC
:1014B0005FEACA6004D52968102044F4806408619A
:1014C000B00607D55FEA0A7004D528680761284688
:1014D00000F08EF9F00606D528680069800702D072
:1014E000284600F086F9B00308D55FEAC96005D543
:1014F000296810204860284600F07CF9F00307D5E1
:101500005FEA097004D528684760284600F0A6F90C
:10151000300446D55FEA497040D5F00504D55FEA4E
:10152000C87001D044F00104B00504D55FEA8870AA
:1015300001D544F00204700504D55FEA487001D576
:1015400044F00404300529D518F0700F26D008F0B7
:101550007000402815D006DC102809D020280AD0B9
:10156000302816D10AE050280ED0602811D10EE0A4
:1015700044F008040DE044F010040AE044F02004B4
:1015800007E044F0400404E044F0800401E044F447
:1015900080742868816921F07001816129680420C4
:1015A0004860002C05D0686A204368622846FFF72F
:1015B0008FFEBDE8F09F70B5040003D094F82000C2
:1015C00010B104E0012070BD204600F081F82068D1
:1015D000016821F00201016000F0D0FB05460526FC
:1015E00004E000F0CBFB401B0A2811D820684068BB
:1015F0008007F6D42068016841F00101016000F025
:10160000BDFB05460BE000F0B9FB401B0A2806D9DC
:10161000606A40F40030606284F82060D2E720689D
:101620004068C007EFD0207E0128206801683DD0C7
:1016300021F080010160607E01282068016838D0B7
:1016400021F040010160A07E01282068016833D0AC
:1016500021F020010160E07E0128206801682ED081
:1016600041F010010160207F01282068016829D025
:1016700021F008010160607F01282068016824D002
:1016800021F004010160D4E902010843D4E9041205
:10169000114308436168491E08432168C86100205E
:1016A0006062012084F82000002070BD41F08001BC
:1016B000C0E741F04001C5E741F02001CAE721F051
:1016C0001001CFE741F00801D4E741F00401D9E768
:1016D00010B586B00021009101910291039100683C
:1016E000204988423BD12048C16941F00071C16165
:1016F000C16901F000710491816941F008018161C3
:1017000080691A4C00F0080004904FF4807000903B
:101710006946204600F03CFA6015009002200190D6
:10172000032003906946204600F032FA10484168D1
:1017300021F4C04141F0E06141F480414160002268
:101740000621132000F0A6FB132000F095FB0022D9
:101750000621142000F09EFB142000F08DFB06B043
:1017600010BD00000064004000100240000C014069
:10177000000001407047000000B51A4A016889B0B6
:10178000914204D107AB6A460021FFF7A2FD009900
:101790001548A1F20521072917D20288C9B2521CA7
:1017A000028001EB4103BDF81C20811C01EB830189
:1017B00052BA8A80BDF81E2052BACA80BDF82020D5
:1017C00052BA0A819DF822208A720188B1F5FA7F07
:1017D00006D1002101800A460121044800F0C8FA20
:1017E00009B000BD0064004000000020000C014072
:1017F000704770477047000070B5044690F82000AD
:10180000012804D0606A40F40020606218E00220E1
:1018100084F820002068016821F00101016000F0D7
:10182000ADFA05460EE000BF00F0A8FA401B0A28FA
:1018300008D9606A40F400306062052084F8200016
:10184000012070BD20684068C007EDD1606270BDA6
:101850007047704770477047704770477047000087
:101860002DE9F05FC16B0A6801680B68046C4FF0EA
:10187000040808FA04F8844D844E854FDFF814C23A
:10188000DFF81492DFF814A2DFF814B2DFF814E2E4
:1018900018EA020F65D05FEA437862D50A689206BB
:1018A00003D40A6822F004020A60DFF8F0814FF4E2
:1018B0008062016808F1140813011402414524D91B
:1018C000A9420DD0B1420FD0B9421AD0614515D00E
:1018D000494515D0514501D1120312E0594501D1B6
:1018E00004220EE0714501D140220AE06D4D14350D
:1018F000A94206D06B4A2832914201D11A4600E033
:1019000022466749091F0A6029E0A94213D0B14263
:1019100015D0B94220D061451BD049451BD0514557
:1019200002D14FF4800217E0414502D14FF08062AE
:1019300012E0594501D104220EE0714501D1402247
:101940000AE0584D1435A94206D0564A2832914231
:1019500001D11A4600E022464B4908394A60C16A63
:1019600071E04FF0020808FA04F818EA020F70D08C
:101970005FEA83786DD50A68920606D40A6822F079
:101980000A020A60012180F82110DFF810814FF46B
:101990000072016808F1140813011402414524D9AA
:1019A000A9420DD0B1420FD0B9421AD0614515D02D
:1019B000494515D0514501D1120312E0594501D1D5
:1019C00002220EE0714501D120220AE0354D143586
:1019D000A94206D0334A2832914201D11A4600E08A
:1019E00022462F49091F0A6029E0A94213D0B142BB
:1019F00015D0B94220D061451BD049451BD0514577
:101A000002D14FF4001217E0414502D14FF00072AD
:101A100012E0594501D102220EE0714501D1202288
:101A20000AE0204D1435A94206D01E4A28329142C0
:101A300001D11A4600E02246134908394A600021C4
:101A400080F82010816A00291CD0BDE8F05F0847AB
:101A5000FFE70825A540154214D01A0712D50A68D9
:101A600022F00E020A6090F84020C36B012101FAB7
:101A700002F25A60816380F82110002180F8201062
:101A8000016BE0E7BDE8F09F080002401C00024047
:101A90003000024044000240580002406C00024006
:101AA000080402401C04024030B560B11A4B0268C1
:101AB00014219A4209D2194B1344B3FBF1F1890066
:101AC000016417490AE0012030BD134B5B42134407
:101AD000B3FBF1F1890001640F490839C1630221A8
:101AE00080F82110136843F6F0718B43F0E901147C
:101AF0002143D0E902452C43214304692143446931
:101B0000214384692143194311600021416301226B
:101B100042770177084630BD08040240F8FFFDBF58
:101B20000000024070B5044690F82000002501280E
:101B30000CD0012084F8200094F821600020012EB0
:101B400006D084F820000225284670BD022070BD12
:101B5000022684F82160A0632068066826F001064A
:101B600006602046FFF74CF92068016841F001014A
:101B70000160E9E770470000044910B50A680242B5
:101B800002D00860FFF7F6FF10BD0000140401400A
:101B90002DE9F84FDFF8B891002409F1040A0AF1A1
:101BA000040B23460F270BF1040EC9E00125A540C5
:101BB0002A40AA427DD1674ED1F804C0ACEB06089A
:101BC000B44532D014DCBCF1030F3AD009DCBCF1CF
:101BD000000F2AD0BCF1010F1CD0BCF1020F31D193
:101BE0001DE0BCF1110F17D0BCF1120F2AD119E082
:101BF000B8F5881F19D006DCB8F5803F15D0B8F5C8
:101C0000801F1FD111E0B8F5001F0ED0B8F5041FDA
:101C100018D10AE0CB6815E0CB681B1D12E0CB6839
:101C200008330FE0CB680C330CE08B682BB1012B31
:101C30004FF0080303D0456104E0042302E005618E
:101C400000E00023FF2A01D8064601E000F1040667
:101C50004FEA840501D9A5F12005D6F8008007FADE
:101C600005FC28EA0C0803FA05F548EA0508C6F859
:101C700000804D68ED0062D5374DAE6946F0010633
:101C8000AE61AD6924F0030605F001050095334D02
:101C900006EB050CDCF80850A607360F07FA06F825
:101CA00025EA0805DFF8B880404503D14FF0000869
:101CB00017E044E0DFF8AC80404502D14FF0010866
:101CC0000FE0DFF8A480404502D14FF0020808E0A1
:101CD000DFF89880404502D14FF0030801E04FF053
:101CE000040808FA06F848EA0508CCF808804D68A8
:101CF000D9F80060ED034D4601D5164300E0964348
:101D00002E604D68DAF80060AD03554601D51643E4
:101D100000E096432E604D68DBF80060ED025D4602
:101D200001D5164300E096432E604D68DEF8006052
:101D3000AD02754601D5164300E096432E60641C43
:101D40000D682A46E5407FF431AFBDE8F88F00000A
:101D5000000401400000111000100240000001408A
:101D600000080140000C0140001001400014014037
:101D70000AB1016170470904FBE70000014880686F
:101D800070470000880000200248816802781144F2
:101D90008160704788000020074810B5016841F055
:101DA00010010160032000F095F8002000F006F813
:101DB00000F03EF8002010BD0020024000B50146B2
:101DC00087B00022372000F065F8372000F054F883
:101DD0001348C16941F02001C161C06905A900F043
:101DE00020000690684600F0E1F900F0FFF90D4987
:101DF0004000B0FBF1F10D480B4A491E0260416002
:101E000040F2E7320021C0E90321816000F025FDA6
:101E100010B1012007B000BD044800F069FDF9E7EA
:101E20000010024040420F0000140040B0050020A6
:101E30000F4808B5816941F001018161816901F0B4
:101E400001010091C16941F08051C161C069002266
:101E500000F0805000900F21901E00F01BF8054804
:101E6000416821F0E06141F00071416008BD00006F
:101E70000010024000000140002809DB00F01F02B2
:101E8000012191404009800000F1E020C0F80011DC
:101E900070470000F0B40E4B1B680C46C3F30223DE
:101EA000C3F10705042D00D90425191D072901D206
:101EB000002300E0DB1E012606FA05F1491E214041
:101EC00099409E40761E16403143F0BC01F0BDBFE4
:101ED0000CED00E0064900F0070208684FF6FF032A
:101EE000184040EA0220034A10430860704700008F
:101EF0000CED00E00000FA052DE9F84304460078F7
:101F00005B4DC0074FF0010951D0E8690026C000C1
:101F100008D4E86940F08050E861E869012600F0E3
:101F20008050009053480168C90512D4016880466A
:101F300041F480710160FFF721FF074605E000BF13
:101F4000FFF71CFFC01B642877D8D8F80000C00535
:101F5000F6D5286A10F440701ED0A18801F44071B3
:101F6000814219D0286A444920F44070C1F8009099
:101F700000220A602862C0070ED0FFF7FFFE074666
:101F800041F2883805E000BFFFF7F8FEC11B41456C
:101F900053D8286A8007F7D5286A616820F4407012
:101FA000084328621EB1E86920F08050E86120787B
:101FB000800705D56868A16820F440400843686040
:101FC0002078400705D5E86AE16820F4003008432E
:101FD000E8622078000705D5E86A216920F48020AE
:101FE0000843E862E86A800302D4E86A400333D514
:101FF0002868C00028D42868400105D5E86AA1698E
:1020000000F0F000884225D1E86AA16920F0F000D4
:102010000843E862E86A616920F470400843E862B6
:102020001649C1F87090FFF7A9FE064608E004E0E3
:10203000FFF7A4FE801B642802D90320BDE8F883C3
:1020400028688000F4D507E0E86A616900F4704010
:10205000884201D00120F1E72078C00605D56868E4
:10206000E16920F48000084368600020E6E7000092
:102070000010024000700040400442420000424212
:102080002DE9F0470F46050061D0434E306800F05F
:102090000700B84209D2306820F0070038433060AA
:1020A000306800F00700B84251D128683B4C8107E6
:1020B00012D5400703D5606840F4E060606028787E
:1020C000000703D5606840F4605060606068A968EC
:1020D00020F0F000084360602878C00728D06868C6
:1020E000012810D02168022810D0890700292EDA93
:1020F000616821F0030101436160FFF73FFE804604
:1021000041F288390DE021688903EFE78901EDE7A5
:10211000FFF734FEA0EB0801494502D90320BDE8D2
:10212000F0876068696800F00C00B0EB810FEFD1B8
:10213000306800F00700B8420BD9306820F0070083
:1021400038433060306800F00700B84201D0012009
:10215000E5E72878400705D56068E96820F4E06085
:10216000084360602878000706D56068296920F474
:10217000605040EAC100606000F058F86168084AA9
:10218000C1F30311515CC840064908600648006865
:10219000FFF714FE0020C2E70020024000100240BA
:1021A00070630008940000208C0000200F22026061
:1021B0000C4A536803F003034360536803F0F003D1
:1021C0008360536803F4E063C36052684FF4E063D4
:1021D00003EAD20202610448006800F007000860C8
:1021E00070470000001002400020024004480549EA
:1021F00000684968044AC1F30221515CC840704735
:102200009400002000100240806300080448054943
:1022100000684968044AC1F3C221515CC840704754
:10222000940000200010024080630008F0B524A252
:1022300089B00FCA04AC84E80F0025A10FC98DE84E
:102240000F002748416801F00C02042A04D0082A34
:1022500004D0244809B0F0BD2348FBE704AAC1F329
:102260008343C903D45C28D5C16AC26A01F00F0157
:102270001DF80110D20316D5C26AC06AC2F3031258
:10228000521CA2FB0123C0F30320801CA0FB0415F9
:10229000154F0026A1FB070C05FB07C501FB0651E6
:1022A000FDF7BEFF03E010486043B0FBF1F09DF87E
:1022B0001D10A142CED14008CCE70C486043C9E7CD
:1022C000000004050607080900000000000D0000DA
:1022D0000102030405060708090A0B0C0D0E0F1076
:1022E0000010024000127A00001BB70000093D00F8
:1022F0002DE9F84F040070D02078F14DC00749D087
:102300006868C0F38100012807D06868C0F38100C5
:10231000022809D16868C00306D52868800339D52A
:10232000A0680028E7D035E0A068B0F5803F0BD06A
:1023300010B1B0F5A02F11D0286820F480302860AB
:10234000286820F4802002E0286840F4803028606B
:10235000A06890B1FFF712FD06460AE0286840F435
:1023600080202860F0E700BFFFF708FD801B64288D
:1023700076D828688003F7D50CE0FFF7FFFC064607
:1023800005E000BFFFF7FAFC801B6428F0D828683E
:102390008003F7D42078CB4E80074FF001094FF02F
:1023A00000073AD5686810F00C0F07D06868C0F3D2
:1023B0008100022809D16868C00306D42868800714
:1023C00015D56069012808D111E06069B8B1C6F877
:1023D0000090FFF7D3FC804606E042E1FFF7CEFC19
:1023E000A0EB08000228C3D828688007F6D5286823
:1023F000A16920F0F80040EAC10028600DE03760D4
:10240000FFF7BCFC804605E0FFF7B8FCA0EB080036
:102410000228ADD828688007F6D4207800072ED58A
:10242000A948E169E9B1C0F80090FFF7A7FC804630
:1024300006E000BFFFF7A2FCA0EB0800022897D837
:10244000686A8007F6D5A1484FF4FA510068B0FBDE
:10245000F1F0009000BF0098411E0091FAD20EE00A
:10246000B0E00760FFF78AFC804605E0FFF786FCD6
:10247000A0EB0800022889D8686A8007F6D4207883
:10248000400763D5E8694FF00008C00009D4E86947
:1024900040F08050E861E8694FF0010800F080509A
:1024A00000908B480168C90512D40168834641F445
:1024B00080710160FFF762FC824605E0FFF75EFC79
:1024C000A0EB0A0064287DD8DBF80000C005F5D534
:1024D000206901280AD008B1052813D0286A20F005
:1024E00001002862286A20F0040002E0286A40F017
:1024F00001002862206941F2883B98B1FFF73EFC59
:1025000082460BE0286A40F004002862EEE700BF34
:10251000FFF734FCA0EB0A01594553D8286A80071D
:10252000F6D50CE0FFF72AFC824605E0FFF726FC13
:10253000A0EB0A01594545D8286A8007F6D4B8F1BE
:10254000000F03D0E86920F08050E861E06AD0B362
:102550006968C90307D56968C1F38101022902D1FD
:10256000E96AC9037DD4022808D0E86A20F48030E3
:10257000E862B766FFF702FC80463BE02868C000CF
:1025800005D5E86A616B00F0F000884269D1B76652
:10259000FFF7F4FB804605E0FFF7F0FBA0EB080037
:1025A000642874D828680001F6D4E86A616B20F0CA
:1025B000F0000843E862E86A216B20F47060084389
:1025C000E86201E063E018E0C6F86890FFF7D6FB28
:1025D000804605E0FFF7D2FBA0EB0800642856D840
:1025E00028680001F6D508E0FFF7C8FBA0EB08005B
:1025F00064284CD828680001F6D4206A90B3696832
:10260000C1F38101022949D00228376603D0FFF7C0
:10261000B5FB04463EE0FFF7B1FB074605E000BF0F
:10262000FFF7ACFBC01B022831D828688001F7D423
:10263000606AB0F5803F09D1E86A61680843E862E2
:10264000E86AE16820F00F000843E862D4E9090174
:102650000843696821F4741108436860C6F8609003
:1026600001E028E029E0FFF789FB044605E000BF10
:10267000FFF784FB001B022809D828688001F7D5E2
:102680001BE000BFFFF77AFB001B022802D90320E2
:10269000BDE8F88F28688001F4D40EE00128F7D057
:1026A0006868626A00F48031914204D1A16A00F442
:1026B0007010884201D00120EAE70020E8E700001E
:1026C0000010024000004242800442429400002078
:1026D0000070004070B5040005D00025A56294F894
:1026E000510010B106E0012070BD84F85050204622
:1026F00000F02EF8022084F851002068016821F0D3
:1027000040010160D4E901010843D4E903121143F7
:10271000084361690843218B01F400710843E169B2
:102720000843216A0843A16A084321680860A06938
:10273000042101EA1040216848602068C16921F441
:102740000061C1616565012084F85100002070BD01
:1027500000B585B0002100910191029103910068BC
:102760001349884221D11348816941F48051816124
:10277000816901F480510491816941F0080181610E
:102780008069694600F0080004902820009002202B
:102790000190032003900848FFF7FAF907484168C1
:1027A00041F0E06141F00101416005B000BD000071
:1027B0000030014000100240000C014000000140C8
:1027C0007047704710B590F83C20012A22D00122B2
:1027D00080F83C20CA688C6822F4407222434C681E
:1027E00022F4806222430C6822F4006222430C69C6
:1027F00022F4805222434C6922F400522243C969D8
:10280000002322F480420A4301684A6480F83C3085
:10281000002010BD022010BD70B590F83C20012AA8
:1028200019D0012400F83C4F0222427050F83C3C81
:102830005A689D6822F070060A684968324325F09C
:10284000800529435A6050F83C2C91604470002167
:102850000170084670BD022070BD10B5040003D0A1
:1028600094F83D0010B107E0012010BD002084F86D
:102870003C00204600F00CF8022084F83D00211DA9
:10288000206801F08DF8012084F83D00002010BD83
:1028900008B500680B49884212D10B48C16941F064
:1028A0001001C161C069002200F0100000900621F3
:1028B0003620FFF7EFFABDE808403620FFF7DCBA14
:1028C00008BD00000010004000100240022180F806
:1028D0003D1001688A6802F00702062A03D00A68E0
:1028E00042F001020A60012180F83D10002070478B
:1028F0000168CA6842F00102CA600068816801F09C
:102900000701062903D0016841F0010101600020A0
:102910007047022180F83D1001680A6A41F21113E4
:102920001A4207D10A6A9B101A4203D10A6822F0A0
:1029300001020A60012180F83D10002070477047B5
:1029400070B50446006801694FF00005C943890766
:1029500015D4C168C943890711D4E91E016101205A
:102960002077206880698007204602D0FFF7E7FFC4
:1029700004E000F0BFF8204600F054F92577206805
:102980000169C943490717D4C168C943490713D42A
:102990006FF004010161022020772068806910F443
:1029A000407F204602D0FFF7CAFF04E000F0A2F803
:1029B000204600F037F9257720680169C9430907E7
:1029C00016D4C168C943090712D46FF00801016128
:1029D000042020772068C0698007204602D0FFF7D6
:1029E000AEFF04E000F086F8204600F01BF92577E2
:1029F00020680169C943C90617D4C168C943C9061B
:102A000013D46FF010010161082020772068C0699D
:102A100010F4407F204602D0FFF791FF04E000F061
:102A200069F8204600F0FEF8257720680169C9435F
:102A3000C90708D1C168C943C90704D1891E01610A
:102A4000204600F00DF920680169C943090609D440
:102A5000C168C943090605D46FF0800101612046B1
:102A6000FFF7AEFE20680169C943490609D4C16871
:102A7000C943490605D46FF040010161204600F0CA
:102A8000F9F820680169C94389060BD4C168C943B4
:102A9000890607D46FF0200101612046BDE870402F
:102AA000FFF78FBE70BD000000B585B0002100911A
:102AB00001910291039100680B49884212D10B48A1
:102AC000816941F0040181618069694600F0040078
:102AD00004904FF44060009002200190039004485D
:102AE000FFF756F805B000BD002C01400010024071
:102AF00000080140704770B5044690F83C000D4650
:102B000001280DD0012684F83C60022084F83D00A5
:102B100042B1042A18D0082A2AD00C2A4DD139E013
:102B2000022070BD206800F087FF2068816941F0B5
:102B3000080181612068816921F0040181612068B8
:102B400081692A69114311E0206800F09DFF206827
:102B5000816941F4006181612068816921F48061AB
:102B60008161206881692A6941EA0221816124E04A
:102B7000206800F0B5FF2068C16941F00801C1611B
:102B80002068C16921F00401C1612068C1692A6916
:102B9000114311E0206800F0CFFF2068C16941F4C3
:102BA0000061C1612068C16921F48061C161206850
:102BB000C1692A6941EA0221C16184F83D600020AF
:102BC00084F83C0070BD10B5040003D094F83D00BB
:102BD00010B107E0012010BD002084F83C00204621
:102BE00000F00CF8022084F83D00211D206800F060
:102BF000D7FE012084F83D00002010BD08B5006814
:102C00000649884208D10648816941F40061816122
:102C1000806900F40060009008BD0000002C0140B5
:102C2000001002407047000010B504460068012201
:102C300000F0F4FE09492068884203D1416C41F458
:102C4000004141642068816801F00701062903D032
:102C5000016841F001010160002010BD002C01401D
:102C600000680349884201D1FFF78EB87047000021
:102C70000014004070470000F0B401680A68D206F2
:102C800055D50A684968416B2B4B2B4A0968783344
:102C9000914220D0284A1432914222D0264C52151B
:102CA0002834A1422AD0244D14013C35A94222D017
:102CB000214E15025036B1421FD01F4E6436B1422C
:102CC00001D112031AE0994202D14FF0007215E0CF
:102CD0001A4EB14201D1022210E0184E1436B14210
:102CE00001D120220AE0154E2836B14206D0134AFF
:102CF0003C32914201D1224600E02A460C6824F081
:102D000001040C60416B0968994203D90B49091F02
:102D10000A6002E0084908394A60426B818D1268F6
:102D20005160416B09680A6842F001020A60816AD9
:102D3000F0BC0348FEF70CB808000240080402404B
:102D40001802002070B5040004D094F83900002562
:102D500010B106E0012070BD84F83850204600F024
:102D600023F8242084F839002068C16821F4005138
:102D7000C160204600F068FF2068016921F490419D
:102D800001612068416921F02A0141612068C16820
:102D900041F40051C160E563202084F8390084F8D3
:102DA0003A00002070BD000070B586B00024009489
:102DB0000194029403940646354D03683549022078
:102DC0000322AB4222D1CB6943F40033CB61CB6900
:102DD00003F4003304938B6943F004038B61896926
:102DE0002D4D01F0040104910421CDE9001003925E
:102DF00069462846FEF7CCFE0820CDE90004694666
:102E000028460294FEF7C4FE06B070BD234DAB42C7
:102E1000FAD1CB6943F48023CB61CB6903F48023DF
:102E200004938B6943F010038B618969039201F06D
:102E3000100104912915CDE90010194D6946284665
:102E4000FEF7A6FEE814CDE9000469462846029480
:102E5000FEF79EFE1348416821F0300141F0E06129
:102E600041F010014160114D0F48C5E90004802078
:102E7000C5E9024020202C61C5E905402846EC61E7
:102E8000FEF712FE08B1FDF7D4FF75636E62BBE773
:102E9000004400400010024000080140004800408B
:102EA0000010014000000140300002406C0500208D
:102EB00030B40368DC6844F01004DC6030BC00F01F
:102EC00087BEFEE770B50D4C0025C4F888510C484C
:102ED000016821F470410160016841F440510160D2
:102EE000C4F88C51022004F5C47401F0F5FC0120F3
:102EF0002060022001F0F0FC256070BD000022423D
:102F0000001001400D4810B5816986B041F01001F4
:102F100081618069012400F0100004900C20CDE94B
:102F200000040320039069460548FEF731FE05487A
:102F3000C0F88841C0F88C4106B010BD00100240B6
:102F4000001001400000224270B50D4C0025C4F86D
:102F500088510C48016821F470410160016841F416
:102F6000405101600126C4F88C61022004F5C4744C
:102F700001F0B2FC2660022001F0AEFC256070BDBD
:102F800000002242001001402DE9F0478146174819
:102F90000024016821F470410160016841F400419E
:102FA0000160134E254627464FF00108C6F8887188
:102FB000022001F091FCC6F888816006040ED6F864
:102FC0000C0108B1641CE4B2012001F085FC6D1C09
:102FD000EDB2082DEAD3B9F1000F04D0FFF772FF6C
:102FE0002046BDE8F087FFF7AFFFF9E7001001408A
:102FF000000022422DE9F04106461448016821F400
:1030000070410160016841F440510160104C00279B
:10301000C4F888713D464FF00108F009C4F88C01EE
:103020007006060E022001F057FCC4F888810220C9
:1030300001F052FCC4F88871022001F04DFC6D1CB7
:10304000EDB2082DE9D3BDE8F08100000010014089
:103050000000224270B50D48016821F47041016002
:10306000016841F440510160094C0120C4F88C0111
:10307000C4F88801042004F5C47401F02DFC002577
:103080006560042001F028FC256070BD001001403F
:103090000000224270B50D48016821F470410160C2
:1030A000016841F440510160094C0020C4F88801D6
:1030B000C4F88C01042004F5C47401F00DFC012552
:1030C0002560042001F008FC656070BD001001401F
:1030D0000000224270B513480024016821F47041B9
:1030E0000160016841F4004101600F4D0126C5F8FF
:1030F0008C61304601F0F0FBC5F88861012001F0D9
:10310000EBFB07E0641CE4B2FA2C03D9FFF7C2FF23
:10311000012070BDD5F80C010028F3D1C5F8880155
:1031200070BD0000001001400000224210B502F006
:103130005BF901F0E9FDBDE8104002F0B3B810B54D
:1031400000F009F8044601F0D9FC4FF4967002F043
:1031500007FA204610BD10B5FFF7D4FE80226B2180
:10316000682000F032F900226B21682000F02DF970
:10317000022000F0F3F8022000F0EAF8322000F01C
:103180000CF900223821682000F01FF900226A2182
:10319000682000F01AF900222321682000F015F9B8
:1031A00082223721682000F010F97521682000F094
:1031B00077F8712812D101226B21682000F005F9FF
:1031C00000226C21682000F000F9322000F0E5F8C0
:1031D00000210C2000F064F8482801D0012010BD27
:1031E00011220A210C2000F0F0F8022000F0B6F8BD
:1031F000022000F0ADF8002010BD00001CB56B46A9
:1032000006223B21682000F06DF800280DD1BDF8A2
:1032100000104ABA05490968CA80BDF8022052BAAE
:103220000A81BDF8042052BA4A811CBD6001002009
:103230001CB56B4606224321682000F053F8002895
:103240000DD1BDF800104ABA054909680A80BDF8D9
:10325000022052BA4A80BDF8042052BA8A801CBDAE
:10326000600100201CB56B46062203210C2000F0F3
:1032700039F804000AD10948BDF8001000688181BE
:10328000BDF80210C181BDF80410018211220A218B
:103290000C2000F09AF820461CBD000060010020C0
:1032A00070B50D460446FFF7D5FE6006000EFFF729
:1032B000A1FEFFF70FFF2846FFF79CFEFFF70AFF6E
:1032C000FFF7C8FE012000EB4400C0B2FFF792FEFA
:1032D000FFF700FF0020FFF757FE0446FFF7DAFE76
:1032E000204670BD2DE9F0411D4614460F460646A6
:1032F000FFF7B0FE7006000EFFF77CFEFFF7EAFE58
:1033000020B1FFF7C7FE0120BDE8F0813846FFF786
:1033100071FEFFF7DFFEFFF79DFE012000EB460088
:10332000C0B2FFF767FEFFF7D5FE09E0012C0DD014
:103330005FF00100FFF728FE641E05F8010BE4B200
:10334000002CF3D1FFF7A6FE0020DDE70020F1E717
:10335000C006020E1C21682000F037B8C006020E1D
:103360001B21682000F031B8BC2801D3012210E0F5
:10337000622801D302220CE02A2801D3032208E0AC
:10338000142801D3042204E00A2801D3052200E016
:1033900006221A21682000F018B810B504464FF430
:1033A0007A70844201D9044602E0042C00D204243D
:1033B000B0FBF4F0401EC2B21921682000F005F8FD
:1033C0006008BDE81040FFF7CFBF70B515460E4648
:1033D0000446FFF73FFE6006000EFFF70BFEFFF707
:1033E00079FE50B93046FFF705FEFFF773FE284619
:1033F000FFF700FEFFF76EFE18B1FFF74BFE01204E
:1034000070BDFFF747FE002070BD00003EB50024F0
:1034100010480094019402940D4984600160047383
:103420000475012505614FF460214460C161FDF719
:103430007FFD08B1FDF7FDFC0095CDE9015469461B
:103440000448FDF7F7FC002801D0FDF7F2FC3EBD73
:1034500000240140780300200F4810B50D49016099
:103460000321416000214FF4C0228160C0E90312B2
:10347000D2004261017641768176C176017741774B
:10348000FEF799F8002803D0BDE81040FDF7D1BC45
:1034900010BD000000640040EC0300200D4808B59A
:1034A000416941F0010141614069002200F00100E1
:1034B000009006210B20FEF7EDFC0B20FEF7DCFC54
:1034C000002206210D20FEF7E5FCBDE808400D2096
:1034D000FEF7D2BC0010024000B585B014220649A8
:1034E0006846FCF7DEFE0021684602F093F80349C7
:1034F000086005B000BD00005C6300088400002087
:103500002DE9F04186B000263548009601960296D6
:103510000396816941F020018161816901F02001F8
:103520000491816941F010018161816901F010010C
:103530000491816941F004018161816901F0040114
:103540000491816941F0080181618069254F00F093
:1035500008000490002201213846FEF709FC0122F0
:103560000C213846FEF704FCDFF87C8001220321A1
:103570004046FEF7FDFB002250214046FEF7F8FBD7
:103580000124022503950094CDE901466946384699
:10359000FEF7FEFA15486946CDE900503846029517
:1035A000FEF7F6FA0C20CDE900040320CDE9024035
:1035B00069463846FEF7ECFA532003958DE8510032
:1035C00069464046FEF7E4FA002206210720FEF78E
:1035D00061FC0720FEF750FC06B0BDE8F08100005A
:1035E0000010024000100140000C014000001110CA
:1035F000104810B50E4901604FF4827141604FF4DC
:10360000004181600021C1604FF400720161C0E996
:103610000512C1610162416281620A21C162FFF744
:1036200059F8002803D0BDE81040FDF702BC10BDDA
:10363000003001401404002010B592B000240F9413
:103640001C2168461094FCF745FE202107A8FCF7D2
:1036500041FE2648244901604721C0E9011444F68F
:103660001F61C0E9031444618461FFF7ACFA08B13B
:10367000FDF7DFFB0F940FA91C481094FFF7CCF85F
:1036800008B1FDF7D6FB6020CDE900040294039455
:10369000049405940822694614480694FFF72BFA0F
:1036A00008B1FDF7C6FB4FF4617001900C2269462A
:1036B0000E48FFF720FA08B1FDF7BBFB079408940A
:1036C00009944FF400500A94CDE90B4007A907482C
:1036D0000E94FFF777F808B1FDF7ABFB0348FFF74F
:1036E000E3F912B010BD0000002C01406C04002072
:1036F0001CB500240E4800940C4901940160472138
:10370000C0E901144FF6FF718461C160FFF7A5F8AD
:1037100008B1FDF78EFB0094694605480194FFF758
:103720007BF8002801D0FDF784FB1CBD0010004091
:10373000AC0400200C4810B50A4901604FF4E13197
:103740004160002181600C22C160C0E904128161E6
:10375000C161FFF7F7FA002803D0BDE81040FDF77C
:1037600068BB10BD00440040EC0400200C4810B5BC
:103770000A4901600B494160002181600C22C1604F
:10378000C0E904128161C161FFF7DCFA002803D0AF
:10379000BDE81040FDF74DBB10BD000000480040E3
:1037A0002C050020A0860100FEE7704710B50446F6
:1037B000082907D00C2904D11046FDF72AF8216802
:1037C000086410BD1046FDF724F82168C86310BDD9
:1037D0002DE9F05F14468946FCF711FE01462748A3
:1037E000FCF70DFE02F028FA80460146FCF7D5FDF5
:1037F0008346DFF88CA05D46504600F0A1FF012112
:10380000FCF73BFE4146FCF7C8FD4FF07E563146C3
:10381000FCF76BFD2946FCF768FD0746B9F5000F7C
:103820002ADB58463946FCF7EAFD05460121E060EF
:10383000FCF723FE2660C4E9040558463146FCF730
:10384000A6FD0121FCF719FE3946FCF7D8FD6060A2
:103850005D46504600F074FF0121FCF70EFE414624
:10386000FCF79BFD3146FCF795FD2946FCF73DFD35
:103870003946FCF7C4FDA060BDE8F09FDB0F49406E
:10388000DB0F493F012001F0B9FEFBE710B55020E6
:1038900080F31188BFF34F8FBFF36F8F02F07AFC74
:1038A00018B104494FF080500860002080F311885F
:1038B00010BD000004ED00E070B59CB038216846F2
:1038C000FCF708FD14210EA8FCF704FD202113A825
:1038D000FCF700FD012500242804CDE9020402269E
:1038E000CDE908600095059501940001CDE90A0431
:1038F0006846FEF7FDFC0F20CDE90E06A802CDE9D3
:103900001040129002210EA8FEF7BAFBA8031590F2
:10391000139613A8FEF7F0FA014805671CB070BDB6
:10392000000042421048016841F001010160416815
:103930000E4A1140416001680D4A11400160016862
:1039400021F480210160416821F4FE014160016899
:1039500021F0A05101604FF47F0181600021C1621C
:103960000449C00308607047001002400000FFF0E7
:10397000FFFFF6FE08ED00E00148FEF7E1BF0000A2
:10398000AC04002010B50448FEF7DAFF03480168D4
:10399000491C016010BD0000B00500206C00002033
:1039A000F0B50268194B1A4C1A4D1B4E4FF0804768
:1039B000984207D0B84205D0A04203D0A84201D017
:1039C000B04204D122F0700C4A6842EA0C029842DC
:1039D00007D0B84205D0A04203D0A84201D0B042DF
:1039E00003D122F44074CA6822434C6922F0800259
:1039F000224302608A68C2620A688262984201D1E8
:103A00000969016301214161F0BD0000002C014002
:103A10000004004000080040000C004010B501F018
:103A20001F030121046A99408C430462016A9A4091
:103A30001143016210BD000030B5026A22F001029C
:103A40000262026A4368846924F073050C682C439F
:103A500022F002058A682A430A4DA8420BD122F0BF
:103A60000805CA6823F440732A434D6922F0040212
:103A70001D438B692B434360846149684163026243
:103A800030BD0000002C014030B5026A22F0100267
:103A90000262026A436884690D6824F4E64444EAD9
:103AA00005248D6822F0200242EA05120B4DA8423F
:103AB0000ED1CD6822F0800242EA05124D6923F44E
:103AC000406343EA85038D6922F0400243EA85039F
:103AD0004360846149688163026230BD002C01400B
:103AE00030B5026A22F480720262036A4268C469D5
:103AF00023F4007324F073050C682C438D6843EAAB
:103B000005230C4DA8420ED1CD6823F4006343EA8F
:103B100005234D6922F4405242EA05128D6923F4CF
:103B2000806342EA05124260C4614968C16303626E
:103B300030BD0000002C014030B5026A22F48052F2
:103B40000262046A4268C3690D6823F4E64343EAEB
:103B500005238D6824F4005444EA0534064DA84238
:103B600004D14D6922F4804242EA85124260C36169
:103B700049680164046230BD002C014010B590B06A
:103B8000142211496846FCF78CFB0021684601F0BD
:103B900041FD0E4C0C4914222060143105A8FCF79D
:103BA00080FB002105A801F035FD07496060142263
:103BB00028310AA8FCF775FB00210AA801F02AFDAC
:103BC000A06010B010BD000020630008600000205D
:103BD000F8B5044690F83A00202833D179B372B38F
:103BE00094F8380001282DD0012084F83800A16213
:103BF000A2850025E563222084F83A00606B134615
:103C000045630846666B216802463046091DFDF78C
:103C100089FF206801684168009184F83850C168C4
:103C200041F48071C1602068416941F00101416146
:103C30002068416941F0400141610020F8BDFFE783
:103C40000120FBE70220F9E72DE9F0410446006876
:103C50000169E26821F44051114301612169A068C2
:103C60000843616908432168CA6841F20C639A43BA
:103C70000243CA6020684169A26921F4407111437E
:103C800041611E49206864253226884202D1FEF730
:103C9000BDFA01E0FEF7AAFA00EBC00101EB00114A
:103CA00060686FF018078000B1FBF0F2B2FBF5F22C
:103CB000B1FBF0F37A4303EB8202B1FBF0F306EBC6
:103CC0000212B2FBF5F2B3FBF5F302F0F00202EBE5
:103CD0000312B1FBF0F3B1FBF0F0B0FBF5F0784369
:103CE00003EB800006EB0010B0FBF5F0216800F05C
:103CF0000F0010448860BDE8F081000000380140EA
:103D00000148FEF7B9BF00002C050020FEE70000C7
:103D10002DE9FC41284800F0EFFC284E0027CDE9B2
:103D20000076274B3A462749274801F0DEFC274C0E
:103D3000274D2548CDE900544FF0804843460022E6
:103D40002449683001F0D1FC1F48CDE900760023FA
:103D50001A462149343001F0C8FC1B48CDE9005413
:103D600000231A461D499C3001F0BFFC1648CDE9DE
:103D7000005400231A464146D03001F0B6FCCDE98C
:103D8000005400231A464146154801F0AEFCFCF7EA
:103D900085FFFFF7D4F9642212491348FFF788F82A
:103DA00000F0CCFD02B0114BBDE8F041104A1149C2
:103DB000114801F0D2BE0000EC0300200000C84210
:103DC000CDCC4C3ECDCCCC3E400200200060EA463B
:103DD0000000964300007042CDCC4C3F00002042D2
:103DE00044030020B40100202C05002000006144A1
:103DF000000096446F12833A2C020020490050EADA
:103E0000C12018BF04204A0D18BF40F0010040F245
:103E1000FF72B2EB515F08BF40F00200012808BFFB
:103E2000052070474100080218BF04200A0E18BF81
:103E300040F001004FF07F4232EA010108BF40F03C
:103E40000200012808BF052070470907090E002855
:103E500004DB00F1E02080F80014704700F00F0050
:103E600000F1E02080F8141D70472DE9F0414F1E4D
:103E700000EBC7010446D1E9000115461E4637F0A4
:103E800006020DD02A463346FCF7AAFB7F1E04EB40
:103E9000C703D3E90023FCF7FCFA37F00602F1D19F
:103EA000022F25D0042F13D0062F18BFBDE8F081B4
:103EB0002A463346FCF794FBD4E90A23FCF7E9FAD7
:103EC0002A463346FCF78CFBD4E90823FCF7E1FAD9
:103ED0002A463346FCF784FBD4E90623FCF7D9FADB
:103EE0002A463346FCF77CFBD4E90423FCF7D1FADD
:103EF0002A463346FCF774FBD4E90223FCF7C9FADF
:103F00002A463346FCF76CFBD4E90023BDE8F041B8
:103F1000FCF7BFBA0122FCF7BEBDFCF7BABA00221B
:103F2000134610461146FCF7CDBB0000024A0020A4
:103F30001107FCF7B0BD000001FDFFFF0121FCF7F8
:103F40009CBA00210846FCF75ABA6FF05E010807D8
:103F5000FCF793BA2DE9F04D0D4614464FF07F4122
:103F6000B1EB440F9EBF4FF0FF312960BDE8F08DEB
:103F70004FF0004040EA0421C4F3C750783810F0F5
:103F80001F024A4B4FEA601CC2F120067B44C4F377
:103F9000C750A0F178004FEA601003EB800053F89F
:103FA0002C3008BFD0E901C612D0D0F804C093402D
:103FB0002CFA06F73B4387680CFA02FC27FA06F84E
:103FC000C06807FA02F2F0404CEA080C42EA000628
:103FD000A3FB0132ACFB01C0A6FB016101EB0C06A7
:103FE0008E4234BF4FF0010C4FF0000CC1186144F9
:103FF000BCF1000F02D0814202D903E0814201D21C
:10400000012000E00020104400F120024FEA921845
:104010008006CA0C40EA42304F03C5F80080FCF726
:10402000C0FB82463846FCF7C5FB6FF01201FCF777
:1040300024FA07463046FCF7BDFB6FF02501FCF77C
:104040001CFA834639465046FCF74FF95946FCF7AF
:104050004CF900F500666FF30B0651463046FCF74D
:1040600096F93946FCF793F95946FCF793F910494C
:10407000FCF793F907460F493046FCF78EF93946AD
:10408000FCF733F907460C493046FCF786F9394608
:10409000FCF72BF914F0004F08BFBDE8F08DC8F114
:1040A000805180F000402960BDE8F08DE8240000D8
:1040B000DB0FC92F22AAFD290000C92F02E008C882
:1040C000121F08C1002AFAD170477047002001E092
:1040D00001C1121F002AFBD170470000014908608E
:1040E00070470000B00100202DE9F04D8D4F21F008
:1040F000004A86B005460C46BA452ADBAAEB070003
:1041000028430AD08848824501DC1AD1CDB106B0D7
:104110002846BDE8F04DFFF7FDBE844A844B284693
:10412000FCF75EFA07460E46824A834B2846214634
:10413000FCF756FA06B03A463346BDE8F04DFCF7B8
:10414000A8B90120FFF7CAFF06B0BDE8F04DFFF7A0
:10415000E6BE7A48824542DABAF1795F0BDA284640
:10416000FFF74CFE042808BFFFF7E0FE284606B024
:104170002146BDE8F08D2A460B461046FCF730FA82
:10418000834602466E480E460B4606217844FFF7EA
:104190006CFE5A463346FCF723FA804669488A4645
:1041A0005A46334604217844FFF75FFE5A463346A9
:1041B000FCF716FA00223B46FCF76BF902460B4669
:1041C00040465146FCF77EFA2A462346FCF708FA99
:1041D00006B02A462346BDE8F04DFCF75AB92846FA
:1041E00024F0004100223D463B46FCF7F6F94FF033
:1041F000FF32FCF750FC0646024653480F460B467A
:1042000006217844FFF731FE32463B46FCF7E8F9D9
:10421000CDE900014D4832463B4604217844FFF782
:1042200024FE32463B46FCF7DBF900222B46FCF726
:1042300030F9834602913046394601F0D7FC80467A
:1042400043480D46504517DCDDE900015A46029B04
:10425000FCF738FA42462B46FCF7C2F942462B4699
:10426000FCF717F90122FCF716FC304A304BFCF73B
:10427000B1F9304A304B4CE04FF0000A52460B4641
:104280004046FCF706F9CDE9031052462B4610468E
:104290001946FCF7A5F932463B46FCF79EF9DDE9E5
:1042A0000332FCF70FFA06460F46DDE900015A46D5
:1042B000029BFCF707FA83460091012230463946FB
:1042C000FCF7E9FB194A1A4BFCF787F906460F463B
:1042D000012240462946FCF7DEFB5A46009BFCF7CC
:1042E0007FF932463B46FCF775F906460F46012238
:1042F00050462946FCF7CFFB0E4DDFF858802A4682
:104300004346FCF76AF932463B46FCF766F92A4613
:104310004346FCF762F9002CD8BF81F0004106B09B
:10432000BDE8F08D0000F03F0000F07F075C143323
:1043300026A6913C182D4454FB21F93F0000E03F94
:10434000F82100000E2200008221000098210000C8
:104350003333EF3FFB21E93F2DE9F84F04460D468B
:1043600021F0004000917349814211DC724988427A
:1043700001DC06D12CB120462946BDE8F84FFFF7F5
:10438000C9BD6E48002DCCBF6D496E49BDE8F88FA0
:104390006D49814211DD6D498142D8BF4FF0FF3632
:1043A0006DDD20462946FFF729FD042808BFFFF7E9
:1043B000BDFD20462946BDE8F88F6549654F25F0CB
:1043C0000045814233DD6449814219DD00263246D1
:1043D0004FF0804320462946FCF75BF880468A462A
:1043E000012220462946FCF756FB00223B46FCF7FB
:1043F000F1F842465346FCF765F904460D463EE0A7
:1044000001260022BA463B4620462946FCF741F8E1
:1044100080460F460022534620462946FCF7DAF82C
:1044200042463B46FCF74EF904460D4627E04B4911
:1044300081421BDDDFF828A10226002253462046D8
:104440002946FCF7CDF800223B46FCF722F88046CF
:104450000F460022534620462946FCF7BBF8424649
:104460003B46FCF72FF904460D4608E0032622469A
:104470002B4600203B49FCF725F904460D46224611
:104480002B4610461946FCF7ABF88B46824602468F
:104490000B46FCF7A5F807460246334888460B460C
:1044A00006217844FFF7E1FC52465B46FCF798F89A
:1044B00082462E488B463A46434605217844FFF70C
:1044C000D4FC3A464346FCF78BF802460B46002ED6
:1044D000504659460CDAFBF7DCFF22462B46FCF728
:1044E0007FF801B022462B46BDE8F04FFCF775B8C7
:1044F000FBF7CFFF22462B46FCF772F81C4A7A44A2
:1045000002EBC603D3E90023FCF764F822462B46EE
:10451000FCF760F8174A7A4402EBC603D3E900239C
:10452000FCF75BF8009A002AB8BF81F00041BDE8B3
:10453000F88F0000000010440000F07F182D445454
:10454000FB21F93FFB21F9BF0000DC3F0000203ECA
:104550000000F33F0000F03F0000E63F0080034012
:104560000000F83F0000F0BF9A1F0000581F000035
:10457000F61E0000BE1E00002DE9F04D9446CCF161
:10458000000423F000464CEA0404524F46EAD47477
:104590009A46884621F00042BC4206D8454240EA8D
:1045A000050442EAD474BC4204D9BDE8F04D624629
:1045B000FFF7B3BCAAF14055A5F17F6555EA0C049D
:1045C0000BD0022404EAAA74434DDFF810E144EA58
:1045D000D87452EA000B04D00CE0BDE8F04DFFF7B0
:1045E000BBBE002C14BF012CBDE8F08D022C30D0D6
:1045F000032C32D056EA0C0B0AD0BE4220D1BA426C
:1046000009D126F0804622F080423346114617E059
:1046100000291ADB25E0DFF8C8B0FB44002C04BFFA
:10462000DBE90001BDE8F08D012C02BFDBE90001F0
:1046300081F00041BDE8F08D022C0AD0032C0CD093
:10464000BA4212D1B8F1000F0BDA23482549BDE870
:10465000F08D28462449BDE8F08D28467146BDE816
:10466000F08D1D482149BDE8F08D921B12153C2AA2
:10467000C4BF19481D490EDCBAF1000FBEBF12F1CC
:104680003C0F0020014606DB6246FCF71BF821F0D8
:104690000041FFF761FE002C08BFBDE8F08D012C42
:1046A00004BF81F00041BDE8F08D114A114B022C8E
:1046B00007D0FBF78FFF2A46BDE8F04D0A4BFBF70A
:1046C00089BFFBF787FF2A46BDE8F04D064BFBF795
:1046D00084BF00000000F07F182D4454FB2109C066
:1046E000521E0000FB21F9BFFB210940FB21F93FCD
:1046F000075C143326A6A13C10B58AB00021012224
:104700000446CDE90612039104910E20CDE908205C
:10471000059100910191029169462046FCF752FDF6
:104720002046FDF769F802212046FCF7D5FC0AB0C7
:1047300010BD000001490020086070476C00002097
:104740002DE9F843044602464F486946B0EB420F54
:1047500009D94FF0E640B0EB420F94BF00204FF074
:10476000FF30009030E0494B22F00040834271D985
:1047700047492046FBF711FEFCF712F98046FCF78B
:104780002FF800F00300009042494046FBF705FE79
:10479000054641494046FBF700FE06463F49404674
:1047A000FBF7FBFD07463E494046FBF7F6FD214679
:1047B000FBF7F0FD3946FBF7EAFD3146FBF7E7FD75
:1047C0002946FBF7E4FD04462546009C002C45DB0A
:1047D000294614F0010F08461CD0FBF7DEFD064603
:1047E0003049FBF7DAFD3049FBF7D4FD3146FBF7E2
:1047F000D4FD2E49FBF779FD3146FBF7CEFD294666
:10480000FBF7CBFD2946FBF770FD14F0020F1CD01F
:10481000BDE8F883FBF7C1FD05462549FBF7BDFD63
:104820002449FBF762FD2946FBF7B7FD2249FBF758
:104830005CFD2946FBF7B1FD4FF07E51FBF755FDBE
:1048400014F0020F08BFBDE8F88380F00040BDE817
:10485000F883FFE71046FFF77DFBB4E76800B0F18F
:104860007F4F3CBF4FF07E50BDE8F88307D14FF03B
:104870000100FFF733FCBDE8F843FFF762BB2846B1
:10488000BDE8F843FFF75ABBB61F927E490E494672
:1048900083F9223F1A61342C0020A23300A0FD3995
:1048A0000000C93F336D4C39DA82083CA0AA2ABE09
:1048B000B93AB2BACA9F2A3DDDFFFFBE70B50546C0
:1048C00000244FF47A7603E0304600F005F8641CCB
:1048D000AC42F9D370BD000070B54FF6FA710A4DC5
:1048E000081A84B2286844622846FDF7EFFF4FF6A5
:1048F000F971286801E0426A94B28C42FBD3BDE8AA
:1049000070400148FEF705B8AC04002010B5FBF775
:1049100051FF0246BDE8104008210148FEF746BF9E
:104920006C04002010B5FBF745FF0246BDE81040BF
:104930000C210148FEF73ABF6C04002010B5082195
:104940000748FEF771F90C210548FEF76DF9044898
:104950004FF461710268D1630068016410BD00000A
:104960006C04002010B5064C082122460548FEF7CD
:104970001DFF2246BDE810400C210248FEF716BF7D
:10498000000061446C04002001480068704700008A
:104990006C0000204B4DDFF830814C4C4FF42579F2
:1049A000287A032805D000F071F90022114610463C
:1049B00084E000F073F94646B8F80400FBF7FAFE0D
:1049C00002464349434800F03CFE308AFBF7F2FEC2
:1049D00002464149414800F034FEB5F90400411D4A
:1049E0000B2913D33E49484390FBF9F000F6CA0067
:1049F0002080B088FBF7DEFE0746B4F90000FBF725
:104A0000D0FE01463A46334800F01BFEB5F90600D9
:104A1000411D0B2913D33349484390FBF9F000F5AE
:104A200016606080308AFBF7C5FE0746B4F90200C5
:104A3000FBF7B7FE01463A46284800F002FE25483B
:104A4000016B29480268294800F0FBFD2348016BEF
:104A500027480268274800F0F4FD687A032818D137
:104A60000020A080B5F90000052812DD00EB8001D0
:104A7000C1EB0040A080B6F91E00FBF792FE06468F
:104A8000B4F90400FBF78DFE014632461A4800F0E7
:104A9000D8FD1948006BFBF7A3FE07B21548006B61
:104AA00080F00040FBF79CFE06B21048006B80F0DF
:104AB0000040FBF795FE00B23A46314601F054F84B
:104AC0006EE7000018020020020000207C00002099
:104AD00000A00C4574020020000016454002002092
:104AE00030F8FFFF24FAFFFF70000020DC020020F6
:104AF00074000020A8020020100300202DE9F05FC0
:104B00003E4C3F4E3F4D6068DFF8FC80DFF8FC9084
:104B1000B0F90610B0F90800DFF8F4A0DFF8F4B03F
:104B2000002935DA3C4F00281ADA91FBF0F0FBF748
:104B300046FE21F000410022384BFBF791FE05D8DC
:104B4000A660E56036482061364806E03648A06039
:104B50003648E060C4F8108035486061BDE8F09FD9
:104B6000FCDD91FBF0F0FBF72AFE21F00041002272
:104B70002A4BFBF775FEA76004D8E560C4F81090D7
:104B80002C48EAE7C4F80CA0C4F810B02A48E4E7BF
:104B9000E4DD2A4F002818DD91FBF0F0FBF70FFE53
:104BA00021F0004100221D4BFBF75AFE06D8244895
:104BB000A060C4F80C9025616661CFE72148A06031
:104BC000C4F80CB0C4F810A0C7E7C7DA91FBF0F046
:104BD000FBF7F5FD21F000410022104BFBF740FEF2
:104BE000A76004D81848E06025611848B5E7C4F804
:104BF0000C80174820611748AFE7000060010020D3
:104C00000AD7A3BBA8C64BBEE17A543F355E7ABF34
:104C100068910DBFE17A54BF0AD7A33B0000F03F73
:104C2000BE9F7A3F4ED111BC6F1203BC7B140EBFE6
:104C30006F1203BBA69B443C99BB16BB0AD7233B10
:104C400052499D3A99BB163B355E7A3F6F12033C41
:104C5000295C0FBFBC74933B10B504464FF0FF3185
:104C6000FBF70BFC0849A1EB64042146FBF795FB1D
:104C70002146FBF792FB4FF07F51FBF78BFB214660
:104C8000BDE81040FBF789BBDF59375F00220121E7
:104C90000148FDF76DB800000010014001221146E7
:104CA0000148FDF765B8000000100140FDF774F8F9
:104CB000FEF702FEFEF724FCFEF7F0FBFEF73AFDDE
:104CC000FEF7A4FBFEF794FCFEF750FDFEF7C4FBD5
:104CD000FEF70EFDFEF7B0FC002206212720FDF7AF
:104CE000D9F82720FDF7C8F8FFF712F8FEF746FFBE
:104CF000FEF7F2FB00F089FCFEE701460020842964
:104D000000D0C81C704700002DE9F04FFE4C95B054
:104D1000A168A068FBF741FB0A90E168A068FBF777
:104D20003CFB21698246A068FBF737FB616983463B
:104D3000A068FBF732FBE1688146E068FBF72DFBDA
:104D400006902169E068FBF728FB0C906169E06838
:104D5000FBF723FB059021692069FBF71EFB0390FD
:104D600061692069FBF719FB079061696069FBF7CE
:104D700014FB02906568286960626869A062A8698E
:104D8000E062B5F90000FBF70CFD2063B5F9020005
:104D9000FBF707FD6063B5F90400FBF702FDA063B4
:104DA000B5F90600FBF7FDFCE063B5F90800FBF779
:104DB000F8FC2064B5F90A00FBF7F3FC6064FCF72B
:104DC000DDFFE064E06CA16C401AFBF7F3FCCF4917
:104DD000FBF715FB0090E06CA064A16BA06BFBF7E8
:104DE000DCFA616B0646606BFBF7D7FA216B054670
:104DF000206BFBF7D2FA2946FBF777FA3146FBF72F
:104E000074FAFFF729FF05460146206BFBF7C5FA48
:104E100020632946606BFBF7C0FA60632946A06BEC
:104E2000FBF7BBFAA0630020E0632064606459468E
:104E30000598FBF75AFA05460F900121606CFBF7C5
:104E40001CFB2946FBF7A9FA074649460C98FBF7D5
:104E50009EFA054610900121206CFBF70EFB2946B7
:104E6000FBF79BFA06464FF07C5840460399FBF748
:104E70008EFA0299FBF78BFA054611900121E06B3F
:104E8000FBF7FBFA2946FBF788FA3146FBF72DFAC8
:104E90003946FBF72AFA074651460798FBF777FA97
:104EA00005460121606CFBF7E8FA2946FBF775FA25
:104EB000064640460699FBF76AFA80460299FBF7D8
:104EC00066FA05460121206CFBF7D7FA2946FBF765
:104ED00064FA054649460C98FBF707FA814601211A
:104EE000E06BFBF7CAFA4946FBF757FA2946FBF78E
:104EF000FCF93146FBF7F9F9064640460399FBF702
:104F000046FA05460C900121606CFBF7B6FA29467B
:104F1000FBF743FA804651460798FBF7E6F905464A
:104F200007900121206CFBF7A8FA2946FBF735FA18
:104F3000054659460598FBF72AFA81460121E06BA0
:104F4000FBF79BFA4946FBF728FA2946FBF7CDF910
:104F50004146FBF7CAF9054631460846FBF71DFAFC
:104F6000064639460846FBF718FA3146FBF7BDF905
:104F7000FBF763FC00F03AFEFBF78AFC80464846EC
:104F80000121FBF77AFA074601210798FBF775FA2A
:104F9000049006990A98FBF7FAF90399FBF7F7F9D9
:104FA0000299FBF7A2F983464E4601212846FBF7FA
:104FB00064FA31460990FBF7F0F9064601214046B4
:104FC000119DFBF75AFA80462946FBF7E6F9314670
:104FD000FBF78BF9824607990998FBF7DEF905463E
:104FE00040461099FBF7D9F92946FBF77EF981462F
:104FF0000C990998FBF7D1F9054640460F99FBF744
:10500000CCF92946FBF771F906464946606CFBF777
:10501000C4F905463146206CFBF7BFF92946FBF77A
:10502000B6F905460499A06BFBF7B7F980465946D7
:10503000606BFBF7B2F94146FBF7A9F92946FBF78C
:1050400054F980463146E06BFBF7A7F90546514617
:10505000606CFBF7A2F92946FBF799F9054659461A
:10506000206BFBF79AF906463946A06BFBF795F9DA
:105070003146FBF78CF92946FBF737F906465146CE
:10508000206CFBF78AF905464946E06BFBF785F98A
:105090002946FBF77CF905463946606BFBF77DF93D
:1050A00007460499206BFBF778F93946FBF76FF94F
:1050B0002946FBF71AF9054618F0FF4F4FD016F0B6
:1050C000FF4F4CD015F0FF4F49D0114F40463946A5
:1050D000FBF763F90099FBF760F9A169FBF705F9A4
:1050E000A06139463046FBF758F90099FBF755F9AE
:1050F000E169FBF7FAF8E06139462846FBF74DF91C
:105100000099FBF74AF905E0600100200000FA442D
:105110000AD7233C216AFBF7E8F8206201214046C8
:10512000FBF7ABF9616AFBF7E0F8A169FBF7DDF883
:10513000606201213046FBF7A0F9A16AFBF7D5F8C0
:10514000E169FBF7D2F8A06201212846FBF795F947
:10515000E16AFBF7CAF8216AFBF7C7F8E062E16A87
:105160006069FBF71AF9A16A06462069FBF715F991
:105170000546E068616A80F00040FBF70EF92946B9
:10518000FBF705F93146FBF702F90099FBF705F942
:10519000A168FBF7AAF8A16A80466069FBF7FDF8F1
:1051A000E16A06462069FBF7F8F8616A0546A068DF
:1051B000FBF7F3F82946FBF798F83146FBF7E7F8D9
:1051C0000099FBF7EAF8E168FBF78FF8616A074698
:1051D0006069FBF7E2F8E16A0646E068FBF7DDF894
:1051E000A16A0546A068FBF7D8F82946FBF7CFF877
:1051F0003146FBF77AF80099FBF7CFF82169FBF706
:1052000074F8616A06462069FBF7C7F8A16A81460F
:10521000E068FBF7C2F8E16A0546A068FBF7BDF855
:105220002946FBF762F84946FBF7B1F80099FBF70E
:10523000B4F86169FBF759F805460146FBF7ADF88C
:10524000834631460846FBF7A8F8824639460846A9
:10525000FBF7A3F8814641460846FBF79EF849460E
:10526000FBF743F85146FBF740F85946FBF73DF88A
:10527000FFF7F2FC814601464046FBF78EF8A0603E
:1052800049463846FBF789F8E06049463046FBF767
:1052900084F8206149462846FBF77FF8606115B025
:1052A000BDE8F08F2DE9F0474C4C01216069FBF718
:1052B000E4F86169FBF771F805464FF04048414654
:1052C0002069FBF76AF82169FBF767F82946FBF7C5
:1052D0005EF84FF07E594946FBF707F8FBF7ADFA49
:1052E00006460D460121A068FBF7C7F86169FBF788
:1052F00054F807460121E068FBF7BFF82169FBF786
:105300004CF83946FAF7F1FFFBF797FA32462B468D
:10531000FFF732F9324E4FF0663A52463346FBF70A
:105320005FF9FBF7B5FA6168C8630121A068FBF774
:10533000A4F82169FBF731F805464146E068FBF720
:105340002CF86169FBF729F82946FAF7CEFFFBF73D
:1053500074FAFEF7C9FE52463346FBF741F9FBF7F4
:1053600097FA6168886301212069FBF786F8216953
:10537000FBF713F805464146E068FBF70EF8E168D5
:10538000FBF70BF82946FBF702F84946FAF7ADFFA1
:10539000FBF753FA06460D460121A068FBF76DF8AE
:1053A000E168FAF7FAFF074601212069FBF765F883
:1053B0006169FAF7F2FF3946FAF797FFFBF73DFA12
:1053C00032462B46FFF7D8F85246064BFBF708F952
:1053D000FBF75EFA61684863BDE8F0876001002072
:1053E00066A64CC066A64C402DE9F041FDF706FFCD
:1053F000FDF71EFFFDF736FF4E4C216808884A8BEB
:105400008B8B801A4A8800B2D21A15B28A88C98B4F
:10541000511A0EB2FBF7C5F9474A4849FBF709FC98
:10542000616888652846FBF7BCF94449424A18314F
:10543000FBF7FFFB6168C8653046FBF7B2F93F49EF
:105440003D4A3031FBF7F5FB61683D4A0866886DDF
:105450003C49FBF7EEFB6168394A4866C86D39493B
:105460001831FBF7E6FB6168354A8866086E3549F6
:105470003031FBF7DEFB6168C8662068B0F90600D2
:10548000FBF78FF9304A3149FBF7D3FB61680864B9
:105490002068B0F90800FBF784F92C492A4A183132
:1054A000FBF7C7FB616848642068B0F90A00FBF7A6
:1054B00078F92649244A3031FBF7BBFB6168244A5E
:1054C0008864086C2349FBF7B4FB6168204AC86410
:1054D000486C20491831FBF7ACFB61681C4A086531
:1054E000886C1C493031FBF7A4FB64681A4D606579
:1054F0002946606EFAF783FF184F80463946FAF75F
:105500007EFF20612946A06EFAF779FF06463946EC
:10551000FAF775FF60612946E06EFAF770FF0546FD
:105520003946FAF76CFFC4F82880A061C4E90B651E
:10553000BDE8F081600100204801002048180020EB
:1055400018010020901800203001002000180020D1
:1055500000010020B81700206F12834133336542E9
:1055600070B506460025244C21E000BFFDF746FE3D
:10557000FDF75EFE2168888ACA8810448882C88A3E
:105580000A891044C882088B4A8910440883488BD2
:105590000A8810444883888B4A8810448883C88BC3
:1055A0008A881044C8830520FFF788F96D1CB5422E
:1055B000DCDB20684FF49671B0F9142092FBF1F215
:1055C0008282B0F9162092FBF1F2C282B0F9182063
:1055D00092FBF1F20283B0F91A2092FBF1F24283BE
:1055E000B0F91C2092FBF1F28283B0F91E2092FBED
:1055F000F1F1C18370BD00006001002010B500B959
:10560000012000F0A9FC002010BD10B500F0CAFC7C
:10561000002010BD3EB504460D46B0F90800FFF766
:105620006CFB02A9CDE90001208A2B4682B2D4E9A5
:10563000001000F083FD012801D000203EBD02983B
:105640003EBD2DE9F04104460846C4E90502E5697E
:1056500011462562FAF79BFE0746E061394620684D
:10566000FAF79BFE606239466068FAF796FEA16A17
:10567000FAF73BFE0646A0623946A068FAF78DFEAF
:105680002946FAF784FEE062E068314680F0004087
:10569000FBF724F903D8E06880F0004107E0E168F7
:1056A000A06AFBF71BF901D8E16800E0A16AA162DA
:1056B000606AFAF71AFEE16AFAF717FE01462063FC
:1056C000206980F00040FBF709F903D8206980F0D9
:1056D000004007E02169206BFBF700F901D8206941
:1056E00000E0206B2063BDE8F08130B5DDE90345C3
:1056F00080E83E0030BD00002DE9F041184C0F4617
:10570000054666692068001D00F06CFB38B920680A
:1057100090F82C1001208840A1698143A161681C88
:1057200007D137B12168BDE8F0410E48091D00F0EE
:1057300092BB20683544B5424560216805D2A06817
:10574000BDE8F041091D00F06EBB6068091D00F066
:105750006AFB206B854200D22563BDE8F081000022
:1057600098000020CC0600202DE9F041054600F00D
:105770007FFB2E4C2069401C206120682C4F10B10B
:10578000E06940B32DE025602069012829D1002679
:1057900006EB860007EB800000F037FB761C072E37
:1057A000F6D323488C3000F030FB2148A03000F0C5
:1057B0002CFB1F48B43000F028FB1D48C83000F017
:1057C00024FB1B48DC3000F020FB19488C30606063
:1057D0001430A06005E02068E96AC06A884200D8F9
:1057E0002560E06A401CE0626864E96A0120A26901
:1057F00088401043A06101EB810007EB8000291D68
:1058000000F029FB00F054FBE06900280CD0206870
:10581000E96AC06A884207D206494FF080500860A2
:10582000BFF34F8FBFF36F8FBDE8F081980000206A
:10583000F005002004ED00E010B50446006B00F018
:105840004BFB2046BDE8104000F046BB10484FF42B
:105850008051420706D0C01D0D4920F00700411AB3
:10586000C1F580510B4A00230144C2E90003083905
:10587000103A21F0070111604B600B600B1AC0E970
:10588000001393604FF000405360D06070470000F9
:10589000E0060020EC000020144E154CA6F1C807CD
:1058A0004FF08058DFF84C9012E000BF00F0E0FAB3
:1058B000F068C568281D00F095FA2069401E206137
:1058C000E068401EE06000F0F3FA2846FFF7B4FFFE
:1058D000E0680028EAD138680128F9D9C9F80080C1
:1058E000BFF34F8FBFF36F8FF2E70000B8060020C1
:1058F0009800002004ED00E02DE9F0470E46DDE9B8
:1059000009841746824691009946089DA522206B7E
:10591000FAF7D9FC6FF00301206B01EB8701084413
:1059200020F00707780707D0502080F31188BFF3D5
:105930004F8FBFF36F8FFEE72218315C82F834106F
:10594000315C11B1401C1028F6D3002684F8436066
:10595000072D00D30625E562C4E91356201D00F08B
:105960005FFA04F1180000F05BFA2461C5F107004A
:105970006462A0616665A66584F85C604A4651462B
:10598000384600F0BFF82060B8F1000F01D0C8F829
:105990000040BDE8F087000030B5114900E0114635
:1059A0000A688242FBD34B685C18844203D140688A
:1059B00018444860084643681C18944209D1084CB2
:1059C000103C2468A24209D052681A4442600A6816
:1059D00012680260814200D0086030BD0460F9E7BF
:1059E000EC00002006484168096829B14168C9688F
:1059F000C9684968016370474FF0FF31FAE700005A
:105A00009800002008484068401C4FF0500080F388
:105A1000118804D0BFF34F8FBFF36F8FFEE7BFF342
:105A20004F8FBFF36F8FFEE7F40000202DE9F041A8
:105A30000546002700F0ECFA314E306808B9FFF750
:105A400005FFF06805424BD1C5B3083568070ED095
:105A500005F00700C0F108000544680707D0502092
:105A600080F31188BFF34F8FBFF36F8FFEE72DB325
:105A70007068854234D82248103001460C6801E035
:105A800020460C466168A94202D221680029F7D15C
:105A900031688C4224D0076821680160606808374B
:105AA000411B10290FD96019420708D0502080F3FC
:105AB0001188BFF34F8FBFF36F8FFEE710E0416097
:105AC0006560FFF769FF61687068401A7060B268CE
:105AD000904200D2B060F06801430020C4E90001A8
