:020000040800F2
:1000000058380020C10100080F3A000847350008A1
:100010000D3A0008F7080008C55500080000000068
:10002000000000000000000000000000093E000881
:100030009D0A000800000000CB3B00080B3E0008B2
:10004000DB010008DB010008DB010008DB01000820
:10005000DB010008DB0100089F0A0008DB01000843
:10006000DB010008DB010008DB010008DB01000800
:10007000DB010008DB010008DB010008DB010008F0
:10008000DB010008DB010008DB0100085D09000856
:1000900051090008DB010008DB010008DB01000852
:1000A000DB010008DB010008DB010008DB010008C0
:1000B000E93E0008DB010008DB010008DB01000865
:1000C000DB010008DB010008DB010008DB010008A0
:1000D000DB0100083D47000855470008DB01000828
:1000E000DB010008DB010008DB010008DB01000880
:1000F000DB010008DB010008DB010008DB01000870
:10010000DB010008DB010008DB010008DB0100085F
:10011000DB010008DB010008DB010008DB0100084F
:10012000DB010008DB010008ED090008DB01000825
:10013000DB010008DB010008DB010008DB0100082F
:10014000DB010008DB010008DB010008113A0008B0
:10015000DB010008DB010008DB0100086147000843
:10016000DB010008DB010008DB010008DB010008FF
:10017000DB010008DB010008DB01000800000000D3
:10018000DB010008DB010008DB010008DB010008DF
:10019000DB010008DB010008DB010008DB010008CF
:1001A0000000000000000000DB010008DFF80CD0B8
:1001B00000F064FB00480047BD6D0008583800207F
:1001C0000648804706480047FEE7FEE7FEE7FEE7F1
:1001D000FEE7FEE7FEE7FEE7FEE7FEE7953E0008E6
:1001E000AD0100082DE9F05F0546002092469B46D0
:1001F00088460646814640241BE02846414647463D
:10020000224600F034FA53465A46C01A914110D3A0
:1002100011461846224600F01BFA2D1A67EB01081A
:100220004F4622460120002100F012FA17EB000988
:100230004E41201EA4F10104DFDC484631462A4627
:100240004346BDE8F09F40EA01039B0703D009E065
:1002500008C9121F08C0042AFAD203E011F8013BB2
:1002600000F8013B521EF9D27047D2B201E000F80B
:10027000012B491EFBD270470022F6E710B513464A
:100280000A4604461946FFF7F0FF204610BD2DE947
:10029000FE4F804681EA0300C00F0C46009021F01B
:1002A000004123F00045B8EB0200A94105D24046C9
:1002B000214690461C460B46024623F00040104360
:1002C00047D0270DC7F30A00C3F30A510290401A22
:1002D000019040286BDAC3F3130040F4801B0098B0
:1002E000924620B10023D2EB030A63EB0B0B01987B
:1002F0005946C0F14002504600F0AAF906460D46A4
:1003000050465946019A00F0C2F910EB08006141CD
:10031000002487EA115284EAE7731A4340D0009A16
:1003200062B3019A012A4FEA075215DC001B61EB08
:1003300002014FF0004202EA0752CDE90042001CE0
:1003400041F5801132462B4600F0F9F903B0BDE8C3
:10035000F08F40462146F9E7001B61EB0201001CCB
:1003600041F5801300185B412018A2F5001747EBF8
:10037000030140EAD570B6196D4111E06D084FEAEE
:10038000360645EAC0754FEA0752001B61EB0201D1
:10039000001C41F5801149084FEA30000019514115
:1003A00032462B4603B0BDE8F04F00F0B9B90098D3
:1003B000012240000023D0EB020263EBE0730098BF
:1003C00021464FEAE074B8EB000061EB0401E9E775
:1003D00083F000435BE781F0004158E72DE9FE4FD1
:1003E00081EA030404F0004421F0004100944FF03E
:1003F000000B23F0004350EA01045ED052EA0304EC
:100400005BD0C3F30A54C1F30A552C44A4F2F3346D
:100410000194A0FB0254C1F3130141F48011C3F312
:10042000130343F4801301FB024400FB034E840AD0
:10043000970A44EA815447EA8357A4FB0768029568
:100440008D0A05FB07854FEA932C04FB0C54270506
:10045000029D4FEA065847EA1637B5EB08056EEBE2
:10046000070C870E920E47EA811742EA8312A7FB18
:100470000201B6EB0B0164EB00042B0D43EA0C33D5
:100480005E1844EB1C50DA465146E7FB0201C5F307
:1004900013044FEA0B3343EA14534FEA0432019C2E
:1004A00043EA0603A4F10C040294009CCDE900B4D5
:1004B00000F045F903B0BDE8F08F00200146F9E7F0
:1004C0002DE9F04D81EA030404F0004B21F00045D2
:1004D00014464FF0000A23F0004150EA050220D0F4
:1004E00054EA01021DD0C5F30A570246C5F31303AF
:1004F000C1F31300C1F30A5640F4801543F480138E
:10050000A7EB0608101BD64608F2FD3873EB050072
:1005100002D308F1010801E092185B41B8F1000F25
:1005200003DA00200146BDE8F08D00204FF4801171
:10053000064684460EE0171B73EB050705D3121B16
:1005400063EB050306434CEA010C49084FEA30000F
:1005500092185B4150EA0107EDD152EA030012D034
:1005600082EA040083EA0501084305D0101BAB4171
:1005700006D20122002306E000224FF0004302E0F1
:100580006FF0010253101AEB06004CEB085110EB10
:100590000A0041EB0B01BDE8F04D00F0C1B80EB50B
:1005A000C10F80EAE0700844CA07002140F23343DB
:1005B0008DE80E000A460B4600F0C1F803B000BDFE
:1005C00000F0004230F000400AD0C10D01F560712A
:1005D000C0F3160042EA0151C208400711437047B8
:1005E000002001467047000030B5041E71F1000480
:1005F00004DB4FF00044404264EB0101141E73F130
:10060000000405DB1C464FF00043524263EB040339
:10061000994208BF904230BD01F0004330B421F050
:10062000004150EA010206D00A0DA2F56072C1F342
:100630001301002A02DC30BC00207047440F44EA5A
:10064000C104C100E01830BC00EBC25000F031B86A
:10065000202A04DB203A00FA02F100207047914082
:10066000C2F1200320FA03F3194390407047202A77
:1006700004DB203A21FA02F00021704721FA02F34C
:10068000D040C2F120029140084319467047202A09
:1006900006DBCB17203A41FA02F043EAE07306E0AA
:1006A00041FA02F3D040C2F12002914008431946BA
:1006B00070470029A8BF7047401C490008BF20F0C0
:1006C0000100704710B4B0FA80FC00FA0CF050EA58
:1006D000010404BF10BC704749B1CCF1200421FAD9
:1006E00004F411FA0CF118BF012121430843A3EBD4
:1006F0000C01CB1D4FEA00614FEA102042BF0020E1
:1007000010BC704700EBC35010440029A4BF10BCBC
:100710007047401C490008BF20F0010010BC704722
:1007200010B5141E73F1000408DA401C41F10001F9
:1007300092185B411A4301D120F0010010BD2DE950
:10074000F04D92469B4611B1B1FA81F202E0B0FA47
:1007500080F220329046FFF77BFF04460F4640EAC6
:100760000A0041EA0B0153465A46084313D011468A
:1007700053EA010019D0C8F140025046FFF777FF55
:1007800005460E46504659464246FFF761FF08436C
:1007900005D0012004E020463946BDE8F08D002058
:1007A000054346EAE0762C4337430A986305E40A9A
:1007B000A0EB08000022FD0A44EA47540A3002D5A3
:1007C00000200146E9E7010510196941DDE9084506
:1007D00000196941BDE8F04DA2E72DE9F04D002375
:1007E0001A461B1A8A4103DB00200146BDE8F08D42
:1007F000C1F30A52C1F3130141F480154FF0000B0D
:10080000D10702D100186D41521E0027044640F264
:10081000FF11384601EB620A3E4680460246002040
:100820004FF48011FFF723FFC2197141BB1846EB4B
:100830000100B4EB030C75EB000C04D3E41A65EB78
:10084000000517460E46241908F101006D41804647
:100850003428E3DDF91946EB0600091BA84103D251
:100860004FF0FF32134601E0002213461BEB070056
:1008700046EB0A51BDE8F04DFFF752BF064C074D5D
:1008800006E0E06840F0010394E807009847103460
:10089000AC42F6D3FFF78EFC50890008708900083F
:1008A00070B58C1810F8015B15F0070301D110F832
:1008B000013B2A1106D110F8012B03E010F8016B5F
:1008C00001F8016B5B1EF9D12B0705D40023521EE2
:1008D0000DD401F8013BFAE710F8013BCB1A921C4A
:1008E00003E013F8015B01F8015B521EF9D5A14248
:1008F000D8D3002070BDFEE7F0EE400AC0ED020A3A
:1009000091ED030AD1ED041A90ED011A20EE200AB0
:1009100090ED002AD0ED032A01EE810AD1ED051AEF
:1009200001EE820A91ED012AD0ED041A02EE610A6D
:1009300091ED022A02EE620A80ED050A80ED001AAE
:10094000C0ED010AC0ED031A80ED040A70470000F3
:10095000014800F048BA00004C010020014800F0B6
:1009600042BA00004C01002010B50A88C2F30A0206
:10097000A2F5806202804A788B78D20842EA43125C
:10098000C2F30A02A2F5806242808A78CB7892098B
:1009900042EA83020B7942EA8322C2F30A02A2F5F9
:1009A000806282800A794B79520842EAC312C2F30C
:1009B0000A02A2F58062C2804A79920902724A79DB
:1009C000C2F301124272CA8842810A8982814A892D
:1009D000C2810A7B02744A7B4274C989418200F059
:1009E00061FF0149086010BD20000020014800F0AF
:1009F000A3BC00003403002001681823CAB2103AD7
:100A0000B2FBF3F2054B6FF30901032A9B5CC3654C
:100A100000D9091D81650846704700002C85000833
:100A200010B5014600208B698A6A4FF0C07453B13B
:100A3000B3F5005F15D072B1012A0CD0022A0AD09A
:100A4000032A09D104E01AB1012A06D0022A03D1EF
:100A5000C96AC90100D5012010BDC96AA142FAD0F6
:100A600010BD002AF7D0012AF2D0022AF3D0032ABF
:100A7000F3D010BD30B50468256825F480252560C5
:100A8000046863608368402B036803D09960006842
:100A9000C26030BD9A600068C16030BD70470120FF
:100AA00000F0FCBD7047704780ED000AF0EE400A90
:100AB000B0EE401A5FF0090100EB8102D2ED001A9E
:100AC000F4EEC01AF1EE10FA02DDB0EE610A06E0B3
:100AD000F4EEE01AF1EE10FA01D2F0EE610A31EE16
:100AE000811A52ED011A491EC2ED001A11F0FF01E0
:100AF000E2D131EE400AB2EE001A70EE600A80EEEA
:100B0000810A704790F82020012A07D0022A05D0D8
:100B1000416A41F4802141620120704700684269C6
:100B20000A43426100207047F0B590F820500468F5
:100B3000A468012D05D0022D03D0416A41F4802123
:100B400053E014F0406F01D1E5004BD5C4F30164CC
:100B5000022C03D9416A41F4000146E00125A54079
:100B60001D608D684FF4C0739DB1CE6835434E68EB
:100B700045EAC605066803EB0417F5514FF4C27544
:100B8000076805EB04150E697E51097D012905D022
:100B900009E00E88CD6845EA4655EBE701684E59F5
:100BA00046F480764E511179D2F805504FF4C6764E
:100BB00041EA0525016806EB04168D511178D2F83B
:100BC00001204FF4C47541EA0221026805EB0415C7
:100BD0005151006803EB0411425842F001024250A7
:100BE0000020F0BD416A41F4001141620120F0BDD6
:100BF00010B590F82020012A07D0022A05D0416ABA
:100C000041F480214162012010BD3B48D0F8002210
:100C100042F00102C0F80022D0F8002222F47C52F7
:100C2000C0F80022D0F800224B6A42EA0322C0F842
:100C300000220A7D02F01F0301229A40D0F81C32E4
:100C40009343C0F81C32CB69B3B9D0F80C3293434C
:100C5000C0F80C328C894B6864F31F434C6900EB7D
:100C6000C404C4F840320C890B6864F31F434C6918
:100C700000EBC404C4F84432CB69012B16D1D0F880
:100C80000C321343C0F80C320C884B6864F31F43DA
:100C90004C6900EBC404C4F840320C89CB6864F39F
:100CA0001F434C6900EBC404C4F844328B69002B29
:100CB000D0F804320ED01343C0F804320B69002B75
:100CC000D0F8143208D01343C0F81432096A01294D
:100CD00004D008E09343EFE79343F5E7D0F81C1204
:100CE0001143C0F81C12D0F8001221F00101C0F825
:100CF0000012002010BD000000640040704730B5B5
:100D000090F82040012C05D0022C03D0416A41F418
:100D100080215DE00468002955D02469A40754D0DF
:100D20004FF4D874056804EB01142D5915F004052F
:100D3000956005682D594ED0ED08556005682C5911
:100D4000C4F34004D4604FF4DA74056804EB011472
:100D50002D5905F00F05156105682D59C5F30725B7
:100D6000956105682C59240C54614FF4DC720468B9
:100D700002EB0112A4581C700468A458240A5C7089
:100D80000468A458240C9C700468A258120EDA70EF
:100D90004FF4DE72046802EB0112A4581C7104685F
:100DA000A458240A5C710468A458240C9C7104683B
:100DB000A258120EDA71006881B1016941F0200178
:100DC0000161002030BDE468A8E7416A41F40011E8
:100DD0004162012030BD6D0D1560AFE7C16841F083
:100DE0002001C160EDE72DE9F05F054600680024B1
:100DF0004669D0F804908768D0F80CB0D0F810A0FD
:100E0000D0F81880F10748D0F90714D0012181608B
:100E1000B80703D5284600F030FA0CE0780702D571
:100E20004FF4006407E0380702D54FF4805402E025
:100E3000284600F021FAF80516D529684FF480708D
:100E40008860B80503D5284600F019FA0CE078054B
:100E500002D544F4005407E0380502D544F4804438
:100E600002E0284600F00AFAF80316D529684FF484
:100E700080308860B80303D5284600F002FA0CE001
:100E8000780302D544F4004407E0380302D544F463
:100E9000803402E0284600F0F3F9300707D55FEA16
:100EA000CB6004D52968102044F40074C860700732
:100EB0004FF0080707D55FEA0B7004D52868C760B4
:100EC000284600F05FF9B00706D52868C06880079B
:100ED00002D0284600F058F9700607D55FEACA60CC
:100EE00004D52968102044F480640861B00607D551
:100EF0005FEA0A7004D528680761284600F08CF97B
:100F0000F00606D528680069800702D0284600F060
:100F100084F9B00308D55FEAC96005D529681020B7
:100F20004860284600F07AF9F00307D55FEA0970B7
:100F300004D528684760284600F0A4F9300446D557
:100F40005FEA497040D5F00504D55FEAC87001D06A
:100F500044F00104B00504D55FEA887001D544F07F
:100F60000204700504D55FEA487001D544F004041A
:100F7000300529D518F0700F26D008F070004028F1
:100F800015D006DC102809D020280AD0302816D128
:100F90000AE050280ED0602811D10EE044F0080479
:100FA0000DE044F010040AE044F0200407E044F0AF
:100FB000400404E044F0800401E044F480742868B4
:100FC000816921F070018161296804204860002C4A
:100FD00005D0686A204368622846FFF78FFEBDE8A7
:100FE000F09F70B5040003D094F8200010B104E025
:100FF000012070BD204600F081F82068016821F0D2
:101000000201016000F04EFC0546052604E000F0F8
:1010100049FC401B0A2811D8206840688007F6D494
:101020002068016841F00101016000F03BFC0546C9
:101030000BE000F037FC401B0A2806D9606A40F438
:101040000030606284F82060D2E720684068C00702
:10105000EFD0207E0128206801683DD021F080017A
:101060000160607E01282068016838D021F04001CD
:101070000160A07E01282068016833D021F02001A2
:101080000160E07E0128206801682ED041F0100147
:101090000160207F01282068016829D021F0080123
:1010A0000160607F01282068016824D021F00401DC
:1010B0000160D4E902010843D4E904121143084352
:1010C0006168491E08432168C861002060620120F0
:1010D00084F82000002070BD41F08001C0E741F09D
:1010E0004001C5E741F02001CAE721F01001CFE738
:1010F00041F00801D4E741F00401D9E710B586B00A
:10110000044614216846FFF7B7F81B492068884257
:101110002FD11A480021026842F000720260006874
:1011200000F00070059015481038026842F008027F
:1011300002600068022200F0080005900320CDE95B
:101140000210CDE900020920049069460C4800F025
:10115000B1FA00221146132000F058FC132000F0D1
:1011600048FC00221146142000F050FC142000F02E
:1011700040FC06B010BD0000006400404038024052
:10118000000C02407047000000B5214A016889B098
:10119000914204D107AB6A460021FFF7B0FD0099E8
:1011A0001C48A1F20521032915D20099BDF81C2085
:1011B000091FC9B201EB410100EB810152BA8A80DB
:1011C000BDF81E2052BACA80BDF8202052BA0A814A
:1011D0009DF822208A720099A1F20121032915D2DB
:1011E0000099BDF81C20C91CC9B201EB410100EBFC
:1011F000810052BA8280BDF81E1049BAC180BDF884
:10120000201049BA01819DF82210817209B000BDF9
:1012100000640040AC080020704770477047000031
:1012200070B5044690F82000012804D0606A40F4AC
:101230000020606218E0022084F820002068016825
:1012400021F00101016000F02DFB05460EE000BF1A
:1012500000F028FB401B0A2808D9606A40F40030DF
:101260006062052084F82000012070BD206840687D
:10127000C007EDD1606270BD70477047704770471E
:101280007047704770472DE9F0410446876D00F0C4
:1012900009FB064694F835000025022806D0802078
:1012A000606584F834500120BDE8F0812068016851
:1012B00021F0160101602068416921F0800141613F
:1012C000206C08B9A06C20B12068016821F00801E9
:1012D00001602068016821F0010101600BE000F06D
:1012E000E1FA801B052806D92020606504F8345FE8
:1012F00003206070D8E720680068C007EFD194F839
:101300005C103F208840B86004F8345F01206070B2
:101310000020C9E790F83510022903D080214165EB
:1013200001207047052180F835100068016821F020
:1013300001010160002070472DE9F84304464FF099
:101340000009CDF8009063484FF41651A56D006870
:10135000B0FBF1F72E6894F85C10082000FA01F158
:1013600031420FD021680A6852070BD50A6822F073
:1013700004020A6094F85C108840A860606D40F038
:101380000100606594F85C104FF0010808FA01F064
:10139000304208D021684969090604D5A860606D0B
:1013A00040F00200606594F85C10042088403042F0
:1013B00008D021680968890704D5A860606D40F0ED
:1013C0000400606594F85C1010208840304218D00A
:1013D00021680968090714D5A860206801684903D5
:1013E00004D50068000308D5A16C07E00168C905B1
:1013F00003D4016821F008010160216C09B1204685
:10140000884794F85C1020208840304231D0216811
:101410000968C9062DD5A86094F83500052820680C
:10142000016806D0490347D5006800031DD4616CEC
:101430001CE021F0160101602068416921F0800163
:101440004161206C08B9A06C20B12068016821F0CE
:101450000801016094F85C103F208840A86084F87F
:10146000349084F83580216D1FE0E16B09B120468E
:101470008847606D00282BD0606DC00714D0052010
:1014800084F835002068016821F0010101600098AE
:10149000401C0090B84203D820680068C007F6D10D
:1014A00084F8349084F83580E16C002910D001B0C4
:1014B0002046BDE8F04308470168C905D5D4016856
:1014C00021F01001016084F8349084F83580CCE775
:1014D000BDE8F883180000202DE9F041044600F033
:1014E000E1F906465CB1002584F83450022084F806
:1014F00035002068016821F0010101600DE0012044
:10150000BDE8F08100F0CEF9801B052805D9202028
:101510006065032084F83500F2E720680068C007A2
:10152000F0D12268116820480140D4E90103184332
:10153000D4E903363343184363691843A369184356
:10154000E3691843236A18430843616A042903D1F5
:10155000D4E90B1319430843106020684069666A98
:1015600020F0070130460E43012704280CD1A06A61
:101570000643E06A40B12046FFF752FA20B140200E
:10158000606584F83570BAE7206846612046FFF749
:1015900033FA94F85C203F2191408160656584F8BE
:1015A00035700020ACE700003F8010F070B50446B5
:1015B00090F83400002501280CD0012084F8340074
:1015C00094F835600020012E06D084F834000225FE
:1015D000284670BD022070BD022684F83560606523
:1015E0002046FFF747FA2068016841F001010160D9
:1015F000EEE72DE9F0410446866D90F834000025B1
:1016000001280DD0012084F8340094F835700020B2
:10161000012F07D084F8340002252846BDE8F08168
:101620000220FBE7022784F8357060652046FFF74B
:1016300021FA94F85C103F208840B060206801686F
:1016400041F0160101602068416941F0800141616B
:10165000206C20B12068016841F008010160206819
:10166000016841F001010160D7E7000070B5044650
:1016700000F018F90546601C02D0044800780444C4
:1016800000F010F9401BA042FAD370BD0C000020FE
:10169000012801D1FFF707BA70470000044910B5CF
:1016A0000A68024202D00860FFF7F2FF10BD000096
:1016B000143C01402DE9F84FDFF890B100224FF0C3
:1016C00001084FF0030A4FF00F090BF1040E00BFA1
:1016D0000B6808FA02F42340A3426ED14D68022D34
:1016E00001D0122D0ED1D50800EB850CDCF820506E
:1016F0005607F70E09FA07F6B5430E69BE402E43AA
:10170000CCF82060066855000F790AFA05FC07F04E
:10171000030726EA0C06AF40374307604E68012EE8
:1017200005D0022E03D0112E01D0122E0ED18768C3
:10173000CE6827EA0C07AE403E4386604668A64363
:101740000C79C4F30014944034434460C4688E6838
:1017500024EA0C04AE402643C6604C68E4006FD512
:101760003B4C256845F480452560246822F003053C
:1017700004F480440094374C2E19D6F80848950795
:101780002F0F09FA07F5AC43334DA84201D10025CC
:101790002EE0324DA84201D1012529E0304DA8426A
:1017A00001D1022524E02F4DA84201D103251FE0DD
:1017B0002D4DA84202D104251AE041E02B4DA8424C
:1017C00001D1052514E02A4DA84201D106250FE0DC
:1017D000284DA84201D107250AE0274DA84201D192
:1017E000082505E0254DA84201D1092500E00A257C
:1017F000BD402543C6F80858DBF800405D464E68FA
:101800009C43F60300D51C432C60DEF8004075466F
:101810004E689C43B60300D51C432C600B4D083525
:101820002C684E689C43F60200D51C432C60074D83
:101830000C352C684E689C43B60200D51C432C60C6
:10184000521C102AFFF444AFBDE8F88F003C014061
:1018500044380240003001400000024000040240D1
:1018600000080240000C0240001002400014024038
:1018700000180240001C02400020024000240240E8
:101880000069084000D001207047426931EA020235
:1018900000D10904816170470AB181617047090470
:1018A000FBE7000001488068704700000C00002042
:1018B0000248816802781144816070470C00002062
:1018C0000B4810B5016841F400710160016841F4F2
:1018D00080610160016841F480710160032000F0C3
:1018E000B5F8002000F006F800F024F8002010BD44
:1018F000003C024070B50D4D04464FF47A712878D3
:10190000B1FBF0F00A490968B1FBF0F001F039F8D9
:1019100048B9102C07D200222146501E00F076F85C
:1019200000206C6070BD012070BD00000C00002024
:10193000180000200A4808B5016841F480410160A0
:10194000006800F4804000900548001F016841F0E5
:1019500080510160006800F08050009008BD0000D8
:10196000443802402DE9F04116460F46040004D0E9
:1019700094F83900002518B107E00120BDE8F08196
:1019800084F83850204601F04FFC242084F83900B8
:101990002068C16821F40051C160204602F014FDA6
:1019A0002068016921F4904101612068416921F0BA
:1019B0002A0141612068016921F00F01016120685D
:1019C0000169394301612068C16821F40061C16087
:1019D0002068C1683143C1602068C16841F400518A
:1019E000C160E563202084F8390084F83A000020C3
:1019F000C4E7002809DB00F01F02012191404009E3
:101A0000800000F1E020C0F800117047F0B40E4BE8
:101A10001B680C46C3F30223C3F10705042D00D94C
:101A20000425191D072901D2002300E0DB1E012631
:101A300006FA05F1491E214099409E40761E164047
:101A40003143F0BC03F0D8BD0CED00E0064900F0D6
:101A5000070208684FF6FF03184040EA0220034AD5
:101A600010430860704700000CED00E00000FA052C
:101A70007047D0F8040402F0EBBFC1EBC10200EBE9
:101A80008202D0F80404926C02F03EBFC1EBC102A6
:101A900000EB8202D0F80404D2F8082202F097BFCB
:101AA000D0F8040402F0D6BF70B5044601F00F0070
:101AB0006268904201D9012070BD0B0601F00F0150
:101AC000C1EBC10104EB81014FF001024FF00005B1
:101AD00003D581F83D203C3103E081F8FD5101F54B
:101AE000FE718D70087094F8BC03012808D084F84A
:101AF000BC23206803F036FB84F8BC53002070BD83
:101B0000022070BD2DE9F04104460F0601F00F00E0
:101B1000C0EBC00104EB81014FF001064FF000055E
:101B200003D581F83D603C3103E081F8FD5101F5BA
:101B3000FE7108708A60CB704A7802B1C880022BAF
:101B400000D10D7194F8BC03012809D084F8BC635E
:101B5000206803F0FBF9284684F8BC53BDE8F08107
:101B60000220FBE770B50C4601F00F05C5EBC5017F
:101B700000EB8101C1F81032C1F808220023C1F83E
:101B8000143281F8FD3181F8FC51036901F5FE71D1
:101B9000012B00D10A612207027C006803D003F008
:101BA00039FB002070BD03F02BFAFAE770B504464C
:101BB0000D4601F00F006168884201D9012070BD17
:101BC00029064FF000064FF0010207D5C0EBC00117
:101BD00004EB810181F83D203C3107E0C5EBC501F4
:101BE00004EB810181F8FD6101F5FE718A700870D6
:101BF00094F8BC03012807D084F8BC23206803F0C4
:101C0000DDFA280702D007E0022070BD217C04F530
:101C10007172206803F07AFA84F8BC63002070BD0A
:101C200070B50C4601F00F05C5EBC50100EB810155
:101C30000B658A6400234B65012381F83D3001F870
:101C40003C5F0369012B00D10A612207027C006816
:101C500003D003F0DFFA002070BD03F0D1F9FAE7FA
:101C60002DE9FC5F04460068002681464D4603F0DE
:101C7000D4FB00287ED1206803F0FBFB002879D03C
:101C8000206803F0F6FB800704D52068416901F065
:101C900002014161206803F0ECFB010304F571705F
:101CA0004FF0010B009076D5206803F0C1FB07468A
:101CB000DFF810A46DE0F80769D0F1B2206803F0F6
:101CC000D0FB8046C00707D005EB4611C1F808BB22
:101CD0003146204601F0A2FE5FEA087033D5206845
:101CE000016C00EB46100191D0F8081B2269012A13
:101CF000019A0FD0F44B9A4214D1090403D54FF442
:101D00000041C0F8081B204600F01AFA206901289B
:101D10000FD013E0524505D9090403D54FF4004113
:101D2000C0F8081B204600F00BFA01985045EDD88A
:101D300004E020680121009A03F0E8F905EB461160
:101D40000820C1F8080B5FEAC86004D505EB46110E
:101D50001020C1F8080B5FEA88600FD520690128C0
:101D600004D120680121009A03F0D0F9202005EB6E
:101D7000461101E0A4E10EE0C1F8080B5FEA8840DB
:101D800005D505EB46114FF40050C1F8080B7F084C
:101D9000761C002F8FD1206803F06BFB40034FF0BF
:101DA000000A60D5206803F03CFB0746002658E097
:101DB000F80754D0F1B2206803F041FB8046C00719
:101DC00026D006F00F020BFA02F0D5F83428824331
:101DD000C5F8342805EB4610C0F808B92069012879
:101DE00007D1C6EBC60004EB8000D0E911211144F5
:101DF0008164F1B22046FFF740FE2069012807D137
:101E000036B9206D20B920680121009A03F07EF9CF
:101E10005FEA087004D505EB46110820C1F80809EF
:101E20005FEAC86004D505EB46111020C1F8080927
:101E30005FEA486004D505EB46114020C1F8080967
:101E40005FEA887004D505EB46110220C1F8080945
:101E50005FEA086003D53146204601F04DFE7F0859
:101E6000761C002FA4D1206803F003FB002811DAB0
:101E7000D5F8040820F00100C5F8040894F8F4032C
:101E800001282BD0204600F03FF92068416901F07D
:101E900000414161206803F0ECFA00050BD5D5F84C
:101EA0000808C00702D0204600F052F920684169B6
:101EB00001F400614161206803F0DBFAC0045DD5E4
:101EC000D5F8040820F00100C5F8040810212068A6
:101ED00003F084FA00214FF67F321AE084F8F4A36D
:101EE00000212046FFF7C4FDCFE700BF05EB4110FE
:101EF000C0F80829D0F8003923F40013C0F80039DD
:101F0000C0F8082BD0F8003B23F40013C0F8003BC6
:101F1000491C60688842E9D8D5F81C0840F00110D7
:101F2000C5F81C08206B60B1D5F8840840F00B00A0
:101F3000C5F88408D5F8440840F00B00C5F84408FB
:101F40000CE0D5F8140842F22B010843C5F8140838
:101F5000D5F8100840F00B00C5F81008D5F80008B7
:101F600020F4FE60C5F80008217C2068009A03F088
:101F7000CDF82068416901F480514161206803F087
:101F800078FA800418D5206803F020F8206803F060
:101F900037FA60B30320E06000F08AF92368014655
:101FA000227B184603F088FA204600F097F8206854
:101FB000416901F400514161206803F05AFAC006FA
:101FC00038D52068816921F010018161D9F820702D
:101FD00007F00F00C0EBC00004EB8005C7F34340DF
:101FE00005F5FE75022805D0062814D01DE0C4F8BA
:101FF0000CA0D1E747F6F0710F4216D0C7F30A12D2
:1020000017464846E96803F038FAE8683844E8605B
:10201000A869384408E008224846009903F02DFAE0
:10202000A869C7F30A110844A8612068816941F0D2
:1020300010018161206803F01CFA000707D52046D3
:1020400000F066F82068416901F0080141612068EC
:1020500003F00FFAC00208D5F1B2204600F036F8BE
:102060002068416901F480114161206803F001FAA0
:10207000800208D5F1B2204600F02CF820684169B2
:1020800001F400114161206803F0F3F9400007D525
:102090002046FFF7EEFC2068416901F08041416174
:1020A000206803F0E6F940070AD52068456868070C
:1020B00002D52046FFF7F4FC2068416829434160BF
:1020C000BDE8FC9F0A30544F0A31544FD0F8040445
:1020D00002F0DBBCD0F8040402F0D9BC70B50446B1
:1020E000C068012570B1022801D0FEF7DBFC29464B
:1020F000D4F8040402F01CFDD4F80404BDE87040D8
:1021000002F0DCBC0025F2E7D0F8040402F0FEBCCB
:10211000D0F8040402F000BD10B5044690F8BC03EA
:1021200001280BD0012084F8BC0384F83810206803
:1021300003F0B1F9002084F8BC0310BD022010BDEB
:10214000D0F8042400F57171104602F0FDBC0000C7
:1021500010B50446D0F8040402F02CFD2068D0F835
:10216000001E41F00101C0F8001E206A002804D0C2
:102170000248016841F00601016010BD10ED00E069
:102180002DE9F0470E46050065D0DFF81481D8F838
:102190000000F7B200F00F00B04207D288F80070DC
:1021A000D8F8000000F00F00B04254D128683D4C30
:1021B000810712D5400703D5206840F4E050206025
:1021C0002878000703D5206840F46040206020682C
:1021D000A96820F0F000084320602878C0072DD0BF
:1021E000304968680839012812D0022813D0032822
:1021F00011D00968890700292DDA216821F003012F
:1022000001432160FFF74EFB814641F2883A0EE020
:1022100009688903EFE709688901ECE7FFF742FBEA
:10222000A0EB0901514502D90320BDE8F0872068E1
:10223000696800F00C00B0EB810FEFD1D8F8001006
:10224000404601F00F01B14207D90770006800F065
:102250000F00B04201D00120E7E72878400705D5FC
:102260002068E96820F4E0500843206028780007DF
:1022700006D52068296920F4604040EAC10020604A
:1022800000F03CF82168084AC1F30311515CC840D2
:10229000064908600020FFF72DFB0020C5E700007D
:1022A000003C024008380240348500081800002035
:1022B00001480068704700001800002004480549E4
:1022C00000680968044AC1F38221515CC840704724
:1022D00018000020083802404485000804480549D9
:1022E00000680968044AC1F34231515CC840704734
:1022F000180000200838024044850008154810B531
:10230000006810F00C02144813D01449042A0FD0AE
:10231000082A0ED10F4C241F2268236802F03F02C6
:102320005B0207D52068C0F38810A0FB010106E01E
:10233000084610BD2168C1F38811A1FB00010023EC
:10234000FDF750FF2168C1F30141491C4900B0FB72
:10235000F1F010BD083802400024F400001BB70063
:102360002DE9F84F050076D02878DFF8F8B2BE4C9A
:10237000C00749D0DBF800105846C1F3810101299C
:1023800008D00068C0F3810002280AD1201D00682F
:10239000400206D52068800336D568680028E2D060
:1023A00032E06868B0F5803F10D0B0F5A02F20680B
:1023B00010D020F480302060206820F4802020603D
:1023C0006868A0B1FFF76EFA06460CE0206840F49A
:1023D0008030F4E740F480202060F7E7FFF762FAEE
:1023E000801B642873D820688003F7D50CE0FFF7C2
:1023F00059FA064605E000BFFFF754FA801B64282F
:10240000F0D820688003F7D42878DFF8608280074E
:102410004FF000093ED5DBF80010584611F00C0FC4
:1024200009D00068C0F3810002280BD18D48001F3D
:102430000068400206D42068800715D5E8680128A6
:1024400009D111E0E868B8B10120C8F80000FFF731
:1024500029FA064605E002E1FFF724FA801B02286C
:10246000C0D820688007F7D52068296920F0F800D7
:1024700040EAC10020600DE0C8F80090FFF712FAB2
:10248000064604E0FFF70EFA801B02281FD82068DA
:102490008007F7D42878000722D5724E74486969FE
:1024A0006C3671B101210160FFF7FCF9074604E0C9
:1024B000FFF7F8F9C01B022809D830688007F7D564
:1024C0000EE0C0F80090FFF7EDF9074605E083E065
:1024D000FFF7E8F9C01B02287ED830688007F7D4E0
:1024E0002878400768D5DFF87CA100270AF1380A70
:1024F000DAF80000C0000BD4DAF8001041F0805187
:10250000CAF80010DAF80000012700F080500090AF
:10251000584E3068C00510D4306840F48070306088
:10252000FFF7C0F9009005E0FFF7BCF90099401AE9
:10253000022851D83068C005F6D54A4EA8686836DA
:1025400001280FD00528306810D020F0010030603D
:10255000306820F004003060A868B8B1FFF7A2F935
:1025600000900FE0306840F00100F4E740F0040014
:102570003060F7E7FFF796F90099411A41F2883089
:10258000814264D830688007F4D50EE0FFF78AF9FD
:10259000009007E0FFF786F90099411A41F2883070
:1025A000814254D830688007F4D42FB1DAF8001093
:1025B00021F08051CAF80010A869C0B3DBF8001000
:1025C000C1F3810102294AD00228484607D0C8F841
:1025D0006000FFF767F900E039E005463AE047465A
:1025E000C8F86000FFF75EF9064604E0FFF75AF905
:1025F000801B02282BD820688001F7D4D5E9070179
:102600000843A96A1C4A490802EB01416A6A41EA87
:102610008211084395F82C1040EA01611148001F0F
:10262000016001203866FFF73DF9054605E014E03A
:10263000FFF738F9401B022809D820688001F7D538
:102640000BE000BFFFF72EF9401B022802D9032040
:10265000BDE8F88F20688001F4D40020F8E701205D
:10266000F6E7000008380240003802400000474208
:10267000800E4742007000400000FFFF70B504006C
:1026800005D00025A56294F8510010B106E00120A4
:1026900070BD84F85050204600F030F8022084F8D5
:1026A00051002068016821F040010160D4E9010176
:1026B0000843D4E903121143084361690843218B9D
:1026C00001F400710843E1690843216A0843A16AE3
:1026D000084321680860A069042101EA1040616A8A
:1026E0000843216848602068C16921F40061C16124
:1026F0006565012084F85100002070BD2DE9F0438C
:102700000746006820490025204C022687B04FF07C
:1027100003084FF0050988421BD1206840F480501F
:102720002060206802AA00F4805005901820CDE9AE
:10273000000682E8200369461548FEF7BBFF8020AB
:10274000CDE9000602AA694682E820031148FEF797
:10275000B1FF11493868884212D1206840F48010D6
:102760002060206802AA00F4801005904FF4607089
:10277000CDE9000682E8200369460848FEF79AFF83
:1027800007B0BDE8F083000000300140443802404B
:1027900000040240000002400050014000140240CA
:1027A0002DE9F84F044690F8500000270A9E1D4678
:1027B00092468B464FF0010901280ED0012084F883
:1027C0005000FFF76FF8804694F8510061680128C7
:1027D0000CD0B1F5827F07D102E00220BDE8F88F6E
:1027E000A16809B9042801D00227C2E0BBF1000F9B
:1027F00027D0BAF1000F24D01DB394F8510004285B
:1028000002D0052084F8510000206065C4F838A08B
:10281000E587A587C4F830B0E586A58620646064A6
:1028200020680168490603D4016841F04001016055
:10283000E068B0F5006F606805D0E8B3012D46D0C0
:102840007FE0012795E008B1012D39D1206B216887
:102850000088C860206B801C2063E08E401EE086EC
:102860002EE02068816889070FD5E18E69B1B9F142
:10287000010F0AD1216B0988C160206B801C206385
:10288000E08E401EE0864FF0000920688168C9078D
:102890000CD0E18F51B1C068A16B0880A06B801C87
:1028A000A063E08F401EE0874FF00109FEF7FAFFBA
:1028B000A0EB0800B04200E009E001D3701C50D149
:1028C000E08E0028CDD1E08F0028CAD13FE0206BF8
:1028D000216800780873206B401C2063E08E401E46
:1028E000E0862EE02068816889070FD5E18E69B106
:1028F000B9F1010F0AD1216B09780173206B401CDB
:102900002063E08E401EE0864FF000092068816859
:10291000C9070CD0E18F51B1C068A16B0870A06BE2
:10292000401CA063E08F401EE0874FF00109FEF7D6
:10293000B9FFA0EB0800B04202D3701C01D010E038
:102940007EB1E08E0028CDD1E08F0028CAD142466A
:102950003146204601F0FEF928B1012720206065AC
:1029600007E0032705E0A06818B92068C1688068FF
:102970000090012084F85100002084F8500038466F
:102980002CE710B5401EB0F1807F01D3012010BDAF
:102990004FF0E02460610F21601702F02DFE00204F
:1029A000A06107202061002010BD7047704710B55E
:1029B00090F83C20012A22D0012280F83C20CA68ED
:1029C0008C6822F4407222434C6822F480622243D5
:1029D0000C6822F4006222430C6922F480522243E4
:1029E0004C6922F400522243C969002322F4804238
:1029F0000A4301684A6480F83C30002010BD022080
:102A000010BD70B590F83C20012A19D0012400F8BF
:102A10003C4F0222427050F83C3C5A689D6822F0BC
:102A200070060A684968324325F0800529435A60D8
:102A300050F83C2C9160447000210170084670BD34
:102A4000022070BD10B5040003D094F83D0010B111
:102A500007E0012010BD002084F83C00204600F073
:102A60000DF8022084F83D00211D206801F054FA81
:102A7000012084F83D00002010BD000038B5054657
:102A80000068104CB0F1804F0FD1206840F0010079
:102A900020602068032200F00100009000211C202B
:102AA000FEF7B4FF1C20FEF7A4FF07492868884200
:102AB00007D1206840F020002060206800F020004E
:102AC000009038BD40380240001400400168CA68D8
:102AD00042F00102CA600068816801F0070106291E
:102AE00003D0016841F0010101600020704770B51A
:102AF000044690F83C00012817D0012584F83C508A
:102B0000022084F83D002068826822F0770222F4D7
:102B10007F4282600868502830D00DDC20284DD0DC
:102B200005DC98B310283BD148E0022070BD302866
:102B300044D0402834D139E0602828D0702806D00D
:102B4000B0F5805F2CD0B0F5005F29D10AE0CB68EA
:102B5000D1E90121206801F050FA2068816841F034
:102B6000770109E0CB68D1E90121206801F045FA3D
:102B70002068816841F48041816011E0CA68496839
:102B8000206801F00FFB5021206807E016E0CA68BA
:102B90004968206801F017FB6021206801F037FACE
:102BA00084F83D50002084F83C0070BDCA68496834
:102BB000206801F0F7FA40212068EFE7226801461B
:102BC0001046EBE7704770B50446006801694FF0A6
:102BD0000005C943890715D4C168C943890711D4C1
:102BE000E91E016101202077206880698007204666
:102BF00002D0FFF7E7FF04E000F0EEF8204600F017
:102C000091F9257720680169C943490717D4C1683C
:102C1000C943490713D46FF00401016102202077F2
:102C20002068806910F4407F204602D0FFF7CAFF79
:102C300004E000F0D1F8204600F074F92577206810
:102C40000169C943090716D4C168C943090712D4E9
:102C50006FF008010161042020772068C0698007B7
:102C6000204602D0FFF7AEFF04E000F0B5F82046A2
:102C700000F058F9257720680169C943C90617D4BF
:102C8000C168C943C90613D46FF01001016108205F
:102C900020772068C06910F4407F204602D0FFF7FB
:102CA00091FF04E000F098F8204600F03BF925770A
:102CB00020680169C943C90708D1C168C943C90768
:102CC00004D1891E0161204600F050F92068016995
:102CD000C943090609D4C168C943090605D46FF080
:102CE000800101612046FFF760FE20680169C94349
:102CF000490609D4C168C943490605D46FF04001AB
:102D00000161204600F033F920680169C943890652
:102D10000BD4C168C943890607D46FF02001016153
:102D20002046BDE87040FFF741BE70BD70B586B06B
:102D3000044614216846FDF79FFA214A21680024C1
:102D400020480225914223D1016841F00101016030
:102D5000016801F001010591016841F01001016075
:102D60000068012600F01000059090150090CDE954
:102D70000154CDE9034669461348FEF79BFC6803FE
:102D80000090CDE90154CDE9034669460F4813E0B0
:102D90000F4A914212D1016841F080010160006840
:102DA000694600F08000059040200090CDE9015474
:102DB0000920CDE903400748FEF77CFC06B070BD52
:102DC0000000014030380240000002400010024084
:102DD00000180040001C0240704770B5044690F88F
:102DE0003C000D4601280DD0012684F83C600220ED
:102DF00084F83D0042B1042A18D0082A2AD00C2AAF
:102E00004DD139E0022070BD206801F009F9206839
:102E1000816941F0080181612068816921F0040124
:102E20008161206881692A69114311E0206801F0FD
:102E300027F92068816941F4006181612068816916
:102E400021F480618161206881692A6941EA022157
:102E5000816124E0206801F049F92068C16941F0EE
:102E60000801C1612068C16921F00401C1612068C5
:102E7000C1692A69114311E0206801F06BF92068EB
:102E8000C16941F40061C1612068C16921F48061B8
:102E9000C1612068C1692A6941EA0221C16184F8DF
:102EA0003D60002084F83C0070BD10B5040003D0E4
:102EB00094F83D0010B107E0012010BD002084F817
:102EC0003C00204600F00CF8022084F83D00211D53
:102ED000206801F021F8012084F83D00002010BD99
:102EE00008B500680C49884208D10C48016841F0D7
:102EF00001010160006800F001000BE00849884210
:102F000009D10648001F016841F0400101600068D6
:102F100000F04000009008BD00000140443802402D
:102F2000001800407047000010B5044600680122F8
:102F300001F056F80B492068884202D00A498842BD
:102F400003D1416C41F4004141642068816801F083
:102F50000701062903D0016841F00101016000204A
:102F600010BD0000000001400004014070477047A0
:102F700010B504460068416994F83920C1F3C011C6
:102F8000212A0BD151B1416921F080014161206BAF
:102F900008B1FEF778F9204601F085F9206841690B
:102FA00094F83A20C1F38011222A0BD151B1416922
:102FB00021F040014161606B08B1FEF764F92046E1
:102FC00001F063F9002010BD7047000030B40168C3
:102FD0000A68D2065ED50A684968416B324A0968B8
:102FE00091420AD0314A914207D02F4A6032914231
:102FF00003D02E4A6032914201D1202222E02A4B96
:103000001833DA1499421DD0284B1833994219D03D
:10301000254B7833994215D0244B7833994211D0FF
:10302000214B9202303399420CD0204B30339942DD
:1030300008D01D4B9033994204D01C4B90339942D9
:1030400000D092010B6823F001030B60416B174B1A
:1030500009684833994202D91449091F05E0124B07
:10306000A833994203D9114908390A6008E00E4C87
:103070000D4B4834103BA14201D9DA6000E09A6060
:10308000426B818D12685160416B09680A6842F099
:1030900001020A6000680649884202D130BC03F090
:1030A00037B930BC70470000106002401064024025
:1030B0000014014070B5026804461068D168536975
:1030C00010F00F0F50D003F0010501F49076354356
:1030D0005DD0C20705D0CA0503D5E26B42F00102FC
:1030E000E263420705D5DA0703D0E26B42F0020241
:1030F000E263820705D5DA0703D0E26B42F00402EF
:10310000E263020705D5DA0703D0E26B42F008025A
:10311000E263E26B002A33D0800604D5880602D52C
:10312000204601F005F920684069E16BC0F380108A
:10313000090700D428B3204601F0A7F820684169A8
:1031400049061AD5416921F040014161606BA0B187
:103150001B490165606BFEF7DDF8002810D0606B3D
:10316000016DBDE870400847830610D58B060ED56B
:103170002046BDE8704001F0DBB82046FFF724FF91
:1031800070BD2046FFF720FF0020E06370BD0306FE
:1031900006D50B0604D52046BDE8704001F06ABA9A
:1031A0004006F3D54806F1D5D168204621F040010C
:1031B000D160202184F8391000F0C4F970BD0000FE
:1031C000EB41000870B5040004D094F839000025E4
:1031D00010B106E0012070BD84F83850204600F0A0
:1031E00023F8242084F839002068C16821F40051B4
:1031F000C160204601F0E8F82068016921F490419F
:1032000001612068416921F02A0141612068C1689B
:1032100041F40051C160E563202084F8390084F84E
:103220003A00002070BD00002DE9F04F87B006463F
:1032300014216846FDF720F85E495D48D6F800C0C5
:1032400000245C4A10390323022501274FF0080AA5
:10325000844516D1106840F000401060106800F0FE
:1032600000400590086840F01000086008688DE88C
:10327000A80000F01000CDE904A0694603934E4871
:1032800052E04C48DFF83481001D4FF007094FF43D
:10329000806BC44536D1026842F0100202600068BB
:1032A00000F010000590086840F00200086008680F
:1032B000694600F002000590C0208DE8A100CDE92C
:1032C00003393F48FEF7F6F93F4D3E4828604FF07E
:1032D0000060C5E90104C5E9034BC0146C61C5E990
:1032E00006402C6228466C62FEF7F6F808B1FDF73E
:1032F000D9FB7563002211462520AE63FEF786FBDD
:10330000252052E0314EB44513D1106840F400300E
:1033100010601068694600F40030059060208DE868
:10332000A100CDE903392A48FEF7C4F907B0BDE88A
:10333000F08F284A9445F9D1026842F020020260D9
:10334000006800F020000590086840F04000086028
:103350000868694600F0400005904FF484408DE80D
:10336000A100CDE9033A1C48FEF7A4F9164D154813
:103370006035183828608005C5E90104C5E9034BAC
:103380006C61AC61EC612C6228466C62FEF7A4F8BB
:1033900008B1FDF787FB0C48002240380221456345
:1033A000A8634720FEF732FB4720FEF722FBBDE76C
:1033B000007C0040403802400010024000100140F4
:1033C00000040240406402403403002000440040F6
:1033D000000C02400014014000180240F8B50446F9
:1033E00090F83A0020283CD1C1B3BAB394F8380021
:1033F000012836D0012084F83800A162A28500257A
:10340000E563222084F83A00636B1748D863636B46
:1034100016481864636B1648D864606B13460565DC
:103420000846666B216802463046091DFEF7E1F842
:10343000206801684168009184F83850C16841F4FF
:103440008071C1602068416941F0010141612068DB
:10345000416941F0400141610020F8BDFFE70120D2
:10346000FBE70220F9E7000045420008814200081E
:10347000FB41000830B40368DC6844F01004DC60F1
:1034800030BC00F019BF704770472DE9F84304467F
:1034900090F839001F4616460D46202850D1A5B198
:1034A0009EB194F8380001284AD0012084F83800F1
:1034B0004FF00008C4F83C80212084F83900FEF762
:1034C000F1F9A6848146E68426E00120BDE8F88370
:1034D000E08C401EE084A0684B46B0F5805F4FF062
:1034E00000024FF080012046009703D001F0F3F86E
:1034F000E8B90DE001F0EFF8C8B928882168C0F3F9
:1035000008004860206908B16D1C05E0AD1C03E0AF
:10351000216815F8010B4860E08C0028D8D14B4693
:10352000002240212046009701F0D5F808B1032081
:10353000CCE7202084F8390084F838800020C5E7E3
:103540000220C3E77047FEE7104810B50E4901603E
:103550000321416000214FF400228160C0E9031281
:103560004FF4401242610176012242768176C176A3
:1035700001774177FDF735FD002803D0BDE8104005
:10358000FDF790BA10BD0000006400404C0100201F
:10359000114808B5016841F480010160006800220B
:1035A00000F48000009011463920FEF72FFA3920F0
:1035B000FEF71FFA002211463A20FEF727FA3A20BA
:1035C000FEF717FA002211464520FEF71FFABDE864
:1035D00008404520FEF70DBA303802402DE9F04F83
:1035E00087B014216846FCF747FE6748002401684D
:1035F00041F010010160016801F0100105910168BE
:1036000041F040010160016801F04001059101684D
:1036100041F001010160016801F0010105910168BB
:1036200041F002010160016801F0020105910168A9
:1036300041F008010160016801F00801059101688D
:1036400041F080010160016801F08001059101688D
:1036500041F004010160016801F004010591016875
:1036600041F020010160016801F02001059101682D
:1036700041F4807101600068002200F480700590C0
:1036800020214248FEF708F9414E01224FF4FF7114
:103690003046FEF701F9012251033046FEF7FCF8EF
:1036A000DFF8F09001223C214846FEF7F5F8DFF8FC
:1036B000E8A0012230215046FEF7EEF8DFF8DCB03A
:1036C000F714002239465846FEF7E6F84FF48048D2
:1036D000002241463248FEF7DFF842F2FE10009029
:1036E0000125CDE90154694630460394FDF7E2FF18
:1036F0003C200090CDE90154694648460394FDF70B
:10370000D9FF40200090CDE9015469462448039434
:10371000FDF7D0FF022623480096CDE90104694653
:103720002148FDF7C7FF3020CDE90005CDE902565D
:1037300069465046FDF7BEFF0097CDE90154694642
:1037400058460394FDF7B6FFCDF80080CDE901544B
:10375000694613480394FDF7ADFF8420CDE90004CA
:103760000294694611480394FDF7A4FF4FF4C46026
:103770000090CDE90154694604480394FDF79AFF8F
:1037800007B0BDE8F08F000030380240000402406E
:1037900000180240001C02400000024000100240DD
:1037A00000140240000011100008024000200240F6
:1037B000114810B50F4901604FF48271416000213A
:1037C0008160C1604FF400720161C0E905123022CE
:1037D000C0E90721416281620A21C162FEF74EFF02
:1037E000002805D0BDE810403D2104A001F0EBBE4B
:1037F00010BD000000500140540800202E2E5C53E4
:1038000072635C7370692E630000000010B592B0A3
:1038100000240F941C2168461094FCF72DFD2021F4
:1038200007A8FCF729FD254823490160A721C0E925
:10383000011444F61F61C0E9031444618461FFF779
:1038400034FB08B1FDF72EF90F940FA91B48109413
:10385000FFF7D7F808B1FDF725F9602000904FF485
:103860006170CDE901040394049405940022694633
:1038700012480694FFF7B1FA08B1FDF713F90C22CC
:1038800069460E48FFF7A9FA08B1FDF70BF907944E
:10389000089409944FF400500A94CDE90B4007A90D
:1038A00006480E94FFF783F808B1FDF7FBF80348CC
:1038B000FFF73CFA12B010BD000001407401002077
:1038C00010B5144886B04FF08041016053210024A8
:1038D000C0E9011441F28731C0E90314FFF7B2F8DF
:1038E00008B1FDF7DFF84FF48050009069460948B1
:1038F000FFF7FDF808B1FDF7D5F8049404A90548D1
:103900000594FFF77EF8002801D0FDF7CBF806B04C
:1039100010BD0000B40100201CB500240D48009427
:103920000B49019401605321C0E90114C460846112
:10393000FFF788F808B1FDF7B5F800946946054827
:103940000194FFF75EF8002801D0FDF7ABF81CBD2D
:1039500000140040F40100200C4810B50A49016031
:103960004FF4E1314160002181600C22C160C0E967
:1039700004128161C161FFF725FC002803D0BDE876
:103980001040FDF78FB810BD007C0040740200208D
:103990000E4810B50C4901600D4941604FF480514B
:1039A000816000214FF48062C0E903120C22C0E95B
:1039B0000521C161FFF706FC002803D0BDE81040D7
:1039C000FDF770B810BD000000100140B4020020E7
:1039D000A08601000C4810B50A4901604FF4E1319E
:1039E0004160002181600C22C160C0E90412816144
:1039F000C161FFF7E7FB002803D0BDE81040FDF7E9
:103A000051B810BD00140140F4020020FEE77047D9
:103A10000148FEF725B90000F40300202DE9F0412C
:103A2000044600680E46016C00EB4615D5F8080BFD
:103A3000276920234FF40042012F08D02C4FB942B0
:103A40004FD1010449D500BFC5F8082B4DE0DFF880
:103A5000A4C05FEA007E04F5717711D5614503D9F2
:103A6000000401D5C5F8082B2046FEF769FB3A464D
:103A70000121206801F04AFB0820C5F8080B34E05A
:103A80005FEA806E02D5C5F8083B2EE010F0280FE3
:103A90002BD1614501D90004D6D4C6EBC60004EB96
:103AA0008000D5F8102BD0F80412C2F312028A1A43
:103AB000C0F81422D0F808221144C0F80812F1B25C
:103AC0002046FDF7E3FF86B9D4F8100268B93A46FC
:103AD0000121206801F01AFB07E0800601D5C5F836
:103AE000083BF1B22046FDF7D1FF0020BDE8F08190
:103AF0000A31544F0A30544F2DE9F84F0E46C1EBAE
:103B0000C60100EB810481460568D4E914103C34F9
:103B1000884202D90120BDE8F88F081AA1688142C5
:103B200000D20846C01C870805EB46181BE000BF02
:103B3000A0EB010AA068504500D282460AF10300BA
:103B4000870899F8100000901FFA8AF3F2B228460D
:103B5000E16801F025FDE16801EB0A00E060A16980
:103B600001EB0A00A061D8F8180980B2B84205D369
:103B7000D4E90501814201D20028D9D1D4E9050157
:103B8000884208D806F00F0101208840D5F8341883
:103B90008143C5F834180020BDE7000030B4024C62
:103BA000446630BC03F030BF097A0008BCEEC00A9E
:103BB00031B10C2903D1006810EE101A016470476E
:103BC000006810EE101A4163704770472C4890ED62
:103BD000012AD0ED001A70EEC22A90ED022A70EE92
:103BE000611A80EC030A31EE422A26480246B0F9F7
:103BF00002101288642936DABDEEE10A491C4180C0
:103C000010EE101A002900DA494200EE101AD0ED29
:103C1000010AB8EEC00AB4EEE00AF1EE10FA1FDCB9
:103C2000BDEEE20A10EE101A002900DA494200EE59
:103C3000101AB8EEC00AB4EEE00AF1EE10FA0FDC8A
:103C4000BDEEC20A10EE101A002900DA494200EE59
:103C5000101AB8EEC00AB4EEE00AF1EE10FA01DD77
:103C6000521C02807047064B00210C33012A01D9F7
:103C7000197101E001221A71018041807047000032
:103C80008C150020EC00002010B547F248142DEDF3
:103C9000028B00239FED278ADFED278A2246B0EEB4
:103CA000481AF0EE480AB0EE680A03212348FFF7ED
:103CB00075FFB0EE481AF0EE480AB2EE040A00238F
:103CC000224603211E48FFF769FFB0EE481AF0EEC6
:103CD000480AB2EE0E0A0023224603211948FFF7D4
:103CE0005DFFB0EE481AF0EE480AB0EE680A002315
:103CF000224603211448FFF751FFB0EE481AF0EEB8
:103D0000480AB2EE040A0023224603210F48FFF7B7
:103D100045FFB0EE481AF0EE480ABDEC028B224691
:103D20000023BDE81040B2EE0E0A03210848FFF759
:103D300035BF00000000000000004843800900205B
:103D4000EC090020580A0020C40A0020300B002093
:103D50009C0B002038B50B460092044600228021BF
:103D600000F008F8002804D0606D40F02000606585
:103D7000032038BD2DE9F0411D4617460E46044686
:103D8000DDF8188008E0681C06D0FDF78BFDA0EB7D
:103D90000800A8420BD255B12068806836EA0000BE
:103DA00030D00020B842EED10020BDE8F08120687C
:103DB000416821F0E00141606068B0F5827F0BD17D
:103DC000A068B0F5004F02D0B0F5806F04D1206834
:103DD000016821F040010160A06AB0F5005F09D1DF
:103DE0002068016821F4005101602068016841F4F5
:103DF00000510160012084F85100002084F8500037
:103E00000320D2E70120CDE77047FDF751BD000048
:103E100030B593B030216846FCF72EFA14210CA877
:103E2000FCF72AFA19480025016841F08051016029
:103E3000006800F0805011901548016841F440413D
:103E400001600068022400F44040119001200090BD
:103E5000000401908001CDE9064006200890A820CA
:103E6000CDE9090407200B906846FEF779FA0CA902
:103E70000F2081E831004FF4A0500F90E002109025
:103E800005210CA8FEF77CF913B030BD4038024084
:103E9000007000401048016841F4700101600F4853
:103EA000016841F0010101600C4A002108321160F3
:103EB00002680B4B1A400260031D0A4A1A6002682E
:103EC00022F48022026005480C3001600249580645
:103ED000803908607047000088ED00E0003802403B
:103EE000FFFFF6FE1030002410B504F04BF8BDE8DB
:103EF00010400148FEF767BEB401002005480449A0
:103F000001602921416000218160C160704700008B
:103F100000140040C8120020F0B50268254C264D60
:103F2000264E274F274B4FF0804CA04209D06045CA
:103F300007D0A84205D0B04203D0B84201D0984281
:103F400004D122F0700E4A6842EA0E02A0421BD051
:103F5000604519D0A84217D0B04215D0B84213D04E
:103F6000984211D0184DA8420ED0184DA8420BD03F
:103F7000174DA84208D0174DA84205D0164DA842AB
:103F800002D0164DA84203D122F44075CA682A43D4
:103F90004D6922F080022A4302608A68C2620A6880
:103FA0008262A04201D0984201D1096901630121D6
:103FB0004161F0BD000001400004004000080040E5
:103FC000000C00400004014000400140004401405A
:103FD0000048014000180040001C00400020004044
:103FE00010B501F01F030121046A99408C4304625B
:103FF000016A9A401143016210BD10B5846842EA1B
:10400000032224F47F440A432243826010BD826865
:1040100022F070020A4342F00701816070470000FD
:10402000F0B5026A22F001020262036A4268846902
:10403000124E24F073050C682C4323F002058B68A4
:104040002B430D4DA84201D0B04205D123F0080703
:10405000CB683B4323F00403A84201D0B04205D112
:104060004D6922F4407215438A692A434260846193
:10407000496841630362F0BD000001400004014053
:10408000F0B5026A22F010020262026A4368846993
:104090000D6824F4E64444EA05248D6822F02002E9
:1040A00042EA05120F4D104EA84201D0B04206D18F
:1040B000CF6822F0800242EA071222F04002A842B2
:1040C00001D0B04207D14D6923F4406343EA850330
:1040D0008D6943EA850343608461496881630262B4
:1040E000F0BD00000000014000040140F0B5026A8C
:1040F00022F480720262026A4368C46922F4007288
:1041000024F073050C68124E2C438D6842EA052298
:104110000E4DA84201D0B04206D1CF6822F4006211
:1041200042EA072222F48062A84201D0B04207D1BD
:104130004D6923F4405343EA05138D6943EA05139F
:104140004360C4614968C1630262F0BD0000014080
:104150000004014030B5026A22F480520262046A0F
:104160004268C3690D6823F4E64343EA05238D687A
:1041700024F4005444EA0534084DA84202D0084D06
:10418000A84204D14D6922F4804242EA851242607D
:10419000C36149680164046230BD00000000014051
:1041A0000004014010B5036A046A24F001040462AB
:1041B000846924F0F00444EA021423F00A020A435A
:1041C0008461026210BD10B5036A23F0100303621C
:1041D0008369046A23F4704343EA023224F0A003A3
:1041E00043EA01118261016210BD10B5806B0021AC
:1041F000C185C184FEF7E8FE10BD70B5846B2068F0
:10420000406994F83910C0F3C0100025212904D169
:1042100018B1E584204600F046F82068406994F81B
:104220003A10C0F38010222904D118B1E585204648
:1042300000F02BF8E06B40F01000E0632046FEF742
:10424000C3FE70BD10B50146806B09680968C905D9
:1042500013D40021C1850168CA6822F48072CA6043
:1042600001684A6922F001024A6101684A6922F044
:1042700040024A61202180F83A10FFF704F910BD8E
:1042800010B5806BFFF700F910BD0168CA6822F411
:104290009072CA6001684A6922F001024A612021D5
:1042A00080F83A1070470168CA6822F0C002CA60FC
:1042B000202180F839107047F8B5044690F83A008C
:1042C000202833D179B372B394F8380001282DD067
:1042D000012084F83800A162A2850025E563222030
:1042E00084F83A00606B134605650846666B2168E2
:1042F00002463046091DFDF759F9206801684168FA
:10430000009184F83850C16841F48071C160206820
:10431000416941F0010141612068416941F040017A
:1043200041610020F8BDFFE70120FBE70220F9E72B
:1043300010B590F83A10222901D0022010BD8168F2
:10434000B1F5805F11D00169002901681FD049686B
:1043500001F07F03816A4A1C82620B70C18D491E85
:104360000904090CC18518D02BE00269816A002A72
:104370000268526805D0D2B20A80816A491C816203
:10438000ECE7C2F308020A80816A891CF7E74A68F1
:10439000816A4B1C83620A70E0E70168CA6822F0F8
:1043A0002002CA600168CA6822F48072CA6001688B
:1043B0004A6922F001024A61202180F83A10FFF791
:1043C00062F8002010BD00002DE9F04104460068AD
:1043D0000169E26821F44051114301612169A0683B
:1043E000E26908436169114322680843D16849F2D0
:1043F0000C6399430143D16020684169A26921F4AB
:10440000407111434161E2696425B2F5004F97485C
:10441000974922684FF032083FD08A4201D0824249
:104420007CD1FDF75BFF00EBC00101EB0010616880
:104430008900B0FBF1F6FDF751FF00EBC00101EB85
:10444000001061688900B0FBF1F0B0FBF5F06FF08F
:104450001801484306EB800108EB0110B0FBF5F0B2
:1044600000F0F006FDF73AFF00EBC00101EB001091
:1044700061688900B0FBF1F0B0FBF5F006EB0016C7
:10448000FDF72CFF00EBC00101EB00106168890013
:10449000B0FBF1F7FDF722FFD2E08A4201D0824261
:1044A0003DD1FDF71BFF00EBC00101EB001061687F
:1044B0004900B0FBF1F0B0FBF5F00601FDF70EFF8F
:1044C00000EBC00101EB001061684900B0FBF1F79F
:1044D000FDF704FF00EBC00101EB0010616849002B
:1044E000B0FBF1F0B0FBF5F06FF01801484307EBBB
:1044F000800108EBC100B0FBF5F000F0F80006EB1E
:104500004006FDF7EBFE00EBC00101EB0010616817
:104510004900B0FBF1F7FDF7E1FE3CE055E0FDF7A7
:10452000CDFE00EBC00101EB001061684900B0FB5B
:10453000F1F0B0FBF5F00601FDF7C0FE00EBC001A5
:1045400001EB001061684900B0FBF1F7FDF7B6FE22
:1045500000EBC00101EB001061684900B0FBF1F015
:10456000B0FBF5F06FF01801484307EB800108EB52
:10457000C100B0FBF5F000F0F80006EB4006FDF7D7
:104580009DFE00EBC00101EB001061684900B0FB2B
:10459000F1F7FDF793FE00EBC00101EB001061683D
:1045A0004900B0FBF1F0B0FBF5F06FF018014843A3
:1045B00007EB800108EBC100B0FBF5F000F007004D
:1045C000216830448860BDE8F081FDF777FE00EB9C
:1045D000C00101EB001061688900B0FBF1F6FDF746
:1045E0006DFE00EBC00101EB001061688900B0FBBB
:1045F000F1F0B0FBF5F06FF01801484306EB8001D5
:1046000008EB0110B0FBF5F000F0F006FDF756FEE8
:1046100000EBC00101EB001061688900B0FBF1F014
:10462000B0FBF5F006EB0016FDF748FE00EBC0010D
:1046300001EB001061688900B0FBF1F7FDF73EFE69
:1046400000EBC00101EB001061688900B0FBF1F0E4
:10465000B0FBF5F06FF01801484307EB800108EB61
:104660000110B0FBF5F000F00F00A9E700140140C5
:104670000010014090F83910212901D00220704724
:104680008168B1F5805F016A0BD04A1C0262026842
:1046900009785160C18C491E0904090CC1840ED0EF
:1046A00017E009880268C1F3080151600169002917
:1046B000016A02D0491C0162ECE7891CFBE7016832
:1046C000CA6822F08002CA600068C16841F04001F7
:1046D000C160002070472DE9F041984617460E460C
:1046E0000446069D1DE0681C1BD02DB1FDF7DAF8CD
:1046F000A0EB0800A84214D92068C16821F4D07149
:10470000C1602068416921F001014161202084F8E5
:10471000390084F83A00002084F838000320BDE80E
:10472000F0812068006836EA000004D00020B8421A
:10473000D9D00020F3E70120F9E7000010B50448C4
:1047400003F088FCBDE810400148FEF7B3BC000050
:10475000B4020020014803F0ADBC00001418002092
:104760000148FEF733BC0000F402002010B5D0F879
:104770008C2252689047002010BD134610B50A469F
:10478000002100F092F9002010BD134610B50A4632
:10479000002100F018FA002010BD10B50446802159
:1047A00000F0FFF92046BDE81040002100F0F9B903
:1047B00010B505210023C0F86C121A46194600F006
:1047C00074F9002010BD10B50223C261C0F86C322C
:1047D000026213460A46002100F0F5F9002010BDE0
:1047E00010B504210023C0F86C121A46194600F0D7
:1047F000EAF9002010BDF8B5044648880D46010AC4
:1048000008294BD2DFE801F04A0409174A4A404818
:10481000D4F88812207C0A6832E0207C0226002826
:10482000D4F88C0205D0C16A6846884701464670B4
:1048300041E0816AF8E7C0B206282FD2DFE800F035
:1048400003080D12171CD4F88812207C4A6817E060
:10485000D4F88812207C8A6812E0D4F88812207C70
:10486000CA680DE0D4F88812207C0A6908E0D4F800
:104870008812207C4A6903E0D4F88812207C8A6977
:1048800069469047014616E0207C38B9D4F88C027E
:10489000416B68468847F5E7207C20B129462046D1
:1048A000FFF77BFFF8BDD4F88C02016B68468847A0
:1048B000014607204870BDF8000048B1EA8852B1AF
:1048C000824200D90246ADF800202046FFF77BFF68
:1048D000E8880028E6D12046FFF782FFF8BD0100F6
:1048E0004FF0000004D0012901D0022901D002209C
:1048F00070470120704710B5D0F89802FDF7D4F842
:10490000BDE81040FFF7EBBF2DE9F0411746044624
:1049100051B1D4F88C0242691AB194F87402032898
:1049200051D00220BDE8F081D4F86C32002504F1AA
:104930001400022B03D0042B3AD0C3B33CE0D0E9DF
:1049400003639E4207D9F11AC1608AB239462046F4
:10495000FFF71BFF12E08068B0FBF3F103FB1101CE
:1049600099B9984211D3D4F8701288420DD200221E
:1049700011462046FFF709FFC4F8705200231A467B
:104980001946204600F091F816E0D4F88C02C16870
:1049900029B194F87402032801D120468847802168
:1049A000204600F0FEF82046FFF702FF04E0FFE794
:1049B0008021204600F0F5F894F87802012804D10F
:1049C00084F8785201E0204690470020AAE770B5AD
:1049D0001546044649B1D4F88C0282691AB194F89C
:1049E0007402032830D0022070BDD4F86C1204F594
:1049F000A070032902D005291ED027E0D0E90321A9
:104A00008A420BD9531AC3600846834200D3034637
:104A10009AB229462046FFF7B0FE17E0D4F88C0280
:104A2000016929B194F87402032801D1204688470E
:104A30002046FFF7D5FE09E000200146C4F86C02CD
:104A4000204600F0AEF801E020469047002070BDFF
:104A50000020704710B5012180F87412D0F88C2224
:104A6000017952689047002010BD0A0601F07F01CD
:104A7000D0F89802C1EBC10100EB810002D590F89B
:104A80003E00704790F8FE017047002070470020FC
:104A9000704710B51C461346D0F898022246FDF721
:104AA00031F8BDE81040FFF71ABF10B5D0F89802F2
:104AB000FDF758F8BDE81040FFF711BF70B50022B0
:104AC000044640231146FFF7E4FF40260125C4F8C1
:104AD00050613346002280212046C4F84451FFF73C
:104AE000D8FF6662A56184F874520020C4F86C0295
:104AF0006060C4F87C02D4F8900228B1D4F88C022B
:104B00000021426820469047002070BD90F8751241
:104B100080F874120020704710B590F874120329C1
:104B200004D1D0F88C12C96901B18847002010BDAA
:104B300001740020704710B5D0F89802FDF7ECFA28
:104B4000BDE81040FFF7CBBE70B5044600F52070FD
:104B5000054600F041F80120C4F86C02B4F8860262
:104B6000C4F8700294F8800210F01F010AD00129E5
:104B70000DD0022910D000F08001204600F011F87D
:104B8000002070BD2946204600F088F8F8E7294645
:104B9000204600F0B4F9F3E72946204600F007F973
:104BA000EEE710B5D0F89802FDF700F8BDE8104028
:104BB000FFF795BE90F8741280F87512042180F802
:104BC00074120020704710B5D0F89802FDF728F84D
:104BD000BDE81040FFF783BE0A7802704A78427041
:104BE0008A78CB7802EB032242800A794B7902EB78
:104BF000032282808A79C97902EB0121C180704742
:104C000010B5D0F88C2202241AB11268904700B96E
:104C10000024204610BD000070B50E461E4D897858
:104C200004462970012931D894F8740202280BD067
:104C300003280FD031462046FFF7AFFD29782046E4
:104C4000BDE87040FFF792BDD9B10320616084F8E0
:104C5000740209E071B16068884212D0C1B2204686
:104C6000FFF784FD297861602046FFF7C9FF02281D
:104C70000CD006E0022084F8740220466160FFF741
:104C800075FD2046BDE87040FFF7AABD31462046BD
:104C9000BDE87040FFF781BD1C0000202DE9F04108
:104CA0000A78002612F0600208D0202A01D0402A9B
:104CB00070D1D0F88C22926890476DE04B7800223A
:104CC00001250A2B66D2DFE803F0405D65576508D1
:104CD00005652C29FFF78FFD5EE004468888D8B96A
:104CE000C888C8B94888802816D200F07F0794F891
:104CF0007402032810D084F8767239462046FFF7F4
:104D00001AFF2046FFF76CFD1FB1022084F87402E1
:104D100042E084F874523FE020463BE0FFF77CFF1E
:104D20003AE0CB88012B35D190F87432012B04D0B6
:104D3000022B02D0032B2DD104E08260012200F16E
:104D4000080116E00122011D13E090F87422012AE7
:104D500003D0022A01D0032A1CD1CA88022A19D101
:104D6000C560D0F87C1209B10321C160022200F1B4
:104D70000C01FFF728FD0FE0498801290CD1C0F88C
:104D80007C5211E090F87432012B08D0022B06D02F
:104D9000032B04D0FFF701FD3046BDE8F0814988C0
:104DA0000129F9D1C0F87C22FFF71AFDF4E72DE9BB
:104DB000F0410A46044610780027097910F0600394
:104DC0000AD0202B01D0402B50D1D4F88C021146B0
:104DD0008368204698478FE0C0F34110012806D031
:104DE0005078D0B301282AD003283FD107E0D4F867
:104DF0008C02114683682046BDE8F041184794F8BC
:104E00007402022802D0032872D10AE071B380290B
:104E10006ED02046FFF7C5FE80212046FFF7C1FE79
:104E20006AE0508838B931B1802904D0D08810B9EF
:104E30002046FFF7B6FE2046FFF7D2FC5CE094F870
:104E400074020228E2D0032852D1508898BB480649
:104E5000F1D02046FFF74FFDEDE7FFE794F874022D
:104E60000026022803D0032842D112E040E009B115
:104E700080293DD1080601F07F0000EB800004EBA3
:104E8000800101D5143101E001F5A07102220E600C
:104E90002AE0080601F00F0000EB800004EB800020
:104EA0000AD5806920B301F07F0000EB800004EB9D
:104EB000800514350BE01FE0D0F84401C0B101F0CB
:104EC0007F0000EB800004EB800505F5A07541B183
:104ED000802906D02046FFF7C8FD10B101202860C8
:104EE00000E02E60022229462046FFF76CFC03E01A
:104EF00011462046FFF751FC3846BDE8F08170B5F9
:104F0000054608780C4610F0600003D0202801D038
:104F1000402816D195F87402012803D0022801D048
:104F200003280ED1207901280BD8D5F88C0282688D
:104F300028469047E188014306D12846FFF750FCF8
:104F400002E02846FFF729FC002070BD70B50A7802
:104F5000012302F00F054E78AB401B4CD0F81C58D3
:104F6000012E17D045EA0343C0F81C3800EB42106D
:104F7000D0F8002B12040BD4D0F8002B0B89C97881
:104F8000C3F30A031A4344EA81410A43C0F8002BE1
:104F9000002070BD9BB21D43C0F81C5800EB4210AE
:104FA000D0F800391B04F3D4D0F800390D89C97842
:104FB000C5F30A0589042B4341EA82510B4323437D
:104FC000C0F80039E4E7000000800010D0F80019B4
:104FD0006FF30A01C0F80019D0F80818C1F34101B5
:104FE000022905D1D0F8001941F00301C0F80019D9
:104FF000D0F8041841F48071C0F8041800207047FC
:1050000070B50D784E78404CEBB200EB4313012E97
:105010001FD0D3F8100B6FF31200C3F8100BD3F8A6
:10502000100B2040C3F8100B486908B1886848612C
:10503000D3F8100B40F40020C3F8100BD3F8100B7A
:105040008C68C4F312042043C3F8100B012A4ED01D
:1050500051E04E69002ED3F8106932D06FF312067A
:10506000C3F81069D3F810692640C3F810694E6977
:105070008C68A64200D94C61D3F8104944F400244E
:10508000C3F81049D3F810494E69C6F312063443E9
:10509000C3F81049012A22D04A694AB1D0F834280D
:1050A000097801F00F03012199400A43C0F8342820
:1050B00000EB4510D0F8001941F00441C0F8001988
:1050C0001FE02640C3F81069D3F8104944F40024C7
:1050D000C3F81049D3F810496FF31204D8E70969EF
:1050E0000029E5D000EB4512C2F81419E0E7C868C2
:1050F00008B1C3F8140BD3F8000B40F00440C3F818
:10510000000B002070BD0000FFFF07E010B5036C2E
:10511000134CA34203D9D0F8003B002B1EDB002325
:10512000C0F8103BD0F8103B43F40023C0F8103B0C
:10513000D0F8103B43F01803C0F8103BD0F8103BF8
:1051400043F0C043C0F8103B012907D1C0F8142B2D
:10515000D0F8001B41F08021C0F8001B002010BDDA
:105160000A30544F4A780B78012A00EB43100BD0D9
:10517000D0F8002B22F40012C0F8002BC9780329C4
:1051800014D0022912D017E0D0F8002922F400121E
:10519000C0F80029C978032901D002290CD1D0F820
:1051A000001941F08051C0F8001905E0D0F8001B4B
:1051B00041F08051C0F8001B002070470A784B78FE
:1051C000D1B200EB4110012B12D0D0F8001B002906
:1051D00006DB2AB1D0F8001B21F08041C0F8001B8B
:1051E000D0F8001B41F40011C0F8001B00207047EC
:1051F000D0F80019002906DB2AB1D0F8001921F0F7
:105200008041C0F80019D0F8001941F40011C0F82D
:105210000019EBE7F8B50C784F786F4DE3B26FF0FB
:10522000604600EB4313012F26D0D3F8104B6FF3E9
:105230001204C3F8104BD3F8104B2C40C3F8104B9A
:105240004C69002C6FD08D682C44641EB4FBF5F4BF
:10525000D3F8105BA4B206EAC4463543C3F8105B2A
:10526000D3F8105B8E686643C6F312042543C3F877
:10527000105B012A7ED096E04F691FB3D3F81079F6
:105280006FF31207C3F81079D3F810792F40C3F8E1
:1052900010794F698D682F447F1EB7FBF5F506EA3C
:1052A000C545D3F810693543C3F81059D3F81059E0
:1052B0004E69C6F312063543C3F81059CD78012D57
:1052C00010D01BE0D3F810692E40C3F81069D3F852
:1052D000105945F40025C3F81059D3F810596FF34D
:1052E000120509E0D3F8105925F0C045C3F810594C
:1052F000D3F8105945F00055C3F81059012A13D0BE
:10530000CB78012B18D04B692BB3D0F834380D78FB
:1053100005F00F060125B5402B43C0F83438CB7893
:10532000012B09D017E02BE00B69002BF7D000EB25
:105330004415C5F81439F2E7D0F80838DB0500EB5E
:105340004413D3F8005902D445F0005501E045F06C
:105350008055C3F8005900EB4413D3F8004944F0DA
:105360000444C3F80049CB78012B32D100928A8AD9
:1053700093B200E013E00A78C96800F011F928E060
:10538000D3F8104B8D68C5F312052C43C3F8104BAE
:10539000D3F8104B44F40024C3F8104B69E7CA68F3
:1053A0000AB1C3F8142BC97801290CD1D0F8080828
:1053B000C005D3F8000B02D440F0005001E040F0EB
:1053C0008050C3F8000BD3F8000B40F00440C3F842
:1053D000000B0020F8BD0000FFFF07E000222023A3
:1053E00043EA811101610549521C8A4201D9032017
:1053F000704703699B06F7D400207047400D0300F7
:10540000D0F8080810F0060004D0022803D00628BF
:1054100001D00020704703207047406900F0010070
:105420007047D0F81818D0F81C08084080B27047B0
:10543000D0F81818D0F81C080840000C704710B5B8
:10544000D0F81038D0F8342801F00F0400EB4110E8
:10545000E24002F00102D0F8080943EAC21210400B
:1054600010BD00EB4111D1F8081BD0F8140808401A
:1054700070474169806908407047D21C10B5930895
:10548000002200F5805002E00468521C10C19A42CC
:10549000FAD3084610BDD0F8002822F4FE62C0F806
:1054A0000028D0F800284FF4FE6303EA01110A43F4
:1054B000C0F8002800207047032A3ED1264A274B17
:1054C0000A449A4201D20F2138E0254A254B0A446A
:1054D0009A4201D20E2131E0234A244B0A449A42D7
:1054E00001D20D212AE0224A224B0A449A4201D2DB
:1054F0000C2123E0204A214B0A449A4201D20B217D
:105500001CE01F4A1F4B0A449A4201D20A2115E0AF
:105510001D4A1E4B0A449A420FD31D4A1D4B0A4492
:105520009A4201D2082109E01B4A11441B4A9142C8
:1055300001D2072102E0062100E00921C26822F41D
:105540007052C260C2684FF4705303EA81210A436B
:10555000C260002070470000405327FF00350C0058
:10556000401E1BFF40420F0000DC0BFF804F12006B
:10557000808CF9FE20D6130060B6E5FE60E31600CD
:1055800000D3CEFE40771B00C05BB3FEC09121006C
:1055900000CA91FE20753800E05459FEE09C41009D
:1055A00010B5029C64B9DB1C9C0800EB02300023A0
:1055B00000F5805002E004C902605B1CA342FAD3EC
:1055C000002010BDFEE7FEE703B4019841000098FB
:1055D00050EAC12018BF04204A0D18BF40F0010056
:1055E00040F2FF72B2EB515F08BF40F002000128A9
:1055F00008BF052002B070470907090E002804DB28
:1056000000F1E02080F80014704700F00F0000F176
:10561000E02080F8141D704770B5C1482DED020BD5
:105620002DED0E8B82B0119D25F000449FEDBEDB69
:105630009FEDBFEB84423EDBA4F140511098A1F1F5
:105640007F6108430FD0BC48844202DC28D1109807
:1056500030B39DED100B02B0BDEC0E8B02B0BDE877
:10566000704000F0B0BC9DED100B53EC1D2B51ECC5
:10567000100BFAF7B3FE9DED100B41EC180B53EC39
:105680001E2B51EC100BFAF7A9FE53EC182BFAF76E
:10569000FEFD41EC100B02B0BDEC0E8B02B070BDF4
:1056A000012000F0D5FC02B0BDEC0E8B02B0BDE8CD
:1056B000704000F09DBCA1489FEDA18B844256DA5A
:1056C0009DED100BB4F1795F0ADA51EC100BFFF786
:1056D0007BFF042808BF00F09BFC9DED100BDAE770
:1056E00053EC102B51EC100BFAF778FE41EC190B30
:1056F00095480621B0EE490AF0EE690A784400F0B8
:10570000E6FB53EC192B51EC100BFAF767FE41EC5A
:105710001A0B8E48B0EE490AF0EE690A042178446B
:1057200000F0D5FB53EC192B51EC100BFAF756FE99
:1057300053EC182BFAF7ABFD41EC100B51EC1A0BA4
:1057400053EC102BFAF7BCFECDE900019DED000BE8
:1057500053EC102B9DED100B51EC100BFAF73EFEA5
:105760009DED101B53EC112BFAF791FDD2E09DED4E
:10577000100B51EC100B00F05FFD53EC182BFAF7F7
:105780002AFE9FED730BCDE9000153EC102B9DED2C
:10579000000B51EC100BFAF721FE41EC190B6E488F
:1057A0000621B0EE490AF0EE690A784400F08FFB5A
:1057B00053EC192B51EC100BFAF710FE41EC1B0BBC
:1057C0006648B0EE490AF0EE690A0421784400F018
:1057D0007EFB53EC192B51EC100BFAF7FFFD53EC49
:1057E000182BFAF754FD41EC1C0B51EC190B02F08D
:1057F0003DFB41EC180B5A489FED5BABA04222DC0D
:1058000053EC1C2B51EC1B0BFAF75AFECDE90001AF
:105810009DED000B51EC180B53EC102BFAF7DEFD4D
:1058200053EC182BFAF733FD53EC1A2BFAF7D6FD8D
:1058300053EC1D2BFAF7CCFD53EC1E2BFAF7CBFDE6
:1058400041EC100B5FE08DED008B002000909DED92
:10585000000B51EC180B53EC102BFAF718FD9DEDD3
:10586000000B41EC1E0B53EC102B51EC100BFAF714
:10587000B5FD53EC192BFAF7AEFD53EC1E2BFAF7DE
:105880001FFE41EC190B53EC1C2B51EC1B0BFAF7D0
:1058900017FE41EC1B0B53EC1A2B51EC190BFAF7CA
:1058A0009DFD53EC1D2BFAF796FD41EC190B53ECC3
:1058B0001A2B51EC180BFAF791FD53EC1B2BFAF74E
:1058C0008DFD53EC192BFAF783FD9DED000B41EC98
:1058D000180B53EC1A2B51EC100BFAF77FFD9FEDD0
:1058E000249B53EC192BFAF776FD41EC100B51EC8D
:1058F000180B53EC102BFAF76BFD53EC192BFAF73E
:105900006AFD41EC100B002D3FF7C5AE51EC100BBA
:1059100081F0004141EC100BBDE6000000000000EA
:105920000000F03F00000000075C143326A6913C05
:10593000182D4454FB21F93F0000F07F0000E03FA8
:10594000000000000000F03F603100006E310000F8
:10595000000000000000E03FB2300000C030000056
:105960003333EF3F00000000000000000000004063
:10597000182D4454FB21E93F70B59B482DED020BD7
:105980002DED068B079D25F00044A04218DC9748BA
:10599000844202DC0AD1069840B19DED060BBDECB5
:1059A000068B02B0BDE8704000F00DBB002DCCBFEF
:1059B0009FED8F0B9FED900BBDEC068B02B070BD81
:1059C0008F48A04215DD8F48A042D8BF4FF0FF346A
:1059D00058DD9DED060B51EC100BFFF7F5FD04288B
:1059E00008BF00F015FB9DED060BBDEC068B02B069
:1059F00070BD9DED060B51EC100B00F01DFCCDE9C8
:105A0000060181489FED828BA0423CDD8248A04286
:105A10001FDD00249FED82AB9DED060B53EC1A2B8E
:105A200051EC100BFAF733FC9DED060B41EC190B12
:105A300053EC1A2B51EC100BFAF7D0FC53EC182B4B
:105A4000FAF7C6FC53EC192BFAF73AFDCDE906013B
:105A500049E09DED060B012453EC182B51EC100B83
:105A6000FAF715FC9DED060B41EC190B53EC182BC6
:105A700051EC100BFAF7ACFC53EC192BFAF720FDA4
:105A8000CDE906012FE06848A0421FDD02249FED0A
:105A9000689B9DED060B53EC192B51EC100BFAF79C
:105AA0009DFC53EC182BFAF7F2FB9DED060B41EC35
:105AB000180B53EC192B51EC100BFAF789FC53EC33
:105AC000182BFAF7FDFCCDE906010CE09DED060B65
:105AD000032453EC102B9FED580B51EC100BFAF7ED
